:100000000248C3008F828E83E0540100000070F824
:100010002278FFE4F6D8FD02492190FFFD121C92E0
:10002000121C5790FFFF121C92EFF090FFFF121C62
:1000300092851583851682E4F0851583851682A343
:10004000E0FFEF5480FF7E00EF4E70030203E18576
:100050001583851682A3E0FFEF54F0FF7E00EF6466
:10006000F04E6003020305851583851682A3E0FF29
:10007000EF5408FF7E00EF4E6014851583851682CD
:10008000A3E0FF851583851682EFF0020730851502
:1000900083851682A3E0FFEF121C6C00B1F00228EA
:1000A000F10174F201CEF30282F6010CF7000007B1
:1000B00030851583851682A3A3121C4EE92404F90A
:1000C000EA3400FA74F0121A2F851583851682A37C
:1000D000A3121C4EE92403F9EA3400FA74F0121A50
:1000E0002F851583851682A3A3121C4EE92401F9DE
:1000F000EA3400FA7401121A2F851583851682A33B
:10010000A3121C4E7403121A2F0207308515838523
:100110001682A3A3121C4EE92403F9EA3400FAE480
:10012000121A2F851583851682A3A3121C4EE9246B
:1001300001F9EA3400FA1219F4FF85158385168255
:10014000A3A3121C4EE92402F9EA3400FAEF121AB2
:100150002F851583851682A3A3121C4EE92401F96D
:10016000EA3400FAE4121A2F85158385168274F793
:10017000F0020730851583851682A3A3121C4EE971
:100180002404F9EA3400FA74F2121A2F85158385D3
:100190001682A3A3121C4EE92403F9EA3400FAE400
:1001A000121A2F851583851682A3A3121C4EE924EB
:1001B00001F9EA3400FA7401121A2F8515838516A5
:1001C00082A3A3121C4E7403121A2F020730851546
:1001D00083851682A3A3121C4EE92404F9EA340095
:1001E000FA74F3121A2F851583851682A3A3121CA5
:1001F0004EE92403F9EA3400FAE4121A2F85158334
:10020000851682A3A3121C4EE92401F9EA3400FAF0
:100210007401121A2F851583851682A3A3121C4E12
:100220007402121A2F020730851583851682A3A344
:10023000121C4EE92404F9EA3400FA74F1121A2F60
:10024000851583851682A3A3121C4EE92403F9EABF
:100250003400FAE4121A2F851583851682A3A3129F
:100260001C4EE92401F9EA3400FA7401121A2F85B0
:100270001583851682A3A3121C4E7402121A2F0234
:100280000730851583851682A3A3121C4EE924042A
:10029000F9EA3400FA74F6121A2F8515838516824E
:1002A000A3A3121C4EE92403F9EA3400FAE4121A5B
:1002B0002F851583851682A3A3121C4EE92402F90B
:1002C000EA3400FA7401121A2F851583851682A369
:1002D000A3121C4EE92401F9EA3400FAE4121A2FA1
:1002E000851583851682A3A3121C4EE92402F9EA20
:1002F0003400FA1219F4FF851583851682EFF00297
:100300000730020730851583851682A3E0FF851527
:1003100083851682A3A3121C4EE92404F9EA340053
:10032000FAEF121A2F851583851682A3E0FF851533
:1003300083851682A3A3121C4EE92403F9EA340034
:10034000FAEF121A2F851583851682A3A3121C4E6D
:10035000E92401F9EA3400FA7401121A2F85158391
:10036000851682A3E0FFEF54F0FFEF121C6C0387A9
:10037000800387900387A00387B0039AC0039AD0B5
:100380000387E0000003AD851583851682A3A312C1
:100390001C4E7403121A2F020730851583851682AE
:1003A000A3A3121C4E7402121A2F02073085158364
:1003B000851682A3A3121C4EE92403F9EA3400FA3D
:1003C000E4121A2F851583851682A3A3121C4EE909
:1003D0002401F9EA3400FAE4121A2F020730020766
:1003E00030851583851682A3A3121C4EE92403F9D8
:1003F000EA3400FA1219F4FFEF64F060030204D843
:10040000851583851682A3E0FF851583851682A353
:10041000A3121C4EE92401F9EA3400FA1219F4FE81
:10042000EEFD7C00851583851682A3A3121C4EE980
:100430002404F9EA3400FAE92DF9EA3CFAEF121A39
:100440002F851583851682A3A3121C4EE92401F97A
:10045000EA3400FA7401121A0D851583851682A3F9
:10046000A3121C4EE92401F9EA3400FA1219F4FF30
:10047000851583851682A3A3121C4E1219F4FEEF74
:10048000C39E5003020730851583851682A3A312ED
:100490001C4EE92401F9EA3400FA1219F4FF85151B
:1004A00083851682A3A3121C4EE92402F9EA3400C4
:1004B000FAEF121A2F851583851682A3A3121C4EFC
:1004C000E92401F9EA3400FAE4121A2F851583852C
:1004D000168274F0F0020730851583851682A3A377
:1004E000121C4EE92401F9EA3400FA1219F4FFEF64
:1004F000D3940050030205E6851583851682A3E098
:10050000FF851583851682A3A3121C4EE92401F9E9
:10051000EA3400FA1219F4FEEEFD7C00851583859D
:100520001682A3A3121C4EE92404F9EA3400FAE966
:100530002DF9EA3CFAEF121A2F851583851682A34E
:10054000A3121C4EE92401F9EA3400FA7401121ACC
:100550000D851583851682A3A3121C4EE92401F98B
:10056000EA3400FA1219F4FF851583851682A3A3D5
:10057000121C4E1219F4FEEFC39E50030207308581
:100580001583851682A3A3121C4EE92401F9EA34CF
:1005900000FA1219F4FF851583851682A3A3121C95
:1005A0004EE92402F9EA3400FAEF121A2F85158376
:1005B000851682A3A3121C4EE92401F9EA3400FA3D
:1005C000E4121A2F851583851682A3A3121C4EE907
:1005D0002402F9EA3400FA1219F4FF85158385160E
:1005E00082EFF0020730851583851682A3A3121CC3
:1005F0004EE92403F9EA3400FA1219F4FFEF70030C
:10060000020730851583851682A3A3121C4EE924A8
:1006100003F9EA3400FA1219F4FF8515838516826E
:10062000A3A3121C4EE92404F9EA3400FAEF121ACB
:100630002F851583851682A3E0FF85158385168295
:10064000A3A3121C4EE92405F9EA3400FAEF121AAA
:100650002F851583851682A3A3121C4EE92401F968
:10066000EA3400FA7402121A2F851583851682A3C4
:10067000A3121C4EE92403F9EA3400FA1219F4FF1C
:10068000EF54F0FFEF121C6C06A18006A19006A1AA
:10069000A006A1B006B3C006B3D006A1E0000007D3
:1006A00019851583851682A3A3121C4E7403121A92
:1006B0002F807D851583851682A3A3121C4EE92405
:1006C00001F9EA3400FA1219F4FF851583851682C0
:1006D000A3A3121C4EE92402F9EA3400FAEF121A1D
:1006E0002F851583851682A3A3121C4EE92401F9D8
:1006F000EA3400FAE4121A2F851583851682A3A323
:10070000121C4EE92402F9EA3400FA1219F4FF85AA
:100710001583851682EFF08017851583851682A3D1
:10072000A3121C4EE92401F9EA3400FAE4121A2F4C
:10073000851583851682E0FF900005121C92229099
:10074000FFFF121C92EFF090FFF3121C9290000733
:10075000121CB6E4F0A3E4F0851583851682E4F05C
:10076000851583851682E0FFEFC3940940030208D4
:1007700028851583851682E0FFEF75F00BA4241AF7
:10078000F582E43404F583E4F0851583851682E070
:10079000FFEF75F00BA4241CF582E43404F583E428
:1007A000F0851583851682E0FFEF75F00BA4241DFC
:1007B000F582E43404F583E4F0851583851682E040
:1007C000FFEF75F00BA42422F582E43404F583E4F2
:1007D000F0A3E4F0851583851682E0FFEF75F00B3A
:1007E000A42424F582E43404F583E4F0851583859C
:1007F0001682E0FFEF75F00BA4241BF582E43404AD
:10080000F583E4F0851583851682E0FFEF75F00B24
:10081000A4241FF582E43404F583E4F08515838570
:100820001682E004F002076090000D121CB6E0FF93
:10083000EF6053851583851682A3A3E4F0851583A5
:10084000851682A3A3E0FFEFC39402503985158378
:10085000851682A3A3E0FF747D2FF582E43404F5AE
:1008600083E4F0851583851682A3A3E0FF748C2FA3
:10087000F582E43404F583E4F0851583851682A3BC
:10088000A3E004F080B7900415E0FFEFD39400508C
:1008900003020D96900415E0FFEF14FF124D0D902A
:1008A0000009121CB6EEF0A3EFF0900009121CB67E
:1008B000E0FEA3E0FF8F828E83A3121C60900004F1
:1008C000121CB6121C57900004121CB6121C4EE9E2
:1008D0002407F9EA3400FA1219F4FFEF5440FF7EBE
:1008E00000EF4E6010900414E0FFEF4401FF90040D
:1008F00014EFF0800E900414E0FFEF54FEFF90041C
:1009000014EFF0900009121CB6E0FEA3E0FFEF2404
:1009100004FFEE3400FE900009121CB6EEF0A3EFC7
:10092000F0900009121CB6E0FEA3E0FF8F828E83D8
:10093000E493FF851583851682EFF0851583851670
:1009400082A3A37401F0851583851682A3A3E0FF1B
:10095000EFC394094003020C41900009121CB6E059
:10096000FEA3E0FF8F828E83A3121C60AE02AF0154
:1009700090000B121CB6EEF0A3EFF08515838516E0
:1009800082A3E4F0851583851682E0FF85158385B3
:100990001682A3E0FEEEC39F4003020C3390000BCF
:1009A000121CB6E0FEA3E0FF8F828E83740293FFD9
:1009B000EF547FFF7E00851583851682A3A3E0FD9B
:1009C0007C00ED6F7002EC6E6003020C0890000B6F
:1009D000121CB6E0FEA3E0FF8F828E83740493FEA8
:1009E000740593FF851583851682A3A3E0FDED753D
:1009F000F00BA42422F582E43404F583E0FCA3E0A8
:100A0000FDC3ED9FEC9E503490000B121CB6E0FE2F
:100A1000A3E0FF8F828E83740493FE740593FF8599
:100A20001583851682A3A3E0FDED75F00BA42422A7
:100A3000F582E43404F583EEF0A3EFF090000B129E
:100A40001CB6E0FEA3E0FF8F828E83E493FF747DEB
:100A50002FF582E43404F583E0FF90000B121CB6FE
:100A6000E0FCA3E0FD8D828C83740193FEEF6E6049
:100A700003020C0890000B121CB6E0FEA3E0FF8FEF
:100A8000828E83740293FF851583851682A3A3E06B
:100A9000FEEE75F00BA4241EF582E43404F583EF1A
:100AA000F090000B121CB6E0FEA3E0FF8F828E8355
:100AB000740393FF851583851682A3A3E0FEEE756C
:100AC000F00BA4241AF582E43404F583EFF09000CF
:100AD0000B121CB6E0FEA3E0FF8F828E837403939B
:100AE000FFEF5403FF900003121CB6EFF090000BD1
:100AF000121CB6E0FEA3E0FF8F828E83740293FF88
:100B0000EF5480FF7E00EF4E7003020B90900003C5
:100B1000121CB6E0FFEFB401047F0780027F0D8551
:100B20001583851682A3A3E0FEEE75F00BA4241FA7
:100B3000F582E43404F583EFF0851583851682A3EE
:100B4000A3E0FFEF75F00BA4241BF582E43404F559
:100B5000837401F090000B121CB6E0FEA3E0FF8F3F
:100B6000828E83740693FFEF64016003020C089089
:100B70000003121CB6E0FFEF64026003020C08855C
:100B80001583851682A3A3E0FF9004E3EFF080783D
:100B9000900003121CB6E0FFEFB401047F05800251
:100BA0007F09851583851682A3A3E0FEEE75F00B01
:100BB000A4241FF582E43404F583EFF085158385C2
:100BC0001682A3A3E0FFEF75F00BA4241BF582E4CB
:100BD0003404F583E4F090000B121CB6E0FEA3E0B1
:100BE000FF8F828E83740693FFEFB4011B90000386
:100BF000121CB6E0FFEFB4020F851583851682A3A1
:100C0000A3E0FF9004E4EFF090000B121CB6E0FEAE
:100C1000A3E0FFEF2407FFEE3400FE90000B121C50
:100C2000B6EEF0A3EFF0851583851682A3E004F0FD
:100C3000020984851583851682A3A3E004F00209C6
:100C400046900009121CB6E0FEA3E0FF8F828E835F
:100C5000A3121C60AE02AF0190000B121CB6EEF0A6
:100C6000A3EFF0851583851682A3A3E4F085158391
:100C7000851682E0FF851583851682A3A3E0FEEE2C
:100C8000C39F506490000B121CB6E0FEA3E0FF8FE0
:100C9000828E83E493FF90000B121CB6E0FCA3E06D
:100CA000FD8D828C83740293FEEE547FFEEE75F010
:100CB0000BA42424F582E43404F583EFF090000BB8
:100CC000121CB6E0FEA3E0FFEF2407FFEE3400FEA7
:100CD00090000B121CB6EEF0A3EFF085158385167D
:100CE00082A3A3E004F08085124A97900489EEF075
:100CF000A3EFF0900007121CB6E4F0A3E4F0851512
:100D0000838516827401F0851583851682E0FFEFD6
:100D1000C39409507E900007121CB6E0FEA3E0FFCA
:100D2000851583851682E0FDED75F00BA42420F572
:100D300082E43404F583EEF0A3EFF0851583851685
:100D400082E0FFEF75F00BA42422F582E43404F571
:100D500083E0FEA3E0FF900007121CB6EE8FF012B6
:100D60001A41900007121CB6E0FEA3E0FFEF30E04E
:100D7000067E007F0180047E007F00900007121C29
:100D8000B6EE8FF0121A41851583851682E004F0C5
:100D9000020D0712350C90000E121C922290053D98
:100DA000E4F0906000E0FF900540EFF07B007A00F7
:100DB0007900900541121C5790047FE4F0A3E4F001
:100DC000900540E0FFEF5480FF7E00EF64804E60AE
:100DD00003021078906001E0FFEF121C6C0FA0007E
:100DE0000DED06102C08104C0A00001297906003BD
:100DF000E0FFEFB40135126AE5900546EEF0A3EF8F
:100E0000F0900546E0FEA3E0FF8F828E83A3121CC4
:100E100060900481121C5790047FE4F0A37412F0D8
:100E2000125D2690053DEFF0021297906003E0FFFF
:100E3000EF6402707A906002E0FF124D0D9005465B
:100E4000EEF0A3EFF0900546E0FEA3E0FFEF4E705A
:100E500003021297900546E0FEA3E0FF8F828E8387
:100E6000A3121C60900481121C57900481121C4E26
:100E7000E92403F9EA3400FA1219F4FF7E00EF7F47
:100E800000FE900481121C4EE92402F9EA3400FAB3
:100E90001219F4FD7C00EE4CFEEF4DFF90047FEE46
:100EA000F0A3EFF0125D2690053DEFF0021297904F
:100EB0006003E0FFEF64036003020F95900544E4D4
:100EC000F07BFF7A6E7918900541121C579005440B
:100ED000E0FF906002E0FEEED39F403D900541129E
:100EE0001C4E1219F4FFEF6030900541121C4E1297
:100EF00019F4FF900545EFF0900541121C4E900546
:100F000045E0FF7E00E92FF9EA3EFA900541121C08
:100F100057900544E004F080B4906002E0FFEFB425
:100F2000EE0C7BFF7A6F7907900541121C57906099
:100F300002E0FFEF6024906D91E493FF906002E087
:100F4000FEEEB507157B017A057966123EB97B0185
:100F50007A057966900541121C57900541121C4E86
:100F60001219F4FFEF7003021297900541121C4E04
:100F70001219F4FF7E0090047FEEF0A3EFF09005CD
:100F800041121C4E900481121C57125D2690053DA3
:100F9000EFF00212971258F390053DEFF00212970E
:100FA000900540E0FFEF5403FFEF121C6C0FFA00B6
:100FB0000FB7020000129790047FE4F0A37402F0D0
:100FC000906004E0FFEF547FFFEF75F00BA4241C4A
:100FD000F582E43404F583E0FF9005A3EFF090057B
:100FE000A4E4F07B017A0579A3900481121C5712C6
:100FF0005D2690053DEFF002129790047FE4F0A388
:101000007402F0900414E0FF9005A3EFF09005A4A3
:10101000E4F07B017A0579A3900481121C57125DDC
:101020002690053DEFF002129702129790047FE49C
:10103000F0A37401F07B017A047915900481121CED
:1010400057125D2690053DEFF002129790047FE461
:10105000F0A37401F0906004E0FF747D2FF9E43494
:1010600004FA7B01900481121C57125D2690053D05
:10107000EFF0021297021297906001E0FFEF121C4E
:101080006C11780112100310940510A90911210B9D
:1010900000001297906002E0FF90040EEFF0126BD8
:1010A0000090053DEFF0021297906002E0FF90057E
:1010B0003FEFF090053FE0FFEFD394004013900521
:1010C0003FE0FFEF14FF124D0D900546EEF0A3EF49
:1010D000F090053FE0FFEFD39400400C900546E010
:1010E000FEA3E0FFEF4E700B90053FE0FFEF6003C3
:1010F000021297900415E0FF90053FE0FEEE6F604E
:101100001590053FE0FF900415EFF090048B7401FB
:10111000F07F0112073F126B0090053DEFF00212C5
:1011200097125453EF7003021297906004E0FF90FF
:10113000053EEFF0906004E0FF900487EFF090052B
:101140003EE0FF747D2FF582E43404F583E0FF90E8
:10115000053EE0FE748C2EF582E43404F583E0FE57
:10116000EE6F600990048B7401F0121699126B00F7
:1011700090053DEFF0021297900540E0FFEF540319
:10118000FFEF121C6C11A80011CE01119202000099
:101190001297906002E0FFEF6003021297123D8009
:1011A00090053DEFF0021297906002E0FFEF6401BE
:1011B0006003021297900414E0FFEF54FDFF9004C7
:1011C00014EFF0126B0090053DEFF0021297906063
:1011D00004E0FFEFC394024003021297906004E022
:1011E000FF740F2FF582E43404F583C083C082E0DE
:1011F000FF906002E0FEEEF4FEEF5EFFD082D0834F
:10120000EFF0126B0090053DEFF00212970212977B
:10121000900540E0FFEF5403FFEF121C6C123C00FE
:10122000125E01122A0200001297906002E0FFEFA6
:101230007065124C4090053DEFF0805B906002E0DD
:10124000FFEF64017051900414E0FFEF4402FF903F
:101250000414EFF0126B0090053DEFF080399060C0
:1012600004E0FFEFC39402502E906004E0FF740F7F
:101270002FF582E43404F583C083C082E0FF9060E0
:1012800002E0FEEEF4FEEF5EFFD082D083EFF012BC
:101290006B0090053DEFF090053DE0FF2290FFFDD3
:1012A000121C92121C5790FFFF121C92EFF090FF3D
:1012B000FE121C92900003121CB6121C4E1219F45E
:1012C000FF851583851682EFF0900003121CB6127D
:1012D0001C4EE92401F9EA3400FA1219F4FF8515CD
:1012E00083851682A3EFF0851583851682A3A3E07C
:1012F000FFEFC394F84075900007121CB6E0FFEFB3
:10130000440FFF9004DEE0FE749E2EF582E4340468
:10131000F583EFF09004DEE004F0851583851682F6
:10132000A3A3E0FF9004DEE0FE749E2EF582E43479
:1013300004F583EFF09004DEE004F09004DEE0FFBB
:10134000749E2FF582E43404F583E4F09004DEE02B
:1013500004F09004DEE0FF749E2FF582E43404F57F
:1013600083E4F09004DEE004F00216928515838594
:101370001682A3A3E0FFEFC3940440128515838572
:101380001682A3A3E0FFEF64F0600302150E85153B
:1013900083851682A3A3E0FFEFB4F0269000071226
:1013A0001CB6E0FFEF4404FF9004DEE0FE749E2EC6
:1013B000F582E43404F583EFF09004DEE004F002FB
:1013C00014A0851583851682E0FFEFC394F0503298
:1013D000851583851682E0FFEFC4540FFF90000748
:1013E000121CB6E0FEEF4EFF9004DEE0FE749E2E6F
:1013F000F582E43404F583EFF09004DEE004F002BB
:1014000014A0851583851682E0FFEFB4F6259000C1
:1014100007121CB6E0FFEF4405FF9004DEE0FE7407
:101420009E2EF582E43404F583EFF09004DEE004B0
:10143000F0806D851583851682E0FFEF64F1600C06
:10144000851583851682E0FFEFB4F325900007121F
:101450001CB6E0FFEF4402FF9004DEE0FE749E2E17
:10146000F582E43404F583EFF09004DEE004F080CC
:101470002F851583851682E0FFEFB4F223900007D5
:10148000121CB6E0FFEF4403FF9004DEE0FE749E02
:101490002EF582E43404F583EFF09004DEE004F0EE
:1014A000851583851682E0FF9004DEE0FE749E2E93
:1014B000F582E43404F583EFF09004DEE004F08577
:1014C0001583851682A3E0FF9004DEE0FE749E2E55
:1014D000F582E43404F583EFF09004DEE004F0904C
:1014E0000003121CB6121C4EE92402F9EA3400FA79
:1014F0001219F4FF9004DEE0FE749E2EF582E434AF
:1015000004F583EFF09004DEE004F00216928515F6
:1015100083851682A3A3E0FFEF64F76003021692AF
:10152000900006121CB6E0FFEF121C6C1539001576
:10153000A50116180200001692900007121CB6E0D2
:10154000FFEF4405FF9004DEE0FE749E2EF582E47A
:101550003404F583EFF09004DEE004F09004DEE064
:10156000FF749E2FF582E43404F58374F7F0900441
:10157000DEE004F09004DEE0FF749E2FF582E43498
:1015800004F583E4F09004DEE004F09004DEE0FF74
:10159000749E2FF582E43404F583E4F09004DEE0D9
:1015A00004F0021692900007121CB6E0FFEF44060A
:1015B000FF9004DEE0FE749E2EF582E43404F58391
:1015C000EFF09004DEE004F0851583851682E0FFDD
:1015D0009004DEE0FE749E2EF582E43404F583EF81
:1015E000F09004DEE004F09004DEE0FF749E2FF53E
:1015F00082E43404F58374F7F09004DEE004F090A4
:1016000004DEE0FF749E2FF582E43404F583E4F0F9
:101610009004DEE004F0807A900007121CB6E0FF30
:10162000EF4407FF9004DEE0FE749E2EF582E43462
:1016300004F583EFF09004DEE004F0851583851651
:1016400082E0FF9004DEE0FE749E2EF582E4340416
:10165000F583EFF09004DEE004F0851583851682B3
:10166000A3E0FF9004DEE0FE749E2EF582E43404D5
:10167000F583EFF09004DEE004F09004DEE0FF7408
:101680009E2FF582E43404F58374F7F09004DEE0D5
:1016900004F0900008121C9222900415E0FFEFD392
:1016A000940050030219F3900415E0FFEF14FF12A9
:1016B0004D0D90054DEEF0A3EFF090054DE0FEA32B
:1016C000E0FFEF2404FFEE3400FE90054DEEF0A3A2
:1016D000EFF090054DE0FEA3E0FF8F828E83E49350
:1016E000FF900548EFF090054DE0FEA3E0FF8F82EC
:1016F0008E83A3121C60AE02AF0190054FEEF0A3E3
:10170000EFF0900487E0FF90054CEFF090054BE47C
:10171000F0900548E0FF90054BE0FEEEC39F4003CC
:101720000219F390054FE0FEA3E0FF8F828E83E461
:1017300093FF90054CE0FEEE6F60030219D2900516
:101740004FE0FEA3E0FF8F828E83740193FF90052C
:101750004CE0FE747D2EF582E43404F583E0FEEE69
:101760006F60030219D290054FE0FEA3E0FF8F8265
:101770008E83740293FFEF547FFF900549EFF09042
:10178000054FE0FEA3E0FF8F828E83740393FFEF8B
:101790005403FF90054AEFF0900549E0FFEF75F024
:1017A0000BA4241DF582E43404F583E4F090054F86
:1017B000E0FEA3E0FF8F828E83740293FF900549C1
:1017C000E0FEEE75F00BA4241EF582E43404F583EC
:1017D000EFF090054FE0FEA3E0FF8F828E8374034D
:1017E00093FF900549E0FEEE75F00BA4241AF582F4
:1017F000E43404F583EFF090054FE0FEA3E0FF8FA3
:10180000828E83740493FE740593FF900549E0FD76
:10181000ED75F00BA42422F582E43404F583EEF098
:10182000A3EFF090054FE0FEA3E0FF8F828E83745C
:101830000293FFEF5480FF7E00EF4E603C90054A1C
:10184000E0FFEFB401047F0780027F0D900549E0BF
:10185000FEEE75F00BA4241FF582E43404F583EF4B
:10186000F0900549E0FFEF75F00BA4241BF582E42E
:101870003404F5837401F0803990054AE0FFEFB439
:1018800001047F0580027F09900549E0FEEE75F0B6
:101890000BA4241FF582E43404F583EFF09005498E
:1018A000E0FFEF75F00BA4241BF582E43404F5830C
:1018B000E4F0900549E0FF75F010EF905FFE121C18
:1018C000427401F0900549E0FFEF75F00BA424226B
:1018D000F582E43404F583E0FEA3E0FFEEFF7E0032
:1018E000900549E0FE75F010EE905FFC121C42EF8F
:1018F000F0900549E0FFEF75F00BA42422F582E497
:101900003404F583E0FEA3E0FFEF54FFFF900549A8
:10191000E0FE75F010EE905FFD121C42EFF09005B6
:1019200049E0FFEF75F00BA42420F582E43404F5C0
:1019300083E0FEA3E0FFEF54FFFF900549E0FE7552
:10194000F010EE906076121C42EFF0900549E0FF37
:10195000EF75F00BA42420F582E43404F583E0FE57
:10196000A3E0FFEEFF7E00900549E0FE75F010EE6B
:10197000906077121C42EFF0900549E0FFEF75F0A0
:101980000BA42420F582E43404F583E0FEA3E0FFF9
:10199000EF54FFFF900549E0FE75F010EE90607483
:1019A000121C42EFF0900549E0FFEF75F00BA42404
:1019B00020F582E43404F583E0FEA3E0FFEEFF7E31
:1019C00000900549E0FE75F010EE906075121C4223
:1019D000EFF090054FE0FEA3E0FFEF2407FFEE34A9
:1019E00000FE90054FEEF0A3EFF090054BE004F001
:1019F00002171122BB010689828A83E0225002E786
:101A000022BBFE02E32289828A83E49322BB01097E
:101A100089828A83F8E028F022500327F722BBFE50
:101A200005F8E328F3228A838982F8E4932822BB0D
:101A3000010689828A83F0225002F722BBFE01F35D
:101A400022C5F0F8A3E028F0C5F0F8E58215827011
:101A5000021583E038F022BB010A89828A83F0E50F
:101A6000F0A3F0225006F709A7F01922BBFE06F3F7
:101A7000E5F009F31922EF2BFFEE3AFEED39FDEC0C
:101A800038FC22E88FF0A4CC8BF0A42CFCE98EF07B
:101A9000A42CFC8AF0EDA42CFCEA8EF0A4CDA8F0D6
:101AA0008BF0A42DCC3825F0FDE98FF0A42CCD359A
:101AB000F0FCEB8EF0A4FEA9F0EB8FF0A4CFC5F004
:101AC0002ECD39FEE43CFCEAA42DCE35F0FDE43CFD
:101AD000FC2275F008758200EF2FFFEE33FECD3348
:101AE000CDCC33CCC58233C5829BED9AEC99E5828F
:101AF00098400CF582EE9BFEED9AFDEC99FC0FD51B
:101B0000F0D6E4CEFBE4CDFAE4CCF9A88222B8000A
:101B1000C1B90059BA002DEC8BF084CFCECDFCE5D5
:101B2000F0CBF97818EF2FFFEE33FEED33FDEC33F9
:101B3000FCEB33FB10D703994004EB99FB0FD8E57E
:101B4000E4F9FA227818EF2FFFEE33FEED33FDECC7
:101B500033FCC933C910D7059BE99A4007EC9BFCBD
:101B6000E99AF90FD8E0E4C9FAE4CCFB2275F01049
:101B7000EF2FFFEE33FEED33FDCC33CCC833C8106E
:101B8000D7079BEC9AE899400AED9BFDEC9AFCE89C
:101B900099F80FD5F0DAE4CDFBE4CCFAE4C8F922E9
:101BA000EF4BFFEE4AFEED49FDEC48FC22EB9FF5C2
:101BB000F0EA9E42F0E99D42F0E89C45F022E860A0
:101BC0000FECC313FCED13FDEE13FEEF13FFD8F182
:101BD00022E8600FEFC333FFEE33FEED33FDEC334D
:101BE000FCD8F122BB010789828A83021C1E5005A2
:101BF000E9F8021CF0BBFE05E9F8021CFC89828AA8
:101C000083021D08BB010789828A83021C365005A6
:101C1000E9F8021D18BBFE05E9F8021D2422E0FCCC
:101C2000A3E0FDA3E0FEA3E0FF22E0F8A3E0F9A318
:101C3000E0FAA3E0FB22ECF0A3EDF0A3EEF0A3EFBB
:101C4000F022A42582F582E5F03583F58322E0FBBE
:101C5000A3E0FAA3E0F922EBF0A3EAF0A3E9F02273
:101C6000E493FB740193FA740293F922D083D08237
:101C7000F8E4937012740193700DA3A393F87401A8
:101C800093F5828883E4737402936860EFA3A3A33F
:101C900080DFE5162582F582E5153583F583B515D8
:101CA000048582162210AF06858216F515228582DC
:101CB00016F515D2AF22E5162582F582E515358396
:101CC000F58322EC8EF0A4CCC5F0CCCDF8EFA4CEF9
:101CD000C5F02DFDE43CFCE8A42EC8C5F03DFDE4B4
:101CE0003CFCEFA4FFE5F028FEE43DFDE43CFC22D3
:101CF000E6FC08E6FD08E6FE08E6FF22E2FC08E254
:101D0000FD08E2FE08E2FF22E493FC740193FD74F7
:101D10000293FE740393FF22ECF608EDF608EEF64C
:101D200008EFF622ECF208EDF208EEF208EFF222EC
:101D300090052D7410F09004F5E0FFEF64017051F0
:101D4000904005E0FFEF54F0FF7E00EEC4F854F041
:101D5000C868FEEFC4540F48FFEF04FFAB07E4FA76
:101D6000F9F8904200E0FFEF5407FFEF906FA59362
:101D7000FFE4FCFDFE121B0E7B4B7A00790078001D
:101D8000121A8312670090400BE0FFEF4404FFEF4C
:101D9000F09004F4E0FFEF64016003021E2B7F006B
:101DA000124B6C904210E0FF90052EE4F0A37405F6
:101DB000F090052EE0FEA3E0FFD3EF9400EE940038
:101DC0004069904005E0FFEF54F0FF7E00EEC4F85C
:101DD00054F0C868FEEFC4540F48FFEF04FFAB0790
:101DE000E4FAF9F8904200E0FFEF5407FFEF906F3C
:101DF000A593FFE4FCFDFE121B0E7BC87A00790060
:101E00007800121A83126700904210E0FFEF5480AE
:101E1000FF7E00EF4E700790052DE4F0800D9005D9
:101E20002E74FF75F0FF121A4180867F2D1259FB28
:101E30009004E8E0FFEF640260099004E8E0FFEF3F
:101E4000B4031E9004F0E0FF904004E0FEEE6F60EB
:101E5000089004F0E0FF126C699004E8E0FF126A59
:101E6000319004EAE0FFEF5440FF7E00EF4E601631
:101E70009004E9E0FFEF906FAC93FFEFB403077FAE
:101E8000081236A680359004E9E0FFEF906FAC931E
:101E9000FF1236A69004EAE0FFEF5440FF7E00EF09
:101EA0004E600D904200E0FFEF4440FFEFF0800BEA
:101EB000904200E0FFEF54BFFFEFF09004ECE0FF32
:101EC000EFB401149043A0E0FFEF5410FF7E00EF49
:101ED0004E70057F00125B5D9004EDE0FF126040E4
:101EE0009004EFE0FFEFB40103126CBE904000E0FD
:101EF000FFEF5430FF7E009004EEE0FD7C00ED6FBC
:101F00007002EC6E6016904000E0FFEF54CFFF903F
:101F100004EEE0FEEF4EFF904000EFF09004F3E09F
:101F2000FFEF6401706A90052D7410F07F00125469
:101F3000F47F507E0012685C904225E0FF90052EF1
:101F4000E4F0A374ABF090052EE0FEA3E0FFD3EF26
:101F50009400EE940040397F017E0012685C90424C
:101F600025E0FFEF5401FF7E00EF4E601690422502
:101F7000E0FFEF5401FF7E00EF4E600790052DE477
:101F8000F0800D90052E74FF75F0FF121A4180B697
:101F90009004E8E0FFEF60099004E8E0FFEFB4018F
:101FA0001E9004F0E0FF904004E0FEEE6F600890A9
:101FB00004F0E0FF126C699004E8E0FF126A3190CF
:101FC00004ECE0FFEF70129043A0E0FFEF5410FF2D
:101FD0007E00EF4E6003126B62904007E0FF7E00D0
:101FE000EF7F00FE900530EEF0A3EFF0900530E0BB
:101FF000FEA3E0FF904006E0FD7C00EE4CFEEF4DBE
:10200000FF900530EEF0A3EFF0900530E0FEA3E086
:10201000FF9004F1E0FCA3E0FDED6F7002EC6E6058
:102020000B9004F1E0FEA3E0FF124DD9904800E0D0
:10203000FFEF543FFF9004EBE0FEEF4EFF904800AF
:10204000EFF09004E6E0FF9043A1EFF09004E7E0AA
:10205000FF9043A2EFF0229043A1E0FFEF540FFF67
:102060009004E6EFF09043A2E0FF9004E7EFF090D9
:1020700043A1E0FFEF54F0FFEFF09043A2E0FFEF49
:102080005400FFEFF0904800E0FFEF54C0FF9004D1
:10209000EBEFF07F2D1259FB904200E0FFEF540769
:1020A000FF9004E9EFF0904200E0FFEF5440FF9012
:1020B00004EAEFF0904200E0FFEF5410FF7E00EFE3
:1020C0004E60089004EF7401F080059004EFE4F096
:1020D000904005E0FFEF5403FF9004E8EFF0900418
:1020E000E8E0FFEF64017034904000E0FFEF54033C
:1020F000FFEF121C6C2102002109012110020000D7
:1021000021177F00126A3180137F02126A31800C1E
:102110007F03126A3180057F00126BF8904220E045
:10212000FFEF5401FF7E00EF4E600B9004F374014B
:10213000F0126CB280059004F3E4F07F021236A630
:102140009043A0E0FFEF5410FF7E00EF4E60089038
:1021500004EC7401F080119004ECE4F07F00125B59
:102160005D7F067E0012685C904200E0FFEF542025
:10217000FF7E00EF4E6021904000E0FFEF5440FFF3
:102180007E00EF4E70047F0280027F019004EDEF2D
:10219000F07F0012604080059004EDE4F090400074
:1021A000E0FFEF5430FF9004EEEFF09004EEE0FF1C
:1021B000EF600B904000E0FFEF54CFFFEFF0904254
:1021C00000E0FFEF5410FF7E00EF4E6003126CCA78
:1021D000904004E0FF9004F0EFF09004F0E0FFEF97
:1021E00060057F00126C699004E8E0FFEF60057FF6
:1021F00000126A31904007E0FF7E00EF7F00FE9002
:1022000004F1EEF0A3EFF09004F1E0FEA3E0FF9004
:102210004006E0FD7C00EE4CFEEF4DFF9004F1EE39
:10222000F0A3EFF09004F1E0FEA3E0FFEF4E6007B3
:102230007F007E00124DD9904005E0FFEF54F0FF83
:102240007E00EEC4F854F0C868FEEFC4540F48FF97
:10225000EF04FFAB07E4FAF9F8904200E0FFEF5417
:1022600007FFEF906FA593FFE4FCFDFE121B0E121B
:1022700059FB904210E0FFEF5401FF7E00EF4E60EB
:102280000B9004F47401F0126CFA80059004F4E4ED
:10229000F090400BE0FFEF5404FF7E00EF4E60072C
:1022A0009004F57401F0229004F5E4F022904800C7
:1022B00074F1F01247C07B007A4679E8126D06EFA0
:1022C0004405FD7B007A4679E8126D12751400E52D
:1022D00014C39409503AAF14EF75F005A42441F5E6
:1022E00082E4346FF583AF82AE838E088F09AE0827
:1022F000AF098F828E83121C60AE08AF098F828E69
:1023000083740393FC740493FD126B1A051480BF4D
:10231000751400E514C394015078AF14EF75F008FC
:10232000A4246EF582E4346FF583AF82AE838E0A07
:102330008F0BAE0AAF0B8F828E83121C608B0C8AC0
:102340000D890EAE0AAF0B8F828E83A3A3A3121C3E
:10235000608B0F8A108911AE0AAF0B8F828E837447
:102360000693F512740793F513AB0FAA10A911C0C9
:1023700003C002C001AB0CAA0DA90E90052E121CC1
:1023800057D001D002D003AF13AE1212673B051431
:1023900080817B087A0079001268897B017A507904
:1023A00003126D06EF4402FD7B017A507903126D32
:1023B000127B017A507913126D06EF4402FD7B0106
:1023C0007A507913126D129043A0E0FFEF4440FF62
:1023D0009043A0EFF09043C2E0FFEF4410FF904322
:1023E000C2EFF07B087A0579E4C003C002C0017B2C
:1023F000007A51790090052E121C57D001D002D0DE
:10240000037F0A7E0012673B7B087A0579F0C003E0
:10241000C002C0017B007A5179F090052E121C5742
:10242000D001D002D0037F0A7E0012673B7B087A7E
:102430000579FCC003C002C0017B007A517912907B
:10244000052E121C57D001D002D0037F087E001247
:10245000673B7B087A067904C003C002C0017B0099
:102460007A51795090052E121C57D001D002D0031A
:102470007F0A7E0012673B9044F47401F09043227F
:10248000E0FFEF4408FF904322EFF09046ECE0FFBE
:10249000EFC394055006904689743AF07B017A5058
:1024A00079077D40126D127B017A5079177D4012B9
:1024B0006D121266C47B007A4379A0C003C002C0CB
:1024C000017B007A4379B090052E121C57D001D0C1
:1024D00002D0037F0E7E0012673B9043B0E0FFEF17
:1024E00054FDFFEFF02290052DEFF090052EECF05B
:1024F000A3EDF0126C0D900530EFF0904393E0FFE8
:10250000EF5408FF7E00EF4E700D904683E0FFEF22
:10251000541FFFEFF08009900530E0FF126B33226B
:102520009046ECE0FFEFC39405501A904689E0FF17
:10253000EF5401FF7E00EF4E7003D38001C34005CE
:102540007F00126BF89046F5E0FFEF5407FF7E0026
:10255000EF4E60399046ECE0FFEFC3940550077FE3
:1025600000126BF88027904689E0FFEF5401FF7E50
:1025700000EF4E70129004FCE4F0904689E0FFEF0B
:102580004401FFEFF080069004FC7401F0122B551B
:1025900090052DE0FFEFC39402402A90052DE0FF47
:1025A000EFD3940D501F90052DE0FFEF14FF125A4A
:1025B0007390052EE0FEA3E0FFEE4408FE90052E8A
:1025C000EEF0A3EFF090052DE0FFEFB401171269D4
:1025D0000B90052EE0FEA3E0FFEE4408FE90052ED2
:1025E000EEF0A3EFF0904398E0FF9004FDEFF09041
:1025F000052EE0FEA3E0FFEEC4F854F0C868FEEF3D
:10260000C4540F48FF904398EFF0904399E0FF9037
:1026100004FEEFF090052EE0FEA3E0FFEF540FFF65
:10262000904399EFF090439AE0FF9004FFEFF09011
:10263000052EE0FEA3E0FFEEC4540FFF7E00EF5432
:1026400001FF90439AEFF0904200E0FFEF5407FF44
:102650007E00EF4E70089005267401F0801E9005F4
:1026600026E4F0904200E0FFEF5407FF900525EFCD
:10267000F0904200E0FFEF54F8FFEFF0904393E05A
:10268000FFEF54F8FFEF4403FF904393EFF09043C4
:1026900093E0FF000000900526E0FFEF6401601664
:1026A000904200E0FFEF54F8FF900525E0FEEF4E6A
:1026B000FF904200EFF01239959046F5E0FFEF549D
:1026C00007FF7E00EF4E601E9046ECE0FFEFC394E4
:1026D0000540139004FCE0FFEF700B904689E0FF8B
:1026E000EF54FEFFEFF09004FDE0FF904398EFF011
:1026F0009004FEE0FF904399EFF09004FFE0FF901C
:10270000439AEFF0900530E0FF126B332290FFFD0B
:10271000121C92121C5790FFFD121C921266FA9026
:102720000003121CB6121C4E1219F4FFEF540FFFD7
:10273000851583851682EFF0851583851682E0FF67
:10274000EF7003022927851583851682E0FFEF6469
:10275000017003022927851583851682E0FFEF901B
:102760006F8793FF851583851682A3EFF085158308
:10277000851682A3A37401F0851583851682E0FF78
:10278000EF64047054900003121CB6121C4EE9242E
:1027900001F9EA3400FA1219F4FFEFB4F02A9000BC
:1027A00003121CB6121C4EE92402F9EA3400FA1294
:1027B00019F4FFEFB47E119004DFE0FFEF4401FF56
:1027C0009004DFEFF002287C9004DFE0FFEF54FE7E
:1027D000FF9004DFEFF002287C851583851682E0E8
:1027E000FFEFB405119004DFE0FFEF54FEFF90040B
:1027F000DFEFF002287C851583851682E0FFEFB4B9
:1028000006109004DFE0FFEF54FEFF9004DFEFF0CE
:10281000806A851583851682E0FFEF6407705D90FE
:1028200004DFE0FFEF5401FF7E00EF4E604E9004A6
:10283000DFE0FFEF54FEFF9004DFEFF090000312A3
:102840001CB6121C4EE92401F9EA3400FA1219F4FC
:10285000FFEFB40627900003121CB6121C4EE924A9
:1028600002F9EA3400FA1219F4FFEFB4010E9004F1
:10287000DFE0FFEF4402FF9004DFEFF08515838572
:102880001682E0FFEFC394084055851583851682B4
:10289000E0FFEFD3940E5047900003121CB6121CB9
:1028A0004EE92401F9EA3400FA1219F4FF9004E128
:1028B000E0FEEEB5070D851583851682A3A3E0041F
:1028C000F08021900003121CB6121C4EE92401F97D
:1028D000EA3400FA1219F4FF9004E1EFF080059059
:1028E00004E1E4F0900003121CB6121C4E8515831F
:1028F000851682A3A3E0FFE92FF9E43AFA1219F44E
:10290000FF124475851583851682A3A3E004F08524
:102910001583851682A3E0FF851583851682A3A300
:10292000E0FEEED39F40BD126D3F900006121C9258
:102930002290FFFD121C92121C5790FFFD121C9258
:10294000126D45900003121CB6121C4E1219F4FFB2
:10295000EF540FFF851583851682EFF0851583856B
:102960001682E0FFEF7003022B4B851583851682DC
:10297000E0FFEF64017003022B4B851583851682FF
:10298000E0FFEF906F8793FF851583851682A3EF95
:10299000F0851583851682A3A37401F085158385C0
:1029A0001682E0FFEF64047054900003121CB6120C
:1029B0001C4EE92401F9EA3400FA1219F4FFEFB4CD
:1029C000F02A900003121CB6121C4EE92402F9EA08
:1029D0003400FA1219F4FFEFB47E119004E0E0FF26
:1029E000EF4401FF9004E0EFF0022AA09004E0E041
:1029F000FFEF54FEFF9004E0EFF0022AA08515835C
:102A0000851682E0FFEFB405119004E0E0FFEF547B
:102A1000FEFF9004E0EFF0022AA085158385168260
:102A2000E0FFEFB406109004E0E0FFEF54FEFF90EB
:102A300004E0EFF0806A851583851682E0FFEF647D
:102A400007705D9004E0E0FFEF5401FF7E00EF4E61
:102A5000604E9004E0E0FFEF54FEFF9004E0EFF0E2
:102A6000900003121CB6121C4EE92401F9EA34004E
:102A7000FA1219F4FFEFB40627900003121CB612E5
:102A80001C4EE92402F9EA3400FA1219F4FFEFB4FB
:102A9000010E9004E0E0FFEF4402FF9004E0EFF04D
:102AA000851583851682E0FFEFC394084055851590
:102AB00083851682E0FFEFD3940E504790000312F7
:102AC0001CB6121C4EE92401F9EA3400FA1219F47A
:102AD000FF9004E2E0FEEEB5070D851583851682B2
:102AE000A3A3E004F08021900003121CB6121C4E38
:102AF000E92401F9EA3400FA1219F4FF9004E2EF34
:102B0000F080059004E2E4F0900003121CB6121C61
:102B10004E851583851682A3A3E0FFE92FF9E43AD9
:102B2000FA1219F4FF124592851583851682A3A324
:102B3000E004F0851583851682A3E0FF8515838563
:102B40001682A3A3E0FEEED39F40BD126D4B900012
:102B500006121C9222905A00E0FF900502EFF090BE
:102B60005A02E0FF900503EFF0905A03E0FF900552
:102B700004EFF0905A04E0FF900505EFF0905A063C
:102B8000E0FF900506EFF0905A08E0FF900507EF90
:102B9000F0905A0AE0FF900508EFF0905A10E0FF1D
:102BA000900509EFF0905A12E0FF90050AEFF090BF
:102BB0005A13E0FF90050BEFF0905A14E0FF9005D8
:102BC0000CEFF0905A16E0FF90050DEFF0905A18B8
:102BD000E0FF90050EEFF0905A1AE0FF90050FEF1E
:102BE000F0905A20E0FF900510EFF0905A22E0FF9D
:102BF000900511EFF0905A23E0FF900512EFF0904E
:102C00005A24E0FF900513EFF0905A26E0FF90055C
:102C100014EFF0905A28E0FF900515EFF0905A2A33
:102C2000E0FF900516EFF0905A30E0FF900517EFA7
:102C3000F0905A32E0FF900518EFF0905A33E0FF21
:102C4000900519EFF0905A34E0FF90051AEFF090DC
:102C50005A36E0FF90051BEFF0905A38E0FF9005E0
:102C60001CEFF0905A3AE0FF90051DEFF0905A00EB
:102C7000E4F0905A02E4F0905A03E4F0905A04E42D
:102C8000F0905A06E4F0905A08E4F0905A0AE4F002
:102C9000905A10E4F0905A12E4F0905A13E4F09035
:102CA0005A14E4F0905A16E4F0905A18E4F0905A4E
:102CB0001AE4F0905A20E4F0905A22E4F0905A235B
:102CC000E4F0905A24E4F0905A26E4F0905A28E474
:102CD000F0905A2AE4F0905A30E4F0905A32E4F03E
:102CE000905A33E4F0905A34E4F0905A36E4F0907D
:102CF0005A38E4F0905A3AE4F09046E8E0FFEF5496
:102D000004FF7E00EF4E60339004FA7401F090509F
:102D10000BE0FFEF540EFF9004FBEFF090500BE040
:102D2000FFEF54F1FFEF440CFF90500BEFF0904693
:102D3000E8E0FFEF54FBFFEFF080059004FAE4F0C9
:102D4000904322E0FFEF5408FF7E00EF4E601290A8
:102D500005277401F0904322E0FFEF54F7FFEFF0F6
:102D600022900527E4F022D2AF9044F474FDF07D68
:102D7000027F001268E21269EEEF601D126D6FEFC4
:102D800060147F001263637E5D7FF8126A51126BDC
:102D90008F126C478003126AAD126D6FEF60D7120D
:102DA00049B0123AEC9004DFE0FFEF5402FF7E00DE
:102DB000EF4E601E7BFF7A6F7997900531E4F07FCC
:102DC0000E1233509004DFE0FFEF54FDFF9004DF5C
:102DD000EFF09004E0E0FFEF5402FF7E00EF4E6062
:102DE0001F7BFF7A6F79979005317410F07F0E1278
:102DF00033509004E0E0FFEF54FDFF9004E0EFF06B
:102E0000126CA6EF701090059BE0FFEF4401FF905D
:102E1000059BEFF0800E90059BE0FFEF54FEFF90C6
:102E2000059BEFF0126C22EF701090059BE0FFEF16
:102E30004402FF90059BEFF0800E90059BE0FFEFB2
:102E400054FDFF90059BEFF0900598E0FF90059BE7
:102E5000E0FEEE6FFF900599EFF0FFEF7003022F99
:102E60002B90059BE0FF900598EFF090052974905A
:102E7000F0900599E0FFEF5401FF7E00EF4E6032C5
:102E800090052A7448F090059BE0FFEF5401FF7E07
:102E900000EF4E600890052B7464F0800590052BC0
:102EA000E4F07B017A057929900531E4F07F031283
:102EB0003350900599E0FFEF5402FF7E00EF4E6023
:102EC0006A90052A744CF090059BE0FFEF5402FFD6
:102ED0007E00EF4E600890052B7464F0800590052D
:102EE0002BE4F07B017A057929900531E4F07F032A
:102EF0001233509005297490F090052A7448F09090
:102F0000059BE0FFEF5402FF7E00EF4E6008900546
:102F10002B7464F0800590052BE4F07B017A057931
:102F200029900531E4F07F03123350900597E0FFBC
:102F3000EFC394025003022D761269A81269CB7F69
:102F4000011263631250EC1220577D407C007F0019
:102F50001224E6121D301251A7126C477F00126333
:102F600063126BA4126BB9900597E4F0022D7622E0
:102F7000900555121C577B0C7A017903126D06E4FB
:102F8000FCFDFE900555121C4E121C0490055512B6
:102F90001C4EC003C002C001121BE4C004C005C027
:102FA00006C0077B0C7A017904126D06E4FCFDFE75
:102FB0007808121BD1A804A905AA06AB07D007D030
:102FC00006D005D004121BA0D001D002D003121CE1
:102FD00004900555121C4EC003C002C001121BE430
:102FE000C004C005C006C0077B007A4679EC126DAC
:102FF00006E4FCFDFE7810121BD1A804A905AA0660
:10300000AB07D007D006D005D004121BA0D001D04A
:1030100002D003121C04900555121C4EC003C002BE
:10302000C001121BE4C004C005C006C0077B0C7AB7
:10303000017902126D06E4FCFDFE7818121BD1A87E
:1030400004A905AA06AB07D007D006D005D0041204
:103050001BA0D001D002D003121C047B0C7A017992
:1030600001126D06E4FCFDFE900555121C4EE9248C
:1030700004F9EA3400FA121C04900555121C4EE9BA
:103080002404F9EA3400FAC003C002C001121BE4B0
:10309000C004C005C006C0077B0C7A017900126D20
:1030A00006E4FCFDFE7808121BD1A804A905AA06B7
:1030B000AB07D007D006D005D004121BA0D001D09A
:1030C00002D003121C04900555121C4EE92404F989
:1030D000EA3400FAC003C002C001121BE4C004C0FD
:1030E00005C006C0077B0C7A017905126D06E4FC69
:1030F000FDFE7810121BD1A804A905AA06AB07D0C3
:1031000007D006D005D004121BA0D001D002D003F6
:10311000121C04900555121C4EE92404F9EA3400EF
:10312000FAC003C002C001121BE4C004C005C006FF
:10313000C0077B0C7A017906126D06E4FCFDFE786F
:1031400018121BD1A804A905AA06AB07D007D00600
:10315000D005D004121BA0D001D002D003121C0451
:103160002290FFFD121C92121C5790FFFF121C921E
:10317000EFF090FFFE121C92851583851682A3A3A3
:10318000E0FFEFD394005003023349851583851681
:1031900082A3A3E0FFEFC3940940030233498515DE
:1031A00083851682A3A3E0FFEF75F00BA42420F51E
:1031B00082E43404F583E0FEA3E0FFC3E49FFF74E0
:1031C000029EFE900006121CB6E0FCA3E0FDD3EDCB
:1031D0009FEC9E4030851583851682A3A3E0FFEF08
:1031E00075F00BA42420F582E43404F583E0FEA3FB
:1031F000E0FFC3E49FFF74029EFE900006121CB61F
:10320000EEF0A3EFF0900006121CB6E0FEA3E0FF84
:10321000EEFF7E00851583851682A3A3E0FEEE7582
:10322000F00BA4241DF582E43404F583E0FEEF4E98
:10323000FF851583851682A3A3E0FE75F010EE903E
:103240005FFC121C42EFF0900006121CB6E0FEA3D9
:10325000E0FFEF54FFFF851583851682A3A3E0FEF0
:1032600075F010EE905FFD121C42EFF07B007A00CB
:103270007900C003C002C001900003121CB6121CEA
:103280004ED082D083D0E06B7008E965827003EA8B
:103290006583606B851583851682E4F0A3E4F09066
:1032A0000006121CB6E0FEA3E0FF8515838516829A
:1032B000E0FCA3E0FDC3ED9FEC9E504390000312A1
:1032C0001CB6121C4E851583851682E0FEA3E0FF16
:1032D000E92FF9EA3EFA1219F4FF85158385168263
:1032E000A3A3E0FE75F010EE906078121C42EFF0A0
:1032F000851583851682E475F001121A4180A08538
:103300001583851682A3A3E0FFEF75F00BA4241BA1
:10331000F582E43404F583E4F0851583851682A3F1
:10332000A3E0FFEF75F00BA4241FF582E43404F54D
:1033300083E0FF851583851682A3A3E0FE75F01058
:10334000EE905FFE121C42EFF0900008121C9222D9
:1033500090052DEFF090052E121C57900532E4F0E9
:103360009044C87402F09044C87408F09004E3E0FC
:10337000FFEF75F00BA42422F582E43404F583E01A
:10338000FEA3E0FFEF24FCFFEE34FFFE9004DEE03E
:10339000FD7C00D3ED9FEC9E400312668A9004E30F
:1033A000E0FFEF75F00BA42422F582E43404F583EA
:1033B000E0FEA3E0FFEF24FCFFEE34FFFE9004DE0E
:1033C000E0FD7C00D3ED9FEC9E40030234F49005B9
:1033D0002DE0FFEFC39404400B90052DE0FFEFC3F9
:1033E00094F0402B900531E0FF90FFFF121C92EF0C
:1033F000F090052DE0FF90FFFF121C92EFF090057A
:103400002E121C4E90052DE0FF12129D0234FA90F0
:103410000533E4F0900531E0FF90FFFF121C92EFBE
:10342000F090FFFF121C927403F090052E121C4EB8
:10343000900533E0FF7E00E92FF9EA3EFA7FF012B3
:10344000129D90052DE024FDF0900533E02403F05B
:103450009004E3E0FFEF75F00BA42422F582E4343E
:1034600004F583E0FEA3E0FFEF24FCFFEE34FFFE53
:103470009004DEE0FD7C00D3ED9FEC9E40391266A7
:103480008A9004E3E0FFEF75F00BA42422F582E4B8
:103490003404F583E0FEA3E0FFEF24FCFFEE34FFED
:1034A000FE9004DEE0FD7C00D3ED9FEC9E40089092
:1034B00005327401F0800E90052DE0FFEFD39403E8
:1034C0004003023414900532E0FFEF702D90053177
:1034D000E0FF90FFFF121C92EFF090052DE0FF90AF
:1034E000FFFF121C92EFF090052E121C4E7FF71278
:1034F000129D80069005327401F09044C07402F071
:103500009044C07408F0900532E0FF2290FFFF1253
:103510001C928515838516827401F08515838516A6
:1035200082E0FFEFC3940940030236998515838535
:103530001682E0FF75F010EF906070121C42740C60
:10354000F0851583851682E0FFEF75F00BA4241F2C
:10355000F582E43404F583E0FFEF60508515838540
:103560001682E0FFEF75F00BA4241EF582E434040C
:10357000F583E0FFEF5480FF7E00EF4E6017851566
:1035800083851682E0FF75F010EF905FFE121C42FB
:10359000740CF0802C851583851682E0FF75F01081
:1035A000EF905FFE121C427408F08015851583852C
:1035B0001682E0FF75F010EF905FFE121C427480DF
:1035C000F0851583851682E0FFEF75F00BA42420AB
:1035D000F582E43404F583E0FEA3E0FFEF54FFFF3F
:1035E000851583851682E0FE75F010EE90607612E8
:1035F0001C42EFF0851583851682E0FFEF75F00B16
:10360000A42420F582E43404F583E0FEA3E0FFEE79
:10361000FF7E00851583851682E0FE75F010EE9022
:103620006077121C42EFF0851583851682E0FFEF6C
:1036300075F00BA42420F582E43404F583E0FEA3A6
:10364000E0FFEF54FFFF851583851682E0FE75F0DD
:1036500010EE906074121C42EFF08515838516827F
:10366000E0FFEF75F00BA42420F582E43404F58329
:10367000E0FEA3E0FFEEFF7E00851583851682E065
:10368000FE75F010EE906075121C42EFF085158308
:10369000851682E004F002351B90600A74FFF090FA
:1036A0000001121C9222900532EFF0904200E0FFE0
:1036B000EF5407FF900533EFF0900532E0FFEFB4D1
:1036C00008047F038005900532E0FF900534EFF099
:1036D000900533E0FFEF121C6C36EF0036F7013631
:1036E000FF02370703370E043716050000371E9018
:1036F00005337402F0802C9005337401F08024901F
:1037000005337403F0801C900533E4F080159005B8
:10371000337404F0800D9005337405F080057F004C
:10372000126BF8900533E0FF900534E0FEEEC39F86
:103730004008900532E0FF124EA3900532E0FFEF03
:10374000121C6C375C00377501378D02379A0337CE
:10375000B20437CA0537E208000037F6904200E0AD
:10376000FFEF54F8FFEF4403FFEF54BFFF90420018
:10377000EFF00237FB904200E0FFEF54F8FFEF4418
:1037800001FFEF54BFFF904200EFF0806E904200C7
:10379000E0FFEF54B8FFEFF08061904200E0FFEFF0
:1037A00054F8FFEF4402FFEF54BFFF904200EFF0E8
:1037B0008049904200E0FFEF54F8FFEF4404FFEF30
:1037C00054BFFF904200EFF08031904200E0FFEFE5
:1037D00054F8FFEF4405FFEF54BFFF904200EFF0B5
:1037E0008019904200E0FFEF54F8FFEF4442FF9051
:1037F0004200EFF080057F00126BF8900532E0FF89
:10380000EFB40805126CBE8003126CCA900533E059
:10381000FF900534E0FEEEC39F5008900532E0FFB4
:10382000124EA322C0E0C0F0C083C082C085C08415
:10383000C086758600C093759300C0D075D000C057
:1038400000C001C002C003C004C005C006C007908C
:103850006028E0FF90053AEFF090053AE0FFEF5462
:1038600010FF7E00EF4E700302397290053B740129
:10387000F090053AE0FFEF5480FF7E00EF4E60319C
:1038800090053AE0FFEF540FFF7E00EF64014E60B9
:103890000790053BE4F080461257E2900416E0FFE3
:1038A000EF5480FF7E00EF4E603490053BE4F080E3
:1038B0002D90053AE0FFEF5440FF7E00EF4E60058B
:1038C000126983801990053AE0FFEF5420FF7E00D3
:1038D000EF4E600512682E800590053BE4F09005E0
:1038E0003BE0FFEF7003023972906028E0FF900523
:1038F0003AEFF090053AE0FFEF5480FF7E00EF4E84
:103900007070900419E0FF900411E0FEEE4FFF90FC
:10391000053AEFF090053AE0FF906029EFF09060F3
:1039200029E0FF90053AE0FEEE6F7046900416E045
:10393000FF90053BEFF0906028E0FFEF5480FF9090
:10394000053AEFF090053AE0FFEF7018900416E0AA
:10395000FF906028EFF0906028E0FFEF540FFF9099
:10396000053BEFF0900416E0FF90053BE0FEEEB55E
:1039700007BAD007D006D005D004D003D002D001BA
:10398000D000D0D0D093D086D084D085D082D083C0
:10399000D0F0D0E032900502E0FF905A00EFF090B6
:1039A0000503E0FF905A02EFF0900504E0FF905A03
:1039B00003EFF0900505E0FF905A04EFF090050644
:1039C000E0FF905A06EFF0900507E0FF905A08EFED
:1039D000F0900508E0FF905A0AEFF0900509E0FF2B
:1039E000905A10EFF090050AE0FF905A12EFF09015
:1039F000050BE0FF905A13EFF090050CE0FF905A92
:103A000014EFF090050DE0FF905A16EFF090050EC0
:103A1000E0FF905A18EFF090050FE0FF905A1AEF70
:103A2000F0900510E0FF905A20EFF0900511E0FFB4
:103A3000905A22EFF0900512E0FF905A23EFF09099
:103A40000513E0FF905A24EFF0900514E0FF905A20
:103A500026EFF0900515E0FF905A28EFF09005163C
:103A6000E0FF905A2AEFF0900517E0FF905A30EFF0
:103A7000F0900518E0FF905A32EFF0900519E0FF42
:103A8000905A33EFF090051AE0FF905A34EFF0901F
:103A9000051BE0FF905A36EFF090051CE0FF905AAE
:103AA00038EFF090051DE0FF905A3AEFF09004FADD
:103AB000E0FFEFB4012190500BE0FFEF54F1FF90D5
:103AC00004FBE0FEEF4EFF90500BEFF09046E8E075
:103AD000FFEF4404FFEFF0900527E0FFEFB4010B88
:103AE000904322E0FFEF4408FFEFF02290FFFE1228
:103AF0001C929004E4E0FF12695CEF640160030231
:103B00003C369004E4E0FF12502D85158385168223
:103B1000EFF0851583851682E0FF7E0090FFFE1290
:103B20001C92EEF0A3EFF07B017A0479BE9004E4DE
:103B3000E0FF123C3D851583851682EFF0851583E5
:103B4000851682E0FFEFC394045003023C368515CE
:103B500083851682A3E4F0851583851682E0FF85B0
:103B60001583851682A3E0FEEEC39F4003023C3618
:103B7000851583851682A3E0FF74BE2FF582E43499
:103B800004F583E0FFEF7003023C3685158385164C
:103B900082A3E0FF74BE2FF582E43404F583E0FFD6
:103BA000EF54F0FF7E00EF4E701885158385168266
:103BB000A3E0FF74BE2FF9E43404FA7B0112270D51
:103BC0008037851583851682A3E0FF74BE2FF582AA
:103BD000E43404F583E0FFEF54F0FF7E00EF64105F
:103BE0004E7016851583851682A3E0FF74BE2FF9EB
:103BF000E43404FA7B01122931851583851682A3EA
:103C0000E0FF74BF2FF9E43404FA7B018515838546
:103C10001682A3E0FF74BE2FF582E43404F583E03E
:103C2000FFEF54F0FF1253B0851583851682A3E091
:103C30002404F0023B57900002121C922290FFFDD8
:103C4000121C92121C5790FFFF121C92EFF090FF73
:103C5000FE121C927B007A007900C003C002C001F2
:103C6000900003121CB6121C4ED082D083D0E06BA1
:103C70007008E965827003EA65837003023D63851D
:103C80001583851682A3A3E0FFEFD39400500302AF
:103C90003D63851583851682A3A3E0FFEFC39409D6
:103CA0004003023D63851583851682A3A3E0FF12BE
:103CB000502D900006121CB6E0FCA3E0FDD3ED9F52
:103CC000EC9E400F851583851682A3A3E0FF12505A
:103CD0002D800B900006121CB6E0FEA3E0FF9000C2
:103CE00006121CB6EEF0A3EFF0851583851682E46C
:103CF000F0A3E4F0900006121CB6E0FEA3E0FF85FE
:103D00001583851682E0FCA3E0FDC3ED9FEC9E5079
:103D100043851583851682A3A3E0FF75F010EF900D
:103D20006078121C42E0FF900003121CB6121C4E79
:103D3000851583851682E0FCA3E0FDE92DF9EA3CB8
:103D4000FAEF121A2F851583851682E475F0011299
:103D50001A4180A0851583851682A3A3E0FF125C1B
:103D6000B7800B900006121CB6E4F0A3E4F09000BC
:103D700006121CB6E0FEA3E0FF900008121C92227F
:103D8000900548E4F0906004E0FFEF547FFF900559
:103D900049EFF0900549E0FFEFD394005003023E55
:103DA000B3900549E0FFEFC394094003023EB3908E
:103DB0000549E0FFEF75F00BA4241CF582E4340400
:103DC000F583E0FFEF54FEFFEFF0900549E0FFEFD1
:103DD00075F00BA4241DF582E43404F583E4F0901F
:103DE0000549E0FF75F010EF905FFC121C42747FF4
:103DF000F0900549E0FFEF75F00BA4241BF582E479
:103E00003404F583E0FFEF54FDFFEFF0900549E047
:103E1000FFEF75F00BA4241EF582E43404F583E073
:103E2000FFEF5480FF7E00EF4E6041900549E0FFB8
:103E3000EF75F00BA4241BF582E43404F583E0FF56
:103E4000EFB40114900549E0FF75F010EF905FFEAC
:103E5000121C42740CF08053900549E0FF75F0107D
:103E6000EF905FFE121C42740DF0803F900549E018
:103E7000FFEF75F00BA4241BF582E43404F583E016
:103E8000FFEFB40114900549E0FF75F010EF905F6B
:103E9000FE121C427408F08012900549E0FF75F094
:103EA00010EF905FFE121C427409F0126B00900537
:103EB00048EFF0900548E0FF22900548121C57900B
:103EC000054CE4F07B007A007900C003C002C00119
:103ED000900548121C4ED082D083D0E06B7008E968
:103EE00065827003EA65837003023FE29005481221
:103EF0001C4E7422121A2F900548121C4EE9240100
:103F0000F9EA3400FA7403121A2F7B017A05794D0D
:103F1000122F7090054B7402F090054BE0FFEFC339
:103F200094224003023FE290054CE0FF744D2FF5D0
:103F300082E43405F583E0FFEFC4540FFFEF906F88
:103F40007693FF900548121C4E90054BE0FEE92E3B
:103F5000F9E43AFAEF121A2F90054BE0FF7E00EFDA
:103F60002401FFEE3400FE900548121C4EE92FF9A3
:103F7000EA3EFAE4121A2F90054CE0FF744D2FF53B
:103F800082E43405F583E0FFEF540FFFEF906F7686
:103F900093FF90054BE0FEEEFD7C00ED2402FDEC6E
:103FA0003400FC900548121C4EE92DF9EA3CFAEF6A
:103FB000121A2F90054BE0FF7E00EF2403FFEE3432
:103FC00000FE900548121C4EE92FF9EA3EFAE41271
:103FD0001A2F90054CE004F090054BE02404F00209
:103FE0003F1922C0E0C0F0C083C082C085C084C039
:103FF00086758600C093759300C0D075D000C00050
:10400000C001C002C003C004C005C006C0079005BF
:104010005AE4F0126D51A2AFE433FF90055BEFF06C
:10402000D2AF9044F474FDF090646BE0FF900559BA
:10403000EFF0900559E0FF900558EFF0900559E03A
:10404000FFEF541EFF7E00EF4E6016900001E0FF70
:10405000900559E0FEEE541EFEEF4EFF900001EF7A
:10406000F0900559E0FFEF30E566906448E0FF907E
:104070000558EFF0900558E0FF900203E0FE74044D
:104080002EF582E43400F583EFF090055A7401F0C8
:1040900090055AE0FFEF6038900002E0FFEF600605
:1040A0009002067401F0900203E004F0900203E035
:1040B000FFEFC394FF4005900203E4F0900003E09B
:1040C000FF900203E0FEEEB507069000027401F0D7
:1040D000900559E0FFEF30E503024028126D57903C
:1040E000055BE0FFEF24FF92AFD007D006D005D0EC
:1040F00004D003D002D001D000D0D0D093D086D04D
:1041000084D085D082D083D0F0D0E032C0E0C0F03F
:10411000C083C082C085C084C086758600C0937588
:104120009300C0D075D000C000C001C002C003C061
:1041300004C005C006C007900561E4F0126D5DA2E1
:10414000AFE433FF900562EFF0D2AF9044F474FD1A
:10415000F0906569E0FF900560EFF0900560E0FF8A
:1041600090055FEFF0900560E0FFEF541EFF7E00CA
:10417000EF4E6016900208E0FF900560E0FEEE54FE
:104180001EFEEF4EFF900208EFF0900560E0FFEF9B
:1041900030E56690654BE0FF90055FEFF090055FBE
:1041A000E0FF90040AE0FE740B2EF582E43402F581
:1041B00083EFF09005617401F0900561E0FFEF601E
:1041C00038900209E0FFEF600690040D7401F09052
:1041D000040AE004F090040AE0FFEFC394FF4005F6
:1041E00090040AE4F090020AE0FF90040AE0FEEE78
:1041F000B507069002097401F0900560E0FFEF300A
:10420000E503024151126D63900562E0FFEF24FF68
:1042100092AFD007D006D005D004D003D002D00191
:10422000D000D0D0D093D086D084D085D082D08317
:10423000D0F0D0E03290FFFC121C928515838516D9
:1042400082E4F0900002E0FF900003121CB6EFF051
:10425000900203E0FF900003E0FEEEB5070E900031
:1042600003121CB6E0FFEF7003024346900003E028
:10427000FF851583851682A3A3EFF0900203E0FF6C
:10428000851583851682A3A3E0FEEEB5070E900088
:1042900003121CB6E0FFEF700302433785158385D8
:1042A0001682E0FFEF60030243378515838516828F
:1042B000A3A3E0FF74042FF582E43400F583E0FF4C
:1042C000851583851682A3EFF0851583851682A355
:1042D000A3E004F0851583851682A3A3E0FFEFC356
:1042E00094FF400A851583851682A3A3E4F090000D
:1042F00003121CB6E0FFEF6014900002E4F0851595
:1043000083851682A3A3E0FF900003EFF07B017A80
:1043100004798E851583851682A3E0FF12001A8525
:104320001583851682EFF0900002E0FF90000312E3
:104330001CB6EFF002427B851583851682A3A3E0AD
:10434000FF900003EFF0851583851682E0FF900053
:1043500004121C922290FFFC121C92851583851674
:1043600082E4F0900209E0FF900003121CB6EFF027
:1043700090040AE0FF90020AE0FEEEB5070E9000FE
:1043800003121CB6E0FFEF700302446690020AE0DD
:10439000FF851583851682A3A3EFF090040AE0FF42
:1043A000851583851682A3A3E0FEEEB5070E900067
:1043B00003121CB6E0FFEF70030244578515838596
:1043C0001682E0FFEF60030244578515838516824D
:1043D000A3A3E0FF740B2FF582E43402F583E0FF22
:1043E000851583851682A3EFF0851583851682A334
:1043F000A3E004F0851583851682A3A3E0FFEFC335
:1044000094FF400A851583851682A3A3E4F09000EB
:1044100003121CB6E0FFEF6014900209E4F085156A
:1044200083851682A3A3E0FF90020AEFF07B017A56
:10443000047996851583851682A3E0FF12001A85FC
:104440001583851682EFF0900209E0FF90000312B9
:104450001CB6EFF002439B851583851682A3A3E06B
:10446000FF90020AEFF0851583851682E0FF900029
:1044700004121C922290FFFF121C92EFF090FFFE9C
:10448000121C92900204E0FF851583851682EFF0DE
:10449000900103E0FF851583851682A3EFF0851553
:1044A00083851682A3E0FF851583851682E0FEEEE4
:1044B000C39F502D851583851682A3E0FF7E00EFF4
:1044C00024FFFFEE34FFFE851583851682E0FD7C18
:1044D00000EFB50508EEB504047F0180027F00807F
:1044E0001F851583851682A3E0FF851583851682B7
:1044F000E0FEC3EE9FFFEFB4FE047F0180027F0069
:10450000EF7080851583851682E0FF8515838516FB
:1045100082A3E0FEEEB5071A90646AE0FFEF20E2A6
:1045200011851583851682A3A3E0FF90644AEFF0FE
:104530008059851583851682E0FFEFC394FF4008FC
:10454000851583851682E4F0851583851682A3A3DD
:10455000E0FF851583851682E0FE74042EF582E463
:104560003401F583EFF0851583851682E004F0852C
:104570001583851682E0FF900204EFF090646AE0F4
:10458000FFEF30E1069044D07404F0900003121C59
:10459000922290FFFF121C92EFF090FFFE121C92ED
:1045A00090040BE0FF851583851682EFF090030AD7
:1045B000E0FF851583851682A3EFF08515838516A8
:1045C00082A3E0FF851583851682E0FEEEC39F502F
:1045D0002D851583851682A3E0FF7E00EF24FFFF63
:1045E000EE34FFFE851583851682E0FD7C00EFB575
:1045F0000508EEB504047F0180027F00801F851549
:1046000083851682A3E0FF851583851682E0FEC3AD
:10461000EE9FFFEFB4FE047F0180027F00EF708009
:10462000851583851682E0FF851583851682A3E0B4
:10463000FEEEB5071A906469E0FFEF20E2118515E0
:1046400083851682A3A3E0FF906449EFF08059852B
:104650001583851682E0FFEFC394FF40088515831C
:10466000851682E4F0851583851682A3A3E0FF8575
:104670001583851682E0FE740B2EF582E43403F573
:1046800083EFF0851583851682E004F08515838518
:104690001682E0FF90040BEFF0906469E0FFEF30CA
:1046A000E1069044D07410F0900003121C92221284
:1046B0006C0D90052FEFF09043A5E0FFEF4401FF54
:1046C000EFF09043B5E0FFEF4401FFEFF090609D05
:1046D0007401F09060097402F0906010E0FFEF54F4
:1046E0007FFFEFF07F007E0012685C904394E0FF54
:1046F000EF54F9FFEFF0906012E0FFEF54DFFFEFAF
:10470000F0904394E0FFEF4401FFEFF07F017E0063
:1047100012685C7F287E0012685C9051F8E0FFEF21
:10472000547FFFEFF09051F8E0FFEF54BFFFEFF040
:10473000904394E0FFEF4402FFEFF07F027E00120F
:10474000685C904394E0FFEF4404FFEFF0906084D6
:10475000E4F0906085E4F090052FE0FF126B337D6C
:10476000077F17125FE17C617D3E7F171259797DCB
:10477000077F18125FE17C387D247F181259797DFC
:10478000077F15125FE17C6D7D807F151259797D61
:10479000077F05125FE17C5E7DBE7F051259797D42
:1047A000077F06125FE17C5F7D207F061259797DCD
:1047B000077F0C125FE17C607DED7F0C125979223E
:1047C0007B007A4079807D5F7C00126C97904082FC
:1047D0007419F09043007406F07B0C7A01790F1283
:1047E0006D069046A1EFF09042007452F07B007A83
:1047F0004279227D197C09126C977B007A427920DC
:104800007D517C12126C9790052DE4F07F197E008B
:104810007D007C00900529121C36900529121C1E73
:10482000D3EF9400EE9400404E90052DE0FFEF642E
:10483000036044904225E0FFEF5401FF7E009005A5
:104840002DE0FEEE25E0FEEE4FFFEF5403FF900556
:104850002DEFF07F787E007D007C001267009005D0
:1048600029121C1E7BFF7AFF79FF78FF121A7690BF
:104870000529121C3680A3900529121C1EEF4E70CC
:10488000057F03126C357B007A4079047D007C0142
:10489000126C979040047407F0904006E4F090404A
:1048A000087448F0904004E4F0904009E4F090402F
:1048B000017402F09043A2E0FFEF4401FF9043A295
:1048C000EFF02275930078007583467582E8E04426
:1048D00001F0009046ECE0F99046FAE0FAB90322C4
:1048E0005420B40012B8001AEA901FFFF07401902F
:1048F0001FFEF09046F6F0901FFEE06005901FFF4F
:10490000E0FA9048007440F075811690000078003D
:104910007920E4F0A3D8FCD9FAEA900592F00200DD
:104920001175151F7516FD12622F1222AD02496B0B
:10493000022D67E493A3F8E493A34003F68001F209
:1049400008DFF48029E493A3F85407240CC8C33388
:10495000C4540F4420C8834004F456800146F6DF57
:10496000E4800B010204081020408090586BE47E24
:10497000019360BCA3FF543F30E509541FFEE4934C
:10498000A360010ECF54C025E060A840B8E493A313
:10499000FAE493A3F8E493A3C8C582C8CAC583CA3E
:1049A000F0A3C8C582C8CAC583CADFE9DEE780BEF6
:1049B00090FFFE121C92851583851682E4F0851502
:1049C00083851682A3E4F09004DEE0FFEF6003022B
:1049D0004A8D9004DEE0FFEFD3941C503E12423526
:1049E000851583851682EFF0851583851682E0FF95
:1049F000EF602890FFFF121C92E4F0900490E0FF1B
:104A000090FFFF121C92EFF07B017A0479928515DA
:104A100083851682A3A3E0FF12129D9004DEE0FFBF
:104A2000EFD3941C503F124355851583851682A3FE
:104A3000EFF0851583851682A3E0FFEF602790FFD6
:104A4000FF121C927410F0900498E0FF90FFFF1288
:104A50001C92EFF07B017A04799A900003121CB645
:104A6000E0FF12129D9004DEE0FFEFD3941C501D76
:104A7000851583851682E0FFEF60030249D2851514
:104A800083851682A3E0FFEF60030249D212668A93
:104A9000900002121C922290FFFB121C92900415AF
:104AA000E0FFEF14FF124D0D851583851682EEF0A1
:104AB000A3EFF0851583851682E0FEA3E0FFEF4E9D
:104AC0007003024B4B851583851682E0FEA3E0FF41
:104AD0008F828E83A3121C60E92404F9EA3400FA61
:104AE0001219F4FF900004121CB6EFF090000412AB
:104AF0001CB6E0FF7E00EF2402FFEE3400FEEF78EC
:104B000002C333CE33CED8F9FF851583851682E0F4
:104B1000FCA3E0FDEF2DFFEE3CFE8515838516829C
:104B2000EEF0A3EFF0851583851682E0FEA3E0FF8B
:104B30008F828E83A3121C60AE02AF018515838520
:104B40001682A3A3EEF0A3EFF0800D8515838516E2
:104B500082A3A3E4F0A3E4F0851583851682A3A3C2
:104B6000E0FEA3E0FF900005121C9222900532EFB8
:104B7000F0900533E4F0900532E0FF900534EFF05B
:104B8000904210E0FFEF4401FFEFF0900532E0FFAC
:104B9000EFD394005003024C3A904300E0FF90059D
:104BA00036EFF0904380E0FF900537EFF0904382BE
:104BB000E0FF900538EFF07F18125AE89005337443
:104BC00010F0900534E0FFEFD3940040479042107E
:104BD000E0FF9005357404F0900535E0FFEFD394C5
:104BE0000040137F01125C457E00EF30E0F5900538
:104BF00035E014F080E2904210E0FFEF5480FF7E39
:104C000000EF4E7007900533E4F08008900534E023
:104C100014F080AE900536E0FFEF5404FF7E00EF05
:104C20004E7003126CEE900537E0FF904380EFF07A
:104C3000900538E0FF904382EFF0900533E0FF22CB
:104C4000900548E4F0906004E0FFEF547FFF90058A
:104C500049EFF0900549E0FFEFD394005003024D77
:104C600007900549E0FFEFC394094003024D079008
:104C70000549E0FFEF75F00BA4241CF582E4340431
:104C8000F583E0FFEF4401FFEFF0900549E0FFEF0F
:104C900075F00BA4241DF582E43404F583E4F09050
:104CA0000549E0FFEF75F00BA4241BF582E4340402
:104CB000F583E0FFEF4402FFEFF0900549E0FFEFDE
:104CC00075F00BA4241EF582E43404F583E0FFEFB5
:104CD0005480FF7E00EF4E6014900549E0FF75F0B0
:104CE00010EF905FFE121C42748DF0801290054907
:104CF000E0FF75F010EF905FFE121C427489F01215
:104D00006B00900548EFF0900548E0FF2290FFFF10
:104D1000121C92EFF090FFFE121C92900413E0FF21
:104D2000EF25E025E02404F582E4346FF583121CBE
:104D300060AE02AF01851583851682EEF0A3EFF019
:104D4000851583851682E0FEA3E0FFEF2408FFEEC1
:104D50003400FE851583851682EEF0A3EFF08515ED
:104D600083851682E0FEA3E0FF8F828E83E493FFAB
:104D7000851583851682A3A3E0FEEEC39F400D85B3
:104D80001583851682E4F0A3E4F0803B85158385C6
:104D90001682E0FEA3E0FF8F828E83C083C08285EF
:104DA0001583851682A3A3E0FFD082D08375F0041B
:104DB000EF121C42A3121C60AE02AF018515838561
:104DC0001682EEF0A3EFF0851583851682E0FEA330
:104DD000E0FF900003121C9222900532EEF0A3EF48
:104DE000F0126C0D900537EFF0904007E0FF7E0069
:104DF000EF7F00FE900535EEF0A3EFF0900535E073
:104E0000FEA3E0FF904006E0FD7C00EE4CFEEF4D7F
:104E1000FF900535EEF0A3EFF0900532E0FEA3E041
:104E2000FFEF4E600C900535E0FEA3E0FFEF4E7003
:104E30005E904004E0FF900534EFF0900534E0FF11
:104E4000EFC3940750057F07126C69900532E0FEAE
:104E5000A3E0FFEF4E7018904008E0FFEF4440FFE2
:104E6000EFF0900532E0FEA3E0FF12618F80169014
:104E70000532E0FEA3E0FF12618F904008E0FFEFF3
:104E800054BFFFEFF0900534E0FF126C69800B9087
:104E90000532E0FEA3E0FF12618F900537E0FF12BC
:104EA0006B3322900535EFF01261E0900536EFF09C
:104EB000900536E0FFEFB4010B906009E0FFEF547E
:104EC000FDFFEFF0900535E0FFEF121C6C4EE600A1
:104ED0004EF5014F04024F13034F22044F31054F8B
:104EE000400800004F637B0C7A017908126D069030
:104EF00046A1EFF0227B0C7A017909126D069046EB
:104F0000A1EFF0227B0C7A01790A126D069046A17E
:104F1000EFF0227B0C7A01790B126D069046A1EF1F
:104F2000F0227B0C7A017989126D069046A1EFF090
:104F3000227B0C7A01790C126D069046A1EFF022CB
:104F40007B0C7A01790F126D069046A1EFF0900567
:104F500036E0FFEFB40111906009E0FFEF4402FF7B
:104F6000EFF0227F00126BF82290054AE4F09004E3
:104F700088E0FF7E00900417EE8FF0121A41900433
:104F80007FE0FEA3E0FFD3EF9400EE9400404C904E
:104F9000054AE0FFEFC394085041900481121C4E73
:104FA0001219F4FF90054AE0FEE42EF582E4346025
:104FB000F583EFF0900481121C4EE92401F9EA34E4
:104FC00000FA900481121C5790054AE004F0900406
:104FD0007F74FF75F0FF121A4180A3900488E0FFF0
:104FE000EF6408600B90054AE0FFEFD39400401C8B
:104FF000900411E0FFEF6480FF900411EFF0900443
:1050000016740FF09004127402F0800C9004167461
:1050100002F09004127402F090054AE0FF90041927
:10502000EFF090054AE0FF900488EFF02290FFFF38
:10503000121C92EFF090FFFE121C928515838516CC
:1050400082E4F0A3E4F0851583851682A3A3E0FF34
:10505000EFD3940050030250DA851583851682A39E
:10506000A3E0FFEFC394095071851583851682A3D1
:10507000A3E0FF75F010EF905FFC121C42E0FF7E92
:10508000007E00EF540FFF851583851682EEF0A396
:10509000EFF0851583851682A3A3E0FF75F010EF6E
:1050A000905FFD121C42E0FFEFFD7C0085158385BB
:1050B0001682E0FEA3E0FFEF7F00FEEE4CFEEF4D18
:1050C000FF851583851682EEF0A3EFF085158385A5
:1050D000168274FF75F0FE121A41851583851682BB
:1050E000E0FEA3E0FF900003121C9222126C0D90D0
:1050F000052DEFF0906008E0FFEF20E70302518AF2
:105100009005A17401F0906010E0FFEF547FFFEF75
:10511000F07F007E0012685C904394E0FFEF54F94A
:10512000FFEFF0906008E0FFEF547FFFEFF07F00AB
:105130007E0012685C906009E0FFEF5401FF90056B
:10514000A2EFF0906009E0FFEF54FEFFEFF07F0167
:105150007E0012685C904394E0FFEF54FEFFEFF096
:10516000906012E0FFEF4420FFEFF09043A5E0FFD6
:10517000EF54FEFFEFF09043B5E0FFEF54FEFFEF7A
:10518000F07F017E0012685C80059005A1E4F0903C
:10519000052DE0FF126B33126B4B9044D97410F065
:1051A0009044C17410F022126C0D90052DEFF09018
:1051B00005A1E0FFEF70030252539044C97410F050
:1051C0009043A5E0FFEF4401FFEFF09043B5E0FF0F
:1051D000EF4401FFEFF090609DE0FFEF4401FFEF2F
:1051E000F0904394E0FFEF4401FFEFF07F287E0052
:1051F00012685C906009C083C082E0FF9005A2E065
:10520000FEEF4EFFD082D083EFF07F007E00126869
:105210005C904394E0FFEF4402FFEFF07F027E00DA
:1052200012685C904394E0FFEF4404FFEFF090605D
:10523000287403F0906008E0FFEF4480FFEFF07FF8
:10524000017E007D007C001267009060127404F003
:10525000126C7990052DE0FF126B332290052FEF31
:10526000F0900530EDF090052FE0FF900413EFF083
:10527000900412E4F090048BE4F0900415E4F090B4
:105280000487E4F090040EE4F0900414E4F0900439
:1052900088E4F09044C27480F09044C37401F090AC
:1052A00044C27420F09044C07420F09044C0744014
:1052B000F0900530E0FFEF121C6C52C40052D10197
:1052C000000052DE906009E0FFEF54FEFFEFF08037
:1052D00018906009E0FFEF4401FFEFF0800B906051
:1052E00009E0FFEF4401FFEFF09060287403F090B5
:1052F00060087480F07F017E007D007C00126700F2
:105300009060127404F02290053DE4F0906029E072
:10531000FFEF540FFFEF24FEFF90053CEFF09005E8
:105320003CE0FF7E00900417EE8FF0121A419004CB
:105330007FE0FEA3E0FFD3EF9400EE940040529094
:10534000053CE0FFEFD39400404790053DE0FFE4CB
:105350002FF582E43460F583E0FF900481121C4E47
:10536000EF121A2F900481121C4EE92401F9EA343D
:1053700000FA900481121C5790053DE004F090055E
:105380003CE014F090047F74FF75F0FF121A418026
:105390009D90053CE0FF900419EFF0900411E0FFB0
:1053A000EF6480FF900411EFF0900416740BF0226C
:1053B00090FFFD121C92121C5790FFFF121C92EFDF
:1053C000F09004DFE0FFEF5401FF7E00EF4E7062CB
:1053D00090059AE0FFEF5401FF7E00EF4E60538589
:1053E0001583851682A3121C4E1219F4FFEF64096F
:1053F0007040851583851682A3121C4EE92401F99D
:10540000EA3400FA1219F4FFEFB401077F001263C7
:1054100063801F851583851682A3121C4EE9240123
:10542000F9EA3400FA1219F4FFEFB402057F011211
:1054300063639004DFE0FF90059AEFF085158385A4
:105440001682E0FF851583851682EFF09000041226
:105450001C9222900548E4F0906004E0FF9005491A
:10546000EFF0900415E0FFEF14FF124D0D90054B87
:10547000EEF0A3EFF090054BE0FEA3E0FF8F828EED
:1054800083A3121C60E92404F9EA3400FA1219F427
:10549000FF90054AEFF090054AE0FF900549E0FED5
:1054A000EED39F400B900549E0FFEFD39402503EAE
:1054B000900549E0FF747D2FF582E43404F583E024
:1054C000FF900549E0FE748C2EF582E43404F583E8
:1054D000EFF0906002E0FF900549E0FE747D2EF54C
:1054E00082E43404F583EFF09005487401F09005F0
:1054F00048E0FF22900532EFF0900533E4F090424F
:1055000020E0FFEF4401FFEFF0900532E0FFEF6095
:105510007A904300E0FFEF5404FF900534EFF090E1
:105520004380E0FF900535EFF0904382E0FF900567
:1055300036EFF07F18125AE89005337410F07F01AF
:10554000125C457E00EF20E023904225E0FFEF54FF
:1055500001FF7E00EF4E60E6904225E0FFEF540130
:10556000FF7E00EF4E60D7900533E4F0900534E005
:10557000FFEF7003126CEE900535E0FF904380EF73
:10558000F0900536E0FF904382EFF0900533E0FFA6
:105590002290054AE4F0906000E0FFEF5403FF9092
:1055A000054BEFF0906000E0FFEF5480FF7E00EFCE
:1055B0004E603B90054BE0FFEFB40214906001E0B9
:1055C000FFEF121C6C562481000056248056805434
:1055D00090054BE0FFEF6401704A906001E0FFEF3F
:1055E000121C6C56248100005624803880369005A9
:1055F0004BE0FFEFB40214906001E0FFEF121C6C6F
:1056000056240100005624801B801990054BE0FFB2
:10561000EFB40110906001E0FFEF121C6C56240102
:105620000000562490054AE0FF22C0E0C083C082FB
:10563000C085C084C086758600C093759300C0D0B5
:1056400075D000C006C007A2AFE433FF90055EEF3F
:10565000F0D2AF9044F474FDF0900204E0FF9001AA
:1056600003E0FEEE6F603790646AE0FFEF20E22E09
:10567000900103E0FFEFC394FF4005900103E4F0C5
:10568000900103E0FF74042FF582E43401F583E018
:10569000FF90644AEFF0900103E004F080BB9005B6
:1056A0005EE0FFEF24FF92AFD007D006D0D0D093BA
:1056B000D086D084D085D082D083D0E032C0E0C004
:1056C00083C082C085C084C086758600C0937593F0
:1056D00000C0D075D000C006C007A2AFE433FF9071
:1056E0000565EFF0D2AF9044F474FDF090040BE048
:1056F000FF90030AE0FEEE6F6037906469E0FFEF11
:1057000020E22E90030AE0FFEFC394FF40059003D0
:105710000AE4F090030AE0FF740B2FF582E43403EF
:10572000F583E0FF906449EFF090030AE004F08015
:10573000BB900565E0FFEF24FF92AFD007D006D005
:10574000D0D093D086D084D085D082D083D0E032A0
:10575000900533EFF0904308E0FFEF5402FF7E0026
:10576000EF4E60047F0180027F00900534EFF090DF
:10577000430A74F3F0900533E0FFEF640170339057
:1057800046987401F07F0A7E0012685C904309E03D
:10579000FFEF54F3FFEF4408FF904309EFF07F144D
:1057A0007E0012685C904308E0FFEF4402FFEFF0D8
:1057B000802A9046987406F07F0A7E0012685C90FA
:1057C0004309E0FFEF54F3FFEF4404FF904309EF78
:1057D000F0904308E0FFEF54FDFFEFF0900534E058
:1057E000FF22906028E0FF90053CEFF090053CE040
:1057F000FF906028EFF0906028E0FF90053CEFF00C
:1058000090053CE0FFEF5480FF7E00EF4E600B9070
:10581000053CE0FF900416EFF0227F02125E5C90E0
:105820006000E0FFEF5460FFEF121C6C5839005825
:105830004320584D4000005857120D9D90053CEFF5
:10584000F080191258F390053CEFF0800F12627D42
:1058500090053CEFF0800590053CE4F090053CE0BD
:10586000FFEF70069004167403F022410597004183
:10587000059B00410598004105990041059A0041AA
:1058800005A5004105A6004105A7004105A8004166
:1058900002050041010300410204004100010041F2
:1058A00000030041020300410002004102060041E2
:1058B000040C0041030A0041040B004102080041AE
:1058C000020A0041040A004102090041040D00439C
:1058D000059C00000044058E039387004405890061
:1058E00000EA6041058D3C44059375300000410598
:1058F000A90000906000E0FFEF5403FFEF121C6C62
:10590000590A0159160200005936906004E0FF90D0
:105910000549EFF08025906004E0FFEF547FFFEF32
:1059200075F00BA42424F582E43404F583E0FF90A1
:105930000549EFF08005900549E4F0900549E0FF46
:10594000900489E0FCA3E0FD8D828C83E5822FF535
:1059500082E43583F583E493FFEF121C6C596401F4
:105960000000596E125591900548EFF080059005A2
:1059700048E4F0900548E0FF22900530EFF09005F4
:1059800031ECF0A3EDF0900530E0FFEFD3941F5021
:1059900003D38001C340057F00126BF8900530E00F
:1059A000FFEF541FFF7E00EF25E0FFEE33FEEF24F4
:1059B00000FFEE3444FEAA06A9077B01126C8A9010
:1059C0000533EEF0A3EFF0900530E0FF7E02EF8E9E
:1059D000F0A4FFAEF0EF2400FFEE3444FEAA06A9C7
:1059E000077B01900531E0FEA3E0FFAD07AC061296
:1059F0006C99900533E0FEA3E0FF22900532EFF0B2
:105A0000126C0D900533EFF0900532E0FFEFC39478
:105A1000165014904800E0FFEF543FFFEF4440FF62
:105A2000904800EFF08043900532E0FFEFC3942CE4
:105A30005014904800E0FFEF543FFFEF4480FF9088
:105A40004800EFF08024900532E0FFEFC39443500C
:105A500014904800E0FFEF543FFFEF44C0FF904830
:105A600000EFF080057F00126BF8900533E0FF1225
:105A70006B3322900531EFF0904382E0FFEF54F753
:105A8000FFEFF0126CD6904382E0FFEF5404FF7EEC
:105A900000EF4E602F900531E0FF904381E0FEEE75
:105AA0006F6044904382E0FFEF54FBFFEFF09005FE
:105AB00031E0FF904381EFF0904382E0FFEF440438
:105AC000FFEFF022900531E0FF904381E0FEEE6FA2
:105AD000600A900531E0FF904381EFF0904382E04F
