:4000000000800020110000008D0300008D03000080B500AF024A034B1B68136000F0C0F9BC760040FA46004010B5054C237833B9044B13B10448AFF300800123237010BD3E
:400040008081FF1F000000003C590000084B10B51BB108480849AFF300800848036803B910BD074B002BFBD0BDE81040184700BF000000003C5900008481FF1F0881FF1F27
:400080000000000080B500AF00F010FF0346002B03D0074B00221A7006E0054B1B78DBB20133DAB2024B1A7000F054FC80BD00BF9C81FF1F80B582B000AF62B60020022143
:4000C00000F062FD00F01AFF0346002B11D000F009FF0346002B0AD0002000F053FC714803F078FB00F090FB02F0AAFC01E000F0DDFB00F0F7FE0346002B00F0D18002F047
:400100003BFD02F0AFFC684B1B78DBB203F00203002B0CD00E206549002202F07DFD624B1B78DBB223F00203DAB25F4B1A70604B1B78DBB203F00203002B0CD00E205B496D
:40014000102202F069FD5A4B1B78DBB223F00203DAB2574B1A7000F005FC0346002B07D1544B1B7843F00103DAB2524B1A7006E0504B1B7823F00103DAB24E4B1A7000F03D
:4001800033FB0346002B07D14A4B1B7843F00203DAB2484B1A7006E0464B1B7823F00203DAB2444B1A70434B1A78434B1B785340DAB2424B1A70414B1B78002B4CD03D4B90
:4001C0001A783D4B1A7090233B713C4B1B7803F00103002B12D048237B71364B1B7803F00103002B02D06423BB7101E00023BB713B1D03201946002202F00EFD2F4B1B7896
:4002000003F00203002B27D04C237B71294B1B7803F00203002B02D06423BB7101E00023BB713B1D03201946002202F0F5FC90233B7148237B711F4B1B7803F00203002BB5
:4002400002D06423BB7101E00023BB713B1D03201946002202F0E0FC194B1B78DBB2012B1ED900F02DFC00F063FC012000F08AFB01F0D8FA03F0EAFF0020402104F0A8FAA4
:4002800004F026F901F05CFB02F0DAFB002000F079FB00F02FFC00F065FC094B00221A7010E700BF85000000E082FF1F40590000E382FF1F9D81FF1F9E81FF1F9F81FF1F9E
:4002C0009C81FF1F80B582B000AF03463960FB71144B1B78DBB203F00103002B1AD1124B1B7803F00103002B14D03B681B78092B10D13B6801331B78012B03D1002000F018
:4003000041FB07E03B6801331B78022B02D1012000F038FB034B1B78DAB2034B1A700837BD4680BDE082FF1FA081FF1F80B500AF012000F07DFB80BD80B500AF002000F0CB
:4003400077FB80BD80B500AF012000F039FB80BD80B500AF002000F033FB80BD80B500AF012000F083FB80BD80B500AF002000F07DFB80BD80B500AF012000F03BFB80BD48
:4003800080B500AF002000F035FB80BD80B500AF05F094FA03461B680C2B00D1FEE7FEE780B586B000AF224B7B61224B3B61204B7B6135E03B691B68FB603B695B68BB600B
:4003C0003B699B683B6000237B600CE0FB681A68BB681A60BB680433BB60FB680433FB607B6804337B607A683B689A42EED13B69DB683B6000237B6008E0BB6800221A60A9
:40040000BB680433BB607B6804337B607A683B689A42F2D13B6910333B617B69013B7B617B69002BC6D105F04FFAFFF743FEFEE701000000CC5B000080B582B000AF174B0F
:40044000174A1A60174A174B1B6843F40073136000237B600FE07B68032B04D8124A7B6852F8233000E0114B11497A6841F822307B6801337B607B682F2BECD90D4B1B78A6
:40048000DAB20D4B1A700D4B094A1A6000F018F90B4B00221A600837BD4680BD0CED00E00004FA0514ED00E0000000008D0300000080FF1FBC7600400481FF1F08ED00E062
:4004C0000081FF1F80B582B000AF78603960786800213A6805F029FA0837BD4680BD00BF80B584B000AFF860B9607A60F868B9687A6805F00FFA1037BD4680BD80B483B02B
:4005000000AF0346FB71FEE780B487B000AF7860396000233B6100237B6127E07B699B007A6813441B68BB60BB68FB73BB6823F0FF03BB6014E03B695B003A6813441B7869
:400540001A46BB68134419463B695B003A6813445B780B703B6901333B61FB7B013BFB73FB7B002BE7D17B6901337B617B69182BD4D91C37BD465DF8047B704780B582B0FF
:4005800000AF2F4B5F221A802E4B19221A702E4B06221A702D4B2E4A1278D2B21A702D4B52221A702C4B40F619121A802B4B41F251221A800023FB7019237B6013E0FB785D
:4005C0005B00DAB2264B1B78DBB203F00103DBB21343DBB203F00303FB70782004F02CFC7B68013B7B607B68002B02D0FB78032BE5D17B68002B02D10320FFF77FFF194BF7
:400600004FF480721A80174B07221A70164B00221A70164B48221A70124B00221A70144B00221A70134B02221A70134A124B1B78DBB243F00103DBB213700837BD4680BDB4
:40064000804000408240004000430040A14600400F010049004200402242004020420040254200400440004006400040084000400940004001400040A243004080B483B0DE
:4006800000AF0B4B1B78FB710A4AFB7903F00703DBB21370084AFB791B09DBB21370074B44221A700C37BD465DF8047B704700BFCF0100496E5800406F5800407658004061
:4006C00080B582B000AF72B6374B61221A70FFF755FF354B01221A70344A344B1B78DBB243F00403DBB213700023FB7113E0FA7913465B0013445B002D4A13443B603B68E8
:400700001A683B689B889BB210461946FFF7DAFEFB790133FB71FB79062BE8D94FF090402449FFF7F1FE244A234B1B78DBB243F00203DBB21370214A204B1B78DBB243F059
:400740000203DBB213701E4A1D4B1B78DBB243F04003DBB213701B4A1A4B1B78DBB243F01003DBB21370184818490A22FFF7B8FE174818490A22FFF7B3FE17481749082299
:40078000FFF7AEFE164A164B1B78DBB243F00803DBB21370FFF772FF124809490E22FFF79FFE0837BD4680BD00480040E84600405059000064000048035001401350014090
:4007C000A0430040C243004000510040EC050048F0510040F8050048125100400406004822430040B043004080B400AF054B1B78DBB203F002035B08DBB21846BD465DF843
:40080000047B70470151004080B500AF054B1B78002B04D100F008F8024B01221A7000F00BF880BDA181FF1F80B500AF022000F06DF800F053F880BD80B582B000AF194B82
:400840001B78DBB203F00203002B18D104F0FCFA0346FB71134A134B1B78DBB243F00203DBB21370104A104B1B78DBB243F00403DBB21370FB79184604F0EAFA0FE004F0DE
:40088000E3FA0346FB71084A074B1B78DBB243F00403DBB21370FB79184604F0D9FA0837BD4680BD004300408243004080B582B000AF04F0C9FA0346FB71074A064B1B7841
:4008C000DBB223F00403DBB21370FB79184604F0BFFA0837BD4680BD8243004080B582B000AF04F0B1FA0346FB71074A064B1B78DBB243F00803DBB21370FB79184604F0FE
:40090000A7FA0837BD4680BD8243004080B483B000AF0346FB710D4B1B78DBB203F00403002B0DD10A490A4B1B78DBB223F00F03DAB2FB7903F00F03DBB21343DBB20B706F
:400940000C37BD465DF8047B704700BF824300408143004080B500AF022003F0F1FF0346184680BD80B400AF054B1B78DBB203F00103DBB21846BD465DF8047B704700BF8F
:400980000151004080B485B000AF0346FB710B4B1B78DBB223F04003FB730849FB799B01DBB203F04003DAB2FB7B1343DBB20B701437BD465DF8047B704700BF00510040F1
:4009C00080B485B000AF0346FB71094B1B78DBB203F07F03FB730649FB79DB01DAB2FB7B1343DBB20B701437BD465DF8047B70471051004080B485B000AF0346FB710B4B37
:400A00001B78DBB223F04003FB730849FB799B01DBB203F04003DAB2FB7B1343DBB20B701437BD465DF8047B704700BF1051004080B485B000AF0346FB710B4B1B78DBB2D2
:400A400023F02003FB730849FB795B01DBB203F02003DAB2FB7B1343DBB20B701437BD465DF8047B704700BF1051004080B485B000AF0346FB710B4B1B78DBB223F010030C
:400A8000FB730849FB791B01DBB203F01003DAB2FB7B1343DBB20B701437BD465DF8047B704700BF1051004080B400AFBD465DF8047B704780B400AFBD465DF8047B7047D9
:400AC00080B500AF094B1B78DBB203F01003002B03D0074B01221A7002E0054B00221A7004F03AFAFFF7E0FF80BD00BF97650040A481FF1F80B500AFFFF7DCFF04F060FA42
:400B000004F0F8FA034B1B78002B01D004F0EAF980BD00BFA481FF1F80B400AFBD465DF8047B704780B400AFBD465DF8047B704780B500AF094B1B78DBB203F01003002B71
:400B400003D0074B01221A7002E0054B00221A7004F02AFCFFF7E0FF80BD00BF94650040A881FF1F80B500AFFFF7DCFF04F050FC04F0E8FC034B1B78002B01D004F0DAFBE7
:400B800080BD00BFA881FF1F80B582B000AF03460A46FB711346BB71084B1B78002B04D100F00EF8054B01221A70FA79BB791046194600F0CBF80837BD4680BDAC81FF1FA0
:400BC00080B582B000AF04F03FF90346FB714F4A4E4B1B78DBB243F00103DBB213704C4A4B4B1B78DBB243F00103DBB21370494B01221A70484B02221A70484A474B1B7899
:400C0000DBB203F07F03DBB21370002003F060FA434A434B1B78DBB223F00603DBB21370404A404B1B78DBB223F02003DBB213703B4A3B4B1B78DBB243F00103DBB21370E1
:400C4000012003F045FA282003F042FA364A364B1B78DBB203F07F03DBB21370324A324B1B78DBB223F04003DBB213702C4A2C4B1B78DBB243F00203DBB21370022003F01B
:400C800027FA274A264B1B78DBB243F00403DBB21370264B00221A70254B00221A70FB79184604F0D5F81720072103F04BFA1720204903F01FFA1820072103F043FA1820F0
:400CC0001D4903F017FA1520072103F03BFA15201A4903F00FFA0520072103F033FA0520174903F007FA0620072103F02BFA0620144903F0FFF90C20072103F023FA0C2027
:400D0000114903F0F7F90837BD4680BDA5430040B54300409D60004009600040106000409443004012600040F85100408460004085600040F117000095110000E5170000BC
:400D40005117000099170000FD17000080B582B000AF03460A46FB711346BB712C4AFB7913702C4B00221A702B4B00221A702B4B00221A702A4B00221A702A4B00221A7091
:400D8000294B00221A70294B00221A70284B4FF400021A60264B4FF080721A60244B4FF400121A60224B20221A60214B40221A60BB79002B02D0012B09D011E01D4A1D4B00
:400DC0001B78DBB223F00103DBB2137011E0194A184B1B78DBB243F00103DBB2137008E0144A144B1B78DBB243F00103DBB2137000BF114B03221A70104B80221A70012010
:400E000004F01AF80E4B04221A700837BD4680BD3382FF1F2882FF1F3A82FF1F4082FF1F2982FF1F3482FF1F5182FF1F2A82FF1F00E100E00960004028600040086000409D
:400E40001260004080B400AF0F4B00221A700F4B00221A700E4B00221A700E4B00221A700D4B00221A700D4B00221A700C4B00221A700C4B03221A700B4B80221A70BD4631
:400E80005DF8047B704700BF2882FF1F3A82FF1F4082FF1F2982FF1F3482FF1F5182FF1F2A82FF1F286000400860004080B483B000AF0B4B1B78FB71094AFB7923F0040352
:400EC000DBB21370FB7903F00403002B01D0012300E0002318460C37BD465DF8047B70470960004080B400AF034B1B78DBB21846BD465DF8047B70474082FF1F80B483B0F5
:400F000000AF0023FB71094B1B78DBB2002B05D0064B1B78FB71054B00221A70FB7918460C37BD465DF8047B704700BF3A82FF1F80B483B000AF0346FB71FA790649134691
:400F40005B0013449B000B445B78DBB218460C37BD465DF8047B70475482FF1F80B485B000AF0346FB710023FB81FB79002B1BD0FB79082B18D8104AFB791B0113441B78F1
:400F8000DBB29BB203F00F03FB81FB891B029AB20949FB791B010B445B78DBB29BB21343FB81FB89023BFB81FB8918461437BD465DF8047B704700BFFC5F0040B0B485B04E
:400FC00000AF03463960FB711346BB80FB79002B66D0FB79082B63D8B988FA79324813465B0013449B000344DB889BB2C3F5007399420BD9FA792C4913465B0013449B0066
:401000000B44DB889BB2C3F50073BB80274CF979BB881B0A9BB2D8B2FA79234D13465B0013449B002B44DB78DBB20343DAB20B0123441A701D4AFB79B988C9B21B01134476
:401040000A465A703B68002B13D00023FB810CE01748FB79FA8939680A4412781B01034408331A70FB890133FB81FA89BB889A42EED3FA790C4913465B0013449B000B44CF
:4010800000225A700948F979FA79074C13465B0013449B0023445B79DAB20B0103449A701437BD46B0BC70475482FF1FFC5F00407060004080B584B000AF03463960FB717B
:4010C0001346BB803B68002B30D0FB79002B2DD0FB79082B2AD8FB791846FFF73FFF03461A46BB88934205D9FB791846FFF736FF034600E0BB88BB800023FB810DE0FB89F0
:401100003A6813440D49FA7912010A4408321278D2B21A70FB890133FB81FA89BB889A42EDD3FB79184600F00BF801E00023BB80BB8818461037BD4680BD00BF7060004029
:4011400090B482B000AF0346FB71FB79002B19D0FB79082B16D8FA790C4913465B0013449B000B4400225A700948F979FA79074C13465B0013449B0023445B79DAB20B01CD
:4011800003449A700837BD4690BC70475482FF1FFC5F004080B582B000AF374B1B78BB71BB7903F01003002B63D00123FB71BB795BB2002B13DABB7903F00F03012B02D0FB
:4011C0000023FB711DE000F061F82C4B1B78DBB2DBB25BB2002B14DA0023FB7111E0BB7903F04003002B02D000F094F809E0BB7903F02003002B02D000F0B2F801E000239F
:40120000FB71FB79002B34D01B4B1B78BB71BB795BB2002B2DDB1A4B1B78DAB2194B1B78DBB21343BB71184ABB791370164B1B78DBB2BA799A421CD1104B1B78FB710E4B33
:401240001B78DBB223F07F03BB71BB79002B0AD1094B0A4A1278D2B21A70074B1B78DBB203F00F03FB71054B1B78DBB2FA799A42E2D10837BD4680BD286000403282FF1FA5
:401280003582FF1F5082FF1F2960004080B582B000AF1D4B1B78FB711B4AFB7913701A4B1B78FB71FB795BB2002B03DA174AFB79137025E0022000F011FA154B1B78DBB2E0
:4012C00003F06003202B08D0402B0BD0002B0ED100F0B6FB0346FB710CE004F00DFA0346FB7107E001F082FB0346FB7102E00023FB7100BFFB79002B02D1044B03221A7089
:401300000837BD4680BD00BF286000403282FF1F0060004080B500AF104B1B78DBB2062B19D801A252F823F0571300005713000045130000571300004B1300005713000056
:401340005113000000F0FAF806E000F077F903E000F0A0F900E000BF80BD00BF2882FF1F80B500AF124B1B78DBB2062B1DD801A252F823F0AB130000AB130000911300006B
:40138000AB13000097130000AB1300009D13000000F0DAF80AE000F0F7F807E0032000F09DF9044B03221A7000E000BF80BD00BF2882FF1F3282FF1F80B483B000AF0023D0
:4013C000FB71294B1B78DBB29AB2284B1B889BB213449AB2254B1A8015E02549FB79254A52681278D2B2CA54224B5B680133214A5360FB790133FB711E4B1B889BB2013B3A
:401400009AB21C4B1A801B4B1B889BB2002B02D0FB79072BE1D9144B1B78DBB2082B02D0FB79002B0FD0144B1B78DBB283F07F03DB43DAB2104B1A70104B0F221A70104B36
:4014400002221A7005E00D4B02221A700C4B02221A700C4AFB791370034AFB7913700C37BD465DF8047B70472A82FF1F3E82FF1F006000404482FF1F3582FF1F3282FF1F99
:401480002882FF1F5082FF1F80B582B000AF164B1B889BB2002B02D100F02EF81EE0134B02221A70124B00221A7000F037F9114BDB79DBB29BB21B029AB20E4B9B79DBB2D9
:4014C0009BB21343FB80084B1B889BB2FA889A4202D2054AFB881380FFF76EFF012318460837BD4680BD00BF4482FF1F2882FF1F3582FF1F0060004080B400AF0A4B022254
:401500001A700A4B80221A70094B0F221A70094B00221A70084B00221A7001231846BD465DF8047B704700BF2882FF1F3582FF1F3282FF1F2A82FF1F5082FF1F80B500AFB6
:40154000FFF73AFF80BD00BF80B500AF0A4B1B78DBB29AB2094B1B889BB213449AB2074B1A80074B00221A70012000F0B7F8054B03221A7080BD00BF2A82FF1F3E82FF1F67
:401580002882FF1F3282FF1F80B483B000AF0023BB71234B1B78DBB203F00F03DBB2023BFB71FB799AB21F4B1B889BB213449AB21C4B1A8018E01C4B5B681C49BA798A5C05
:4015C000D2B21A70184B5B680133174A5360BB790133BB71FB79013BFB71134B1B889BB2013B9AB2104B1A800F4B1B889BB2002B02D0FB79002BDED10D4AFB7913700D4BB9
:401600001B78DBB283F07F03DB43DAB2094B1A70094B0B221A700C37BD465DF8047B7047296000403E82FF1F4482FF1F006000405082FF1F3582FF1F3282FF1F80B500AF8B
:40164000044B00221A70012000F048F8024B03221A7080BD2882FF1F3282FF1F80B400AF084B06221A70084B06221A70074B80221A70074B00221A7001231846BD465DF808
:40168000047B70472882FF1F3282FF1F3582FF1F5082FF1F80B500AF0C4B1B78DBB2002B0AD00B4A094B1B78DBB263F07F03DBB21370064B00221A70064B00221A7001206C
:4016C00000F00CF8044B03221A7080BD3482FF1F086000402882FF1F3282FF1F80B483B000AF0346FB710B4B9B68002B0CD0094B9B68FA791A70074B9B68074A128892B2A2
:401700005A80044B00229A600C37BD465DF8047B704700BF4482FF1F3E82FF1F80B400AF094B00221A80094B9B68002B07D0074B9B6800221A70054B9B6800225A80BD4673
:401740005DF8047B704700BF3E82FF1F4482FF1F80B400AF0D4B01221A700D4B9B7C0D4B1B7BDBB203F00303012B08D0094BDB7BDBB283F07F03DB43DAB2064BDA73054BCA
:4017800001225A73BD465DF8047B70470B600040FC5F00405482FF1F80B400AF0E4B02221A700E4B93F822300D4B1B7EDBB203F00303012B08D00A4BDB7EDBB283F07F03A6
:4017C000DB43DAB2064BDA76054B01225A76BD465DF8047B704700BF0B600040FC5F00405482FF1F80B400AFBD465DF8047B704780B500AFFFF726FB80BD00BF80B500AF88
:4018000002F036F880BD00BF80B500AF044B1B78DBB2002B03D000F0C3FB00F04FFC80BD4082FF1F80B582B000AF03F00DFB0346FB71394B1B78DBB2DBB25BB2002B57DAD5
:40184000364B01221A70364A354B1B78DBB203F07F03DBB21370002002F03AFC314A314B1B78DBB223F00603DBB213702A4A2A4B1B78DBB203F07F03DBB21370002002F06A
:4018800027FC294B1B78DBB203F00103DAB2234B5A70254A244B1B78DBB223F00103DBB21370012002F014FC1E4A1E4B1B78DBB223F00103DBB213701C4A1C4B1B78DBB269
:4018C00043F02003DBB21370194A194B1B78DBB223F00103DBB21370164A164B1B78DBB223F00103DBB21370012002F0F1FB02E00A4B00221A70FB79184603F0A9FA01F031
:40190000B7FF0D4B4FF480521A600C4B4FF480521A600837BD4680BD08600040B081FF1F10600040944300400960004012600040A5430040B543004080E200E000E100E029
:4019400080B582B000AF03F07FFA0346FB71324B1B78002B58D0314B4FF480521A60304A2F4B1B78DBB243F00103DBB213702D4A2C4B1B78DBB243F00103DBB213702A4A9E
:40198000294B1B78DBB243F00103DBB21370274A264B1B78DBB243F00103DBB21370282002F096FB2249224B1B78DAB21A4B5B781343DBB20B70002002F08AFB1B4A1B4B49
:4019C0001B78DBB243F00203DBB21370022002F07FFB164A154B1B78DBB243F00403DBB21370144B03221A70134A134B1B78DBB263F07F03DBB21370012003F01DFA0F4B74
:401A000004221A70FFF700FFFB79184603F020FA0837BD4680BD00BFB081FF1F80E100E0A5430040B54300409D6000409443004009600040286000400860004012600040D5
:401A400080B586B000AF0023FB759D4B1B78FB7100233B619B4B00221A80FB795BB2002B80F20481964B5B78DBB20A2B00F2FC8001A252F823F000BFC11B0000691C0000CA
:401A8000691C0000691C0000691C0000691C0000A51A0000691C0000331C0000691C0000491C0000864BDB78DBB2012B0ED100F027FEB860BB685B68824A5360814B122247
:401AC0001A80FFF7E1FC0346FB7578E07C4BDB78DBB2022B24D17A4B9B78DBB2184600F0E5FDB860BB68002B69D0BB685B68754A5360744B5B6803331B78DBB29BB21B02D1
:401B00009AB2704B5B6802331B78DBB29BB213439AB26C4B1A80FFF7B7FC0346FB75A4E0674BDB78DBB2032B44D10023FB73664B3B6109E03B691B78BB71BB793A69134433
:401B40003B61FB7B0133FB735D4B9B78DBB2FA7B9A4204D23B691B78DBB2002BEAD1584B9B78DBB2EE2B01D1584B3B61544B9B78DBB2002B0BD0524B9B78DAB2544B1B7C74
:401B80009A4204D1534800F0A1F9524B3B613B691B78DBB2002B12D03B691B78DBB29AB2484B1A80474A3B695360FFF76DFC0346FB755AE003F0A0FD0346FB7555E054E01C
:401BC000FB7903F00303002B1FD0022B00D02FE03C4B02221A803A4B1B79DBB203F07F023D4913465B0013449B000B449B78DAB23A4B1A70394B00225A70324B374A5A60A2
:401C0000FFF742FC0346FB7512E02E4B02221A80334B1B78DAB2314B1A70304B00225A70284B2E4A5A60FFF72FFC0346FB7500BF1BE0244B01221A80224B2A4A5A60FFF78E
:401C400023FC0346FB7510E01E4B01221A801C4B1B79DBB21A46244B13441A4A5360FFF713FC0346FB7500E000BF19E1144B5B78DBB2013B0A2B00F2128101A252F823F0A5
:401C80008B1D00009F1E0000151E00009F1E0000AD1C00009F1E00009F1E00009F1E0000F11C00009F1E0000471D0000044B9B78DAB20E4B1A70FFF7D1FC0346FB75EFE085
:401CC000006000404482FF1F4C5A0000685B0000B05900000887FF1F5482FF1FB481FF1F5182FF1F4082FF1F3082FF1F3482FF1F6E4B9B787B717B79002B06D07B79013BA8
:401D0000DBB2184600F0D2FCB8607B79002B02D0BB68002B02D17B79002B13D1644B1B78DBB27A799A4208D0614A7B791370614B01221A70012000F0F5F9FFF78FFC034613
:401D4000FB75ADE0ACE000F019FE0346002B1BD0564B1B793B71554B1B79DAB2564B1A703B79564AD35CDAB23B795549CB5CDBB29A4204D04F4B01221A7000F079FBFFF742
:401D80006DFC0346FB758BE08AE0FB7903F00303012B22D0012B0DD3022B00D039E0434B9B78DBB2002B04D100F050FD0346FB752FE02EE03D4B9B78DBB2012B0CD1414B81
:401DC0001B78DBB223F00203DAB23E4B1A70FFF745FC0346FB751CE01BE0344B1B79DBB2012B15D8314B9B78DBB2DB43DBB22F4A1279D2B211461046334A125CD2B21340AE
:401E0000DAB2314B5A54FFF729FC0346FB75FFE700BF45E0FB7903F00303012B22D0012B0DD3022B00D039E0204B9B78DBB2002B04D100F09DFC0346FB752FE02EE01B4BD1
:401E40009B78DBB2012B0CD11E4B1B78DBB243F00203DAB21B4B1A70FFF700FC0346FB751CE01BE0114B1B79DBB2012B15D80F4B9B78DBB2DB43DBB20C4A1279D2B21146E3
:401E80001046114A125CD2B21340DAB20E4B5A54FFF7E4FB0346FB75FFE700BF00E000BFFB7D18461837BD4680BD00BF006000404082FF1F3A82FF1F2982FF1F3882FF1FA8
:401EC0003082FF1F5182FF1F3C82FF1FB0B58AB000AF7860314B07F114041D460FCD0FC42B682370002387F826307B68002B52D07B6822221A707B68013303221A7007F1C4
:401F00000C03184602F040F9022387F827303EE097F827307A68134497F8262007F128010A4412F81C2C1209D2B207F128010A4412F8142C1A7097F8273001337A68134406
:401F400000221A7097F8273002337A68134497F8262007F128010A4412F81C2C02F00F0207F128010A4412F8142C1A7097F8273003337A68134400221A7097F8263001336B
:401F800087F8263097F82730043387F8273097F82730212BBCD92837BD46B0BD7C59000090B482B000AF0123FB7174E03F4AFB791B0113440C221A70FA793D4913465B0010
:401FC00013449B000B445B79DBB2002B1AD0FA79374913465B0013449B000B441B79DBB2DBB25BB2002B06DA324AFB791B0113440C229A700CE02F4AFB791B01134408226B
:402000009A7005E02B4AFB791B01134480229A702648F979FA79264C13465B0013449B002344DB889BB2DAB20B0103449A711F48F979FA791E4C13465B0013449B0023447A
:40204000DB889BB21B0A9BB2DAB20B010344DA711648F979FA79164C13465B0013449B002344DB889BB2DAB20B0103441A710F48F979FA790E4C13465B0013449B002344A5
:40208000DB889BB21B0A9BB2DAB20B0103445A71FB790133FB71FB79082B87D9064BFF221A700837BD4690BC704700BF706000405482FF1FFC5F00400A60004080B483B089
:4020C00000AF0123FB7122E0FA79154913465B0013449B000B441B79DBB2DBB25BB2002B09DAFA790E4913465B0013449B000B4401225A7008E0FA79094913465B001344AC
:402100009B000B4400225A70FB790133FB71FB79082BD9D90C37BD465DF8047B704700BF5482FF1F80B588B000AF0346FB7100237B830023FB7743E0FA7FB04913465B0008
:4021400013449B000B4400221A70FA7FAB4913465B0013449B000B4400229A70FA7FA74913465B0013449B000B440022DA70FA7FA24913465B0013449B000B440833002264
:402180001A80FA7F9D4913465B0013449B000B44083300229A70FA7F984913465B0013449B000B4400225A70FA7F944913465B0013449B000B4400225A71FB7F0133FB7737
:4021C000FB7F082BB8D9FB79002B10D000237B770AE07B7F8A4A0021D1547B7F894A0021D1547B7F01337B777B7F012BF1D9864B1B78DBB2002B00F03681834B1B78DBB23B
:40220000013BDBB2184600F051FA38613B695B68FB60FB6807331B7803F04003002B08D07A4B1B78DBB243F00103DAB2774B1A7007E0764B1B78DBB223F00103DAB2734B5B
:402240001A703B6908333B613B691B78FB7701237B77A5E03B695B687B610023BB7797E07A7F7B699B7803F07F039A4240F08A807A7F624913465B0013449B000B440833B7
:402280001B889AB27B699B889A420BD27A7F7B6998885A4913465B0013449B000B44083302461A807B691B781A46554B9B5CDAB27B695B789A4265D17A7F7B6998784F4975
:4022C00013465B0013449B000B4402461A717A7F7B69D878494913465B0013449B000B4402461A707B69DB7803F00303FB727B699B78DBB25BB2002B22DA7A7FFB7A012BA1
:4023000001D1072000E00D203C4913465B0013449B000B4402465A717A7F384913465B0013449B000B4401225A707B699B79012B28D1FB7A022B25D1354A7B7F137021E0FC
:402340007A7FFB7A012B01D1052000E009202B4913465B0013449B000B4402465A717A7F264913465B0013449B000B4400225A707B699B79012B05D1FB7A022B02D1254A20
:402380007B7F13707B6908337B61BB7F0133BB77BA7FFB7F9A42FFF463AF7B7F01337B777B7F082B7FF656AF3B695B687B6100237B7714E07B699B7803F07F027B6918787F
:4023C0000E4913465B0013449B000B44083302469A707B6908337B617B7F01337B777A7FFB7F9A42E6D300F09DF902460A4B1A6000237B830123FB7730E000BF5482FF1FCA
:402400003082FF1F3882FF1F4082FF1F5182FF1FE182FF1FE482FF1F2C82FF1FFA7F134913465B0013449B000B447A8BDA80FA7F0E4913465B0013449B000B4408331B8886
:402440009AB27B8B13447B837B8B03F001039AB27B8B13447B83FB7F0133FB77FB7F082BDCD9FFF79DFD2037BD4680BD5482FF1F90B585B000AF874B1B78DBB2002B00F03E
:402480000681844B1B78DBB2013BDBB2184600F00DF978607B6808337B607B681B78FB707B685B68BB607C4B1B78BB700023FB73E8E0BB681B78BA789A4240F0DD80BB78B4
:4024C000764AD35CDAB2BB685B789A4240F0D480BB689B7803F07F037B70BB68DB7803F003033B707A786E4913465B0013449B000B440022DA707A78BB6898786849134622
:402500005B0013449B000B4402461A717A78BB68D878634913465B0013449B000B4402461A707A78BB6898885D4913465B0013449B000B44083302461A80BB689B78DBB2A4
:402540005BB2002B18DA7A783B78012B01D1072000E00D20524913465B0013449B000B4402465A717A784E4913465B0013449B000B4401225A7017E07A783B78012B01D1B2
:40258000052000E00920464913465B0013449B000B4402465A717A78414913465B0013449B000B4400225A703E4A7B781B01134401229A703B4879787A78394C13465B003F
:4025C00013449B00234408331B889BB21B0A9BB2DAB20B0103441A70324879787A78304C13465B0013449B00234408331B889BB2DAB20B0103445A702B4879787A78284CF8
:4026000013465B0013449B002344DB889BB2DAB20B0103449A71244879787A78204C13465B0013449B002344DB889BB21B0A9BB2DAB20B010344DA711B4879787A78184C35
:4026400013465B0013449B002344DB889BB2DAB20B0103441A71144879787A78104C13465B0013449B002344DB889BB21B0A9BB2DAB20B0103445A71BB680833BB60FB7BD0
:402680000133FB73FA7BFB789A42FFF412AF1437BD4690BD4082FF1F2982FF1F3082FF1F5482FF1FFC5F00407060004080B485B000AF0346FB71104B1B78DBB20F4ADB00D1
:4026C00013445B68FB60FB681033FB60FB681B78FA799A4202D30023FB6005E0FB79DB00FA6813445B68FB60FB6818461437BD465DF8047B704700BF3382FF1F605B0000DA
:4027000080B400AF054B1B78DBB2054ADB0013445B681846BD465DF8047B70473382FF1F605B000080B584B000AF104B1B78DBB2013BDBB21846FFF7B9FFB860BB68002BBA
:402740000DD0BB685B681B79FB71FB790233DB00BA681344BB60BB685B68FB6001E00023FB60FB6818461037BD4680BD4082FF1F80B582B000AF0023FB71314B1B79DBB274
:4027800003F07F03BB71BB79002B53D0BB79082B50D8BA79B9792B480B465B000B449B0003449B78DBB243F00103D8B2254913465B0013449B000B4402469A70BA792149FF
:4027C00013465B0013449B000B440022DA70BA79B9791C480B465B000B449B0003445B78DBB243F00203D8B2164913465B0013449B000B4402465A70BA79124913465B0008
:4028000013449B000B441B79DBB2DBB25BB2002B06DA0D4ABB791B0113448D229A7005E0094ABB791B01134489229A70FEF716FF0346FB71FB7918460837BD4680BD00BF77
:40284000006000405482FF1FFC5F004080B582B000AF0023FB71464B1B79DBB203F07F03BB71BB79002B7DD0BB79082B7AD8BA79B97940480B465B000B449B0003449B78EF
:40288000DBB223F00103D8B23A4913465B0013449B000B4402469A70BA79364913465B0013449B000B440022DA70334ABB791B0113447F221A70BA79B9792E480B465B0037
:4028C0000B449B0003445B78DBB223F00203D8B2284913465B0013449B000B4402465A70BA79244913465B0013449B000B441B79DBB2DBB25BB2002B18DABA791D491346CE
:402900005B0013449B000B445B78DBB2012B06D1194ABB791B0113440C229A701EE0164ABB791B0113440D229A7017E0BA79114913465B0013449B000B445B78DBB2012B13
:4029400006D10D4ABB791B01134408229A7005E0094ABB791B01134409229A70FEF77EFE0346FB71FB7918460837BD4680BD00BF006000405482FF1FFC5F004080B584B06C
:4029800000AF0023FB73154B1B79BB73144B1B78DBB2013BDBB21846FFF788FEB860BB685B681B79FB71BA7BFB799A4202D9BB7B022B0ED8BB7BBA7B0A498A5CD1B20A4A71
:4029C000D154BB7B054A9278D1B2064AD1540123FB73FB7B18461037BD4680BD006000404082FF1F3082FF1F3882FF1F80B582B000AF0023FB710F4B1B78DBB2DBB25BB25D
:402A0000002B12DA0B4B5B78DBB2012B00D00CE0094B0A4A5A60094B1B789AB2064B1A80FEF732FD0346FB7100BFFB7918460837BD4680BD006000404482FF1F7C5B00001D
:402A400080B500AF054B00221A70054B1B78DBB21846FEF775FB00F049FB80BDE282FF1FE482FF1F80B582B000AF2E4B1B78DBB21846FEF75DFA0346012B4FD1294B1B78D7
:402A8000DBB21846FEF76AFA0346BB71254B1B78DAB2BB799BB2104623491A46FEF70AFB0346BB71BB79032B38D90023FB7131E0FB791D4AD35C002B00D12FE0FB791A4ABC
:402AC000D35C03F0F003002B06D1FB79164A1344184600F0DBFC0CE0FB79134AD35C03F0F003102B05D1FB790F4A1344184600F0C9FDFB790C4AD35C23F00F03D9B2FB7937
:402B00000133094A134408461946FDF7DBFBFB790433FB71FA79BB799A42C9D30837BD4680BD00BFE482FF1FC082FF1F80B500AF0E4B1B78DBB2002B17D00D4B1B78DBB201
:402B40001846FEF7F5F90346012B0ED1084B1B78DAB2064B1B78DBB29BB2104605491A46FEF72CFA014B00221A7080BDE282FF1FE182FF1FE882FF1F80B582B000AF002378
:402B8000FB710023BB711F4B1B78DBB2002B34D11C4B1B78DBB21C2B0FD800F023FC0346FB71FB79002B08D0174B9B78FA79104616491A46002300F0D9F8124B1B78DBB252
:402BC0001C2B0FD800F00AFD0346BB71BB79002B08D00F4B9B78BA7910460E491A46102300F0C4F8074B1B78DBB21C2B05D8FB79002BCDD1BB79002BCAD1FFF797FF0837E0
:402C0000BD4680BDE282FF1FB881FF1FBC81FF1FC481FF1FC881FF1F80B584B000AF03463960FB711346BB710023FB734A4B02221A60494B08221A60484B1B78DBB218465E
:402C4000474B1B78DBB21946464A0B465B000B449B00134408331B889BB2043B984201D9FFF764FF3D4B1B78DBB218463C4B1B78DBB219463B4A0B465B000B449B001344D1
:402C800008331B889BB2043B984258D8FB79032B02D9FB79EF2B07D9F979FA79BB790846396800F063F84CE00023BB73BB7B3A681A44BB79F0201146032200F057F8FB793C
:402CC000033BFB71BB7B0333BB73244B1B78DBB21846234B1B78DBB21946224A0B465B000B449B00134408331B889BB2043B984218D9FFF71BFF194B1B78DBB21846184BD3
:402D00001B78DBB21946174A0B465B000B449B00134408331B889BB2043B984202D90123FB7302E0FB79032BC0D8FB7B002B08D1FA79BB79F720396800F018F801E001231B
:402D4000FB73094B02221A60074B08221A60FB7B18461037BD4680BD80E100E0E282FF1FE182FF1F5482FF1F00E100E080B485B000AF396011461A460346FB710B46BB710F
:402D800013467B713B681B78FB733B685B78BB73FB79F72B3BD9924B1B78DBB21A467B7943F00F03D9B28F4B99548D4B1B78DBB20133DAB28A4B1A70894B1B78DBB219468A
:402DC000884AFB795354864B1B78DBB20133DAB2834B1A70824B1B78DBB21A46814B002199547F4B1B78DBB20133DAB27C4B1A707B4B1B78DBB21A467A4B00219954784BDF
:402E00001B78DBB20133DAB2754B1A7064E1FB79032B03D9FB79F02B40F09980FB79F02B11D16F4B1B78DBB21A467B7943F00403D9B26C4B99546A4B1B78DBB20133DAB230
:402E4000674B1A7057E0FB7BEF2B13D8644B1B78DBB21946FB7B1B09DAB27B791343DAB2604B5A545E4B1B78DBB20133DAB25C4B1A7040E0FB7BF62B11D1594B1B78DBB2CA
:402E80001A467B7943F00503D9B2564B9954544B1B78DBB20133DAB2514B1A702BE0FB7BF12B02D0FB7BF32B11D14D4B1B78DBB21A467B7943F00203D9B24A4B9954484BFC
:402EC0001B78DBB20133DAB2454B1A7013E0FB7BF22B10D1424B1B78DBB21A467B7943F00303D9B23F4B99543D4B1B78DBB20133DAB23B4B1A703A4B1B78DBB21946394A36
:402F0000FB7B5354364B1B78DBB20133DAB2344B1A70334B1B78DBB21946324ABB7B53542F4B1B78DBB20133DAB22D4B1A702C4B1B78DBB21A463B6899782A4B9954284BD8
:402F40001B78DBB20133DAB2254B1A70C4E0FB79F72B40F0C180BB79012B45D0022B7FD0002B00D0B8E01E4B1B78DBB21A467B7943F00503D9B21B4B9954194B1B78DBB2CE
:402F80000133DAB2164B1A70154B1B78DBB21A46144BF7219954124B1B78DBB20133DAB20F4B1A700E4B1B78DBB21A460D4B002199540B4B1B78DBB20133DAB2084B1A70AF
:402FC000074B1B78DBB21A46064B00219954044B1B78DBB20133DAB2014B1A707CE000BFE282FF1FE882FF1F3E4B1B78DBB21A467B7943F00603D9B23B4B9954394B1B7828
:40300000DBB20133DAB2374B1A70364B1B78DBB21946354AFB7B5354324B1B78DBB20133DAB2304B1A702F4B1B78DBB21A462E4BF72199542B4B1B78DBB20133DAB2294BF7
:403040001A70284B1B78DBB21A46274B00219954244B1B78DBB20133DAB2224B1A703BE0204B1B78DBB21A467B7943F00703D9B21D4B99541B4B1B78DBB20133DAB2194B4C
:403080001A70184B1B78DBB21946174AFB7B5354144B1B78DBB20133DAB2124B1A70114B1B78DBB21946104ABB7B53540D4B1B78DBB20133DAB20B4B1A700A4B1B78DBB261
:4030C0001A46094BF7219954064B1B78DBB20133DAB2044B1A7000BF1437BD465DF8047B704700BFE282FF1FE882FF1F80B500AF1C4B00221A701B4B00225A70194B0022DD
:403100009A70184B0022DA70174B00221A70174B00221A7001F0A0FE0220042101F012F80120022101F00EF8114B00221A70104B00225A700E4B00229A700D4B0022DA70F6
:403140000C4B00221A700C4B00221A7002F0ACF80420042100F0F6FF0320022100F0F2FF80BD00BFB881FF1FC081FF1FE082FF1FC481FF1FCC81FF1FE382FF1F80B485B072
:4031800000AF03463960FB710023FB73FB795BB2002B80F2A680FB7903F0F003F02B72D1FB7903F00803002B02D0FB79FB7312E1FB79F03B072B64D801A252F823F000BF75
:4031C000E131000049320000153200002F320000833200008332000063320000FB3100003B68F0221A713B68F022DA703B6801225A703B6803221A7044E03B680022DA701B
:403200003B685A783B689A703B6800225A70F723FB7337E03B68F2221A713B680022DA703B6801225A703B6803221A702AE03B68F3221A713B680022DA703B6801225A701F
:403240003B6802221A701DE03B68F1221A713B680022DA703B6801225A703B6802221A7010E03B68F6221A713B680022DA703B6801229A703B6800225A703B689B78FB7307
:4032800000E000BFA7E03B68FA791A713B68FA79DA703B6801225A70FB7903F0F003B02B0FD0B02B06D8902B0BD0A02B09D0802B07D00EE0D02B08D0E02B02D0C02B04D071
:4032C00007E03B6803221A700AE03B6802221A7006E03B680022DA703B6800225A7000BF79E03B68DB78F02B1CD13B685B781A463B681344FA791A713B685B780133DAB2BC
:403300003B685A703B685A783B681B789A4262D33B685A783B689A703B6800225A70F023FB7358E03B685B78002B1DD03B685B781A463B681344FA791A713B685B780133F4
:40334000DAB23B685A703B685A783B681B789A4241D33B685A783B689A703B6800225A703B689B78FB7336E03B68DB78002B32D03B68DA783B681A713B68FA795A713B6804
:4033800002225A703B68DB7803F0F003B02B0FD0B02B06D8902B0BD0A02B09D0802B07D015E0D02B08D0E02B02D0C02B04D00EE03B6803221A700EE03B685A783B689A7060
:4033C0003B6800225A703B689B78FB7303E03B6800225A7000BFFB7B18461437BD465DF8047B704780B582B000AF0023FB71224B1B787B71214B1B78DAB2214B1B78DBB294
:403400009A4202D17B79002B31D01C4B1B78BB711EE0BB791B4AD35C3B71BB790133BB71BB79FF2B01D10023BB717B79002B05D0114B00221A70114ABB7913703B791846F2
:403440001149FFF79BFE0346FB710B4B1B787B710B4B1B78DBB2BA799A4202D17B79002B02D0FB79002BD4D0044ABB791370FB7918460837BD4680BD1A82FF1F1882FF1F85
:403480001982FF1F0884FF1FB881FF1F80B584B000AF7860FCF74AFF7B681B7803F00F03BB73BB7B002B00F08D80BB7B012B00F08980BB7B464AD35C7B730123FB73BB7B19
:4034C000042B1BD17B6801331B78F02B0DD17B6802331B787E2B08D13E4B1B78DBB243F00103DAB23B4B1A7044E03A4B1B78DBB223F00103DAB2374B1A703BE0BB7B052B6C
:4035000008D1344B1B78DBB223F00103DAB2314B1A702FE0BB7B062B08D12E4B1B78DBB223F00103DAB22B4B1A7023E0BB7B072B20D1284B1B78DBB203F00103002B19D0E5
:40354000244B1B78DBB223F00103DAB2214B1A707B6801331B78062B0CD17B6802331B78012B07D11B4B1B78DBB243F00203DAB2184B1A70BB7B072B13D9BB7B0E2B10D8DA
:403580007B6801331A78144B1B78DBB29A4203D1FB7B0133FB7303E07B685A780E4B1A7002E00D4B00221A70FB7B7A6813441B78184601F043FDFB7B0133FB73FA7B7B7B66
:4035C0009A42F1D9FCF7B8FE1037BD4680BD00BF90590000E082FF1FC081FF1F80B582B000AF0023FB71224B1B787B71214B1B78DAB2214B1B78DBB29A4202D17B79002BF8
:4036000031D01C4B1B78BB711EE0BB791B4AD35C3B71BB790133BB71BB79FF2B01D10023BB717B79002B05D0114B00221A70114ABB7913703B7918461149FFF79FFD034689
:40364000FB710B4B1B787B710B4B1B78DBB2BA799A4202D17B79002B02D0FB79002BD4D0044ABB791370FB7918460837BD4680BD2382FF1F2182FF1F2282FF1F0885FF1F36
:40368000C481FF1F80B584B000AF7860FCF75AFE7B681B7803F00F03BB73BB7B002B00F08D80BB7B012B00F08980BB7B464AD35C7B730123FB73BB7B042B1BD17B6801332D
:4036C0001B78F02B0DD17B6802331B787E2B08D13E4B1B78DBB243F00103DAB23B4B1A7044E03A4B1B78DBB223F00103DAB2374B1A703BE0BB7B052B08D1344B1B78DBB224
:4037000023F00103DAB2314B1A702FE0BB7B062B08D12E4B1B78DBB223F00103DAB22B4B1A7023E0BB7B072B20D1284B1B78DBB203F00103002B19D0244B1B78DBB223F0B9
:403740000103DAB2214B1A707B6801331B78062B0CD17B6802331B78012B07D11B4B1B78DBB243F00203DAB2184B1A70BB7B072B13D9BB7B0E2B10D87B6801331A78144B72
:403780001B78DBB29A4203D1FB7B0133FB7303E07B685A780E4B1A7002E00D4B00221A70FB7B7A6813441B78184601F06FFEFB7B0133FB73FA7B7B7B9A42F1D9FCF7C8FDE1
:4037C0001037BD4680BD00BF90590000E382FF1FCC81FF1F80B582B000AF786000F03CF8786800F009F8072000F018F800F028F80837BD4680BD00BF80B485B000AF786064
:40380000054B1B68FB60FB6840337A681A601437BD465DF8047B704708ED00E080B483B000AF0346FB71054AFB795B01DBB213700C37BD465DF8047B704700BF00E400E02C
:4038400080B400AF034B01221A60BD465DF8047B704700BF00E100E080B400AF034B01221A60BD465DF8047B704700BF80E100E080B400AF054B1B78DBB203F040039B09E3
:40388000DBB21846BD465DF8047B70478F45004080B584B000AF0346FB710023FB60234A224B1B78DBB243F00103DBB21370FB79002B36D01E4B1B78DBB203F00403FB725A
:4038C0001C4B1B78BB721C4B1B787B72182001F065F81023FB6010E0184B1B78DBB203F00103002B09D0154B1B78DBB203F00103002B02D00023FB6008E0012001F020F834
:40390000034603F00103DBB2002BE5D0FB7A002B01D100F049FB074ABB7A1370064A7B7A1370FB6818461037BD4680BD204200400043004080430040824300402542004047
:4039400080B400AF054A054B1B78DBB223F00103DBB21370BD465DF8047B70472042004080B584B000AF0346FB711D4A1C4B1B78DBB243F01003DBB213701A4A194B1B78E2
:40398000DBB243F01003DBB21370FB79002B23D0154B1B78DBB203F00403FB73134B1B78BB73134B1B787B73002000F0F7FF00BF012000F0C5FF034603F00103DBB2002B1A
:4039C000F6D0FB7B002B01D100F0EEFA074ABB7B1370074A7B7B13701037BD4680BD00BFA0430040B043004000430040804300408243004080B400AF094A094B1B78DBB211
:403A000023F01003DBB21370064A064B1B78DBB223F01003DBB21370BD465DF8047B7047A0430040B043004080B483B000AF0023FB71124B1B78DBB203F00703002B06D154
:403A40000F4B1B78DBB203F00103002B0DD10B4B1B78DBB203F00703012B08D1094B1B78DBB203F00103002B01D00123FB71FB7918460C37BD465DF8047B704793430040A4
:403A8000A5430040B543004080B584B000AF0346FB71FFF7C9FF0346FB73FB7B012B07D1314A314B1B78DBB223F00203DBB21370FB79082B50D801A252F823F0E13A0000C1
:403AC000ED3A0000F93A0000053B0000113B00001D3B0000293B0000593B0000353B0000224B234A1278D2B21A7039E01F4B214A1278D2B21A7033E01C4B1F4A1278D2B237
:403B00001A702DE0194B1D4A1278D2B21A7027E0164B1B4A1278D2B21A7021E0134B194A1278D2B21A701BE0104B174A1278D2B21A7015E00D4B154A1278D2B21A70FB7BC3
:403B4000012B08D1084A084B1B78DBB243F00203DBB2137004E003E0002000F0ADFA00BF1037BD4680BD00BF09600040A146004008010049090100490A0100490B01004992
:403B8000890100490C0100490D0100490F01004980B584B000AF0346FB71674B1B78DBB203F00703FB73FB79082B01D0FB7900E00323BB73FB7B062B25D801A252F823F05E
:403BC000DD3B0000E33B0000E93B0000EF3B0000F53B0000FB3B0000013C00000223FB7315E00123FB7312E00323FB730FE00023FB730CE00423FB7309E00523FB7306E098
:403C00000623FB7303E0002000F056FA00BFBA7BFB7B9A4203D3FB791846FFF735FFFB79082B72D801A252F823F000BF513C0000693C0000813C0000933C0000AB3C00003D
:403C4000C33C0000DB3C00000B3D0000F33C0000394A394B1B78DBB223F04703DBB243F00303DBB2137054E0334A334B1B78DBB223F04703DBB243F00103DBB2137048E0B5
:403C80002D4A2D4B1B78DBB223F04703DBB213703FE0294A284B1B78DBB223F04703DBB243F00203DBB2137033E0234A224B1B78DBB223F04703DBB243F00403DBB21370F0
:403CC00027E01D4A1C4B1B78DBB223F04703DBB243F00503DBB213701BE0174A164B1B78DBB223F04703DBB243F00603DBB213700FE0114A104B1B78DBB223F04703DBB2D8
:403D000043F04203DBB2137003E0002000F0D4F900BFFB79082B02D100F056F801E000F063F8BA7BFB7B9A4203D2FB791846FFF7ABFE1037BD4680BD0042004080B582B05B
:403D400000AF0346FB71FB79012B17D0022B02D0002B26D02EE04FF040224FF040231B78DBB223F04003DBB21370164A154B1B78DBB243F02003DBB213701FE04FF040227B
:403D80004FF040231B78DBB243F04003DBB213700C4A0C4B1B78DBB243F02003DBB213700CE0084A074B1B78DBB223F02003DBB2137003E0002000F07FF900BF0837BD4626
:403DC00080BD00BF0042004080B400AF054A054B1B78DBB243F01003DBB21370BD465DF8047B70470042004080B400AF054A054B1B78DBB223F01003DBB21370BD465DF80D
:403E0000047B70470042004080B483B000AF0346FB710949084B1B78DBB223F00303DAB2FB7903F00303DBB21343DBB20B700C37BD465DF8047B70470540004080B483B080
:403E400000AF0346FB71044AFB7913700C37BD465DF8047B704700BF0440004080B483B000AF0346FB80154A144B1B78DBB223F00F03DBB21370124B00221A70114A114BD8
:403E80001B78DBB263F07F03DBB213700E4BFA88D2B21A700D4AFB881B0A9BB2DBB213700B4A0B4B1B78DBB243F00103DBB213700C37BD465DF8047B704700BF1440004082
:403EC000104000400840004002400040034000400140004080B584B000AF0346FB8000F0B3FF0346FB73244B1B78DBB29BB21B02BB81224B1B78DBB29AB2BB891343BB810B
:403F0000FB88002B02D0BB89002B29D11C4B1B78FB72FB7A062B02D80720FFF78FFFFB88002B0CD1174A174B1B78DBB243F04003DBB21370FB881846FFF790FF0BE0FB883E
:403F40001846FFF78BFF0F4A0E4B1B78DBB223F04003DBB21370FB7A1846FFF76FFF03E0FB881846FFF77AFFFB7B184600F070FF1037BD4680BD00BF07400040064000403B
:403F8000044000400840004080B400AF054A054B1B78DBB243F00403DBB21370BD465DF8047B70470043004080B400AF054A054B1B78DBB223F00403DBB21370BD465DF8D4
:403FC000047B70470043004080B586B000AF0346FB7100237B61FB793B742B4A2A4B1B78DBB243F00103DBB21370FB79002B46D0264B1B78FB74264B1B78BB74254B1B7868
:404000007B74182000F0CAFC10237B6126E01E4B1B780423FB730EE000BF012000F090FC034603F00103DBB2002BF6D0FB7BDBB2013BDBB2FB73FB7BDBB2002BECD1124B73
:404040001B78DBB2DBB25BB2002B02DB00237B6108E03B7CDBB2013BDBB23B743B7CDBB2002BD4D1FB7C03F00403002B01D1FFF79BFF074ABB7C1370064A7B7C13707B6910
:4040800018461837BD4680BD1042004000430040804300408243004080B400AF054A054B1B78DBB223F00103DBB21370BD465DF8047B70471042004080B483B000AF0346AE
:4040C000FB7101BE0C37BD465DF8047B704700BF80B582B000AF0346FB80FB88044A127802FB03F3184600F0A7FE0837BD4680BD1481FF1F80B584B000AF03463960FB7152
:404100000F4B1B68FB60FB791F2B02D90020FFF7D3FFFB7903F01F0310339B00FA6813441B68BB60FB7903F01F0310339B00FA6813443A681A60BB6818461037BD4680BDC4
:4041400008ED00E080B582B000AF03460A46FB711346BB71BB79072B02D90020FFF7ACFFFB791F2B02D90020FFF7A6FFFB7903F01F0303F1604303F56443BA795201D2B2AB
:404180001A700837BD4680BD80B483B000AF7860264B1B78DBB21A467B681A60244B1B78DBB21B027A6812681A437B681A60214B1B78DBB21B047A6812681A437B681A6037
:4041C0001D4B1B78DBB21B067A6812681A437B681A607B680433194A1278D2B21A60184B1B78DBB21A027B6804337968043109680A431A60134B1B78DBB21A047B6804333E
:404200007968043109680A431A600F4B1B78DBB21A067B6804337968043109680A431A600C37BD465DF8047B704700BF0301004904010049EC4600400201004901010049FA
:4042400000010049050100490601004980B500AF914B1B78DBB203F00F03DAB28F4B1A708F4B1B78DAB28D4B5A708B4A8A4B1B78DBB223F00F03DBB21370894B1B78884BAC
:4042800000221A70874B1B78DBB223F03F03DAB2824B5A71372001F06DFA834B1B78DBB203F00703DAB27D4BDA707F4B1B78DBB203F04003DAB2794B1A717B4B1B78DBB2CE
:4042C00003F01003002B03D0744B01225A7202E0724B00225A72754B1B78DBB203F00303DAB26E4B9A706D4B9B78012B1CD14FF040231B78DBB203F00303012B08D0012B88
:4043000002D3022B08D00BE00020FFF77DFD0BE00220FFF779FD07E00320FFF775FD03E00020FFF7C9FE00BF614B1B78DBB203F00103002B05D0594B01229A73FFF700FB36
:4043400002E0564B00229A730220FFF721FC594B1B78DBB203F01003DBB2002B03D04F4B01229A7108E04D4B00229A710020FFF7F7FA0620FFF7ACFE4B4B1B78DBB203F016
:404380002003002B10D04FF040231B78DBB203F04003002B01D1022200E001223F4BDA710020FFF7CBFC02E03C4B0022DA714FF040231B78DBB203F03003DAB2374B1A72A9
:4043C000364B1B7A002B09D04FF040224FF040231B78DBB223F03003DBB21370324B1B78DBB203F01003002B01D0FFF7FDFC324B1B78DAB2294B9A72284B9B7A002B02D0BB
:404400000020FFF71BFD254B9B78002B02D00020FFF7FAFC294B1B78DBB29BB21B029AB21E4B9A81264B1B78D9B21C4B9A898BB213439AB2194B9A81184B9B89002B02D0F9
:404440000020FFF747FD184B1B78DBB203F007031C4AD35C184601F08DF91B4B1B78DBB203F00103002B05D00C4B0122DA73FFF713FE02E0094B0022DA73144B1B78DBB289
:4044800003F00403002B03D0044B01221A7402E0024B00221A7480BDA14300400082FF1FA243004000480040004200400540004020420040A04300400440004007400040A0
:4044C00006400040A0590000104200400B40004080B586B000AF10233B617D4A3B1D106818609188927999809A717A4B1B7C012B17D1794B1B78DBB203F00703774AD35C9F
:404500001A4613469B0013441A01D31A184600F093FC734A724B1B78DBB243F00403DBB213706C4BDB7B012B26D10020FFF74CFD6C4B1B780523FB821BE0674B1B78DBB2BC
:4045400003F00703654AD35C1A46C82303FB02F3184600F071FC634B1B78DBB2DBB25BB2002B03DB00233B6100BF05E0FB8A013BFB82FB8A002BE0D1372001F0FBF8554B19
:404580009B78022B03D0534B9B78032B10D1564B1B78DAB24F4B9B7A9A4204D04D4B9B7A1846FFF74BFC4B4B9B781846FFF72CFC484B1B7903F04003002B0CD0454BDB7855
:4045C00007F11802134413F8143C032B03D10820FFF7DEFA20E03F4BDB7807F11802134413F8143C1846FFF7D3FA3A4B1B7903F04003002B08D0384A374B1B78DBB243F094
:404600004003DBB2137007E0334A334B1B78DBB223F04003DBB213702E4B9B79012B0AD1324B1B78DBB203F01003DBB2002B02D10020FFF795F9274BDB791846FFF77EFBC6
:40464000244B5B7A012B01D1FFF7BEFB214B1B7A1A464FF040231B78DBB203F030039A4210D04FF040234FF040221278D2B2D2B222F03002D1B2174A127AD2B20A43D2B266
:40468000D2B21A70134B9B7B012B39D110233B610020FFF7FDF85020FFF71AFD144B1B78AB23FB8229E00120FFF712FD104B1B78DBB203F00103002B1CD00D4B1B78DBB27E
:4046C00003F00103002B15D000233B6100BF17E0A85900000082FF1F00420040A05900000B4000401042004004400040A043004025420040FB8A013BFB82FB8A002BD2D126
:404700002B4B9B78002B03D0294B9B78012B10D1284B1B78DAB2264B9B7A9A4204D0244B9B7A1846FFF78AFB214B9B781846FFF76BFB1F4B9B79002B09D11F4B1B78DBB2F3
:4047400003F01003DBB2002B01D0FFF753F91B4B1B78DBB29BB21B02FB81194B1B78DBB29AB2FB891343FB81114B9B89FA899A4204D00F4B9B891846FFF7ACFB114B114AF3
:404780001278D2B2D2B202F03F02D1B2084A5279D2B20A43D2B2D2B21A700B4B044A12781A700A4B024A52781A701837BD4680BD0082FF1F04400040A04300400740004027
:4047C0000640004000480040A1430040A243004080B584B000AF03460A46FB711346BB8000F032FB0346FB734E4B1B78DBB203F00803002B0BD14C4A4B4B1B78DBB203F0E0
:404800001F03DBB21370FB79002B08D004E0FB7B184600F01DFB81E00020FFF74DFC00F005F9424B1B78DAB2414B1A713F4ABB881B099BB2DBB213703E4B1B78DAB23C4B22
:404840005A713C4ABB88DBB203F00F03DBB21370394B1B78DAB2364B9A71374ABB881B0B9BB2DBB203F00103DBB21370334B1B78DBB203F00703002B04D12D4B012283F857
:404880002D2014E02A4B002283F82D202B4B1B78DBB203F00703DAB2254B83F82C20274A264B1B78DBB223F00703DBB213701D4A1C4B1B78DBB223F00703DBB243F0030302
:4048C000DBB21370174B1B7800BF00BF30BF184B93F82D30012B0FD0184B184A1278D2B2D2B222F00702D1B2114A92F82C20D2B20A43D2B2D2B21A7000F0D8F90B4B0C4AFA
:4049000012791A700B4B0A4A52791A700A4B084A92791A70FB7B184600F09AFA1037BD4680BD00BF934300408346004098430040D081FF1F994300409A4300400042004025
:4049400080B584B000AF0346FB7100F07DFA0346FB73104B1B78DAB20F4B1B781343DAB20D4B1A700C4B1B7803F00703BB73FB79DB43DAB2084B1B781340DAB2064B1A704E
:40498000FB7B184600F064FABB7B18461037BD4680BD00BF904300401282FF1F80B582B000AF0346FB711F4A1E4B1B78DBB223F00203DBB21370FFF7E7FA1A4B1B78DBB2F5
:4049C00003F00103002B19D0174B1B78DBB2FA799A4224D0134A134B1B78DBB223F00103DBB21370104AFB7913700E4A0D4B1B78DBB243F00103DBB2137010E00A4B1B78A5
:404A0000DBB2FA799A4202D0074AFB791370054A044B1B78DBB243F00103DBB213700837BD4680BD824300408043004080B400AF804B1B78DAB2804B5A72804B1B78DAB2A6
:404A40007D4B9A727E4B1B78DAB27B4BDA727D4B1B78DAB2784B1A737B4B1B78DAB2764B5A737A4B1B78DAB2734B9A73784B1B78DAB2714BDA73774B1B78DAB26E4B1A74FC
:404A8000754B1B78DAB26C4B5A74744B1B78DAB2694B9A74724B1B78DAB2674BDA74714B1B78DAB2644B1A756F4B1B78DAB2624B5A756E4B1B78DAB25F4B9A756C4B1B78CD
:404AC000DAB25D4BDA756B4B1B78DAB25A4B1A76694B1B78DAB2584B5A76684B1B78DAB2554B9A76664B1B78DAB2534BDA76654B1B78DAB2504B1A77634B1B78DAB24E4B42
:404B00005A77624B1B78DAB24B4B9A77604B1B78DAB2494BDA775F4B1B78DAB2464B83F820205D4B1B78DAB2434B83F821205B4B1B78DAB2404B83F82220594B1B78DAB28C
:404B40003D4B83F82320574B1B78DAB23A4B83F82420384B00221A70384B00221A70384B00221A70374B00221A70374B00221A70364B00221A70364B00221A70354B002205
:404B80001A70354B00221A70344B00221A70344B00221A70334B00221A70334B00221A70324B00221A70324B00221A70314B00221A70314B00221A70304B00221A70304B51
:404BC00000221A702F4B00221A702F4B00221A702E4B00221A702E4B00221A702D4B00221A702D4B00221A702C4B00221A702C4B00221A702B4B00221A702B4B1B78DBB22D
:404C000003F00803002B0CD00B4B012283F82E20254A254B1B78DBB223F00803DBB2137003E0054B002283F82E20BD465DF8047B704700BF005A0040D081FF1F025A0040F0
:404C4000035A0040045A0040065A0040085A00400A5A0040105A0040125A0040135A0040145A0040165A0040185A00401A5A0040205A0040225A0040235A0040245A00405B
:404C8000265A0040285A00402A5A0040305A0040325A0040335A0040345A0040365A0040385A00403A5A00402243004080B400AF424B434A527A1A70424B414A927A1A7061
:404CC000414B3F4AD27A1A70404B3D4A127B1A703F4B3B4A527B1A703E4B394A927B1A703D4B374AD27B1A703C4B354A127C1A703B4B334A527C1A703A4B314A927C1A70A6
:404D0000394B2F4AD27C1A70384B2D4A127D1A70374B2B4A527D1A70364B294A927D1A70354B274AD27D1A70344B254A127E1A70334B234A527E1A70324B214A927E1A7015
:404D4000314B1F4AD27E1A70304B1D4A127F1A702F4B1B4A527F1A702E4B194A927F1A702D4B174AD27F1A702C4B154A92F820201A702B4B124A92F821201A70294B104AF3
:404D800092F822201A70284B0D4A92F823201A70264B0B4A92F824201A70094B93F82E30012B07D1224A224B1B78DBB243F00803DBB21370BD465DF8047B7047005A0040AE
:404DC000D081FF1F025A0040035A0040045A0040065A0040085A00400A5A0040105A0040125A0040135A0040145A0040165A0040185A00401A5A0040205A0040225A00404A
:404E0000235A0040245A0040265A0040285A00402A5A0040305A0040325A0040335A0040345A0040365A0040385A00403A5A004022430040000000000230800803D000BF19
:404E400001380046FCD17047EFF3108072B6704780F31088704700BF80B500AF054B1B78002B04D100F008F8024B01221A7000F039F880BD1482FF1F80B500AF012011493B
:404E8000FFF738F901200721FFF75CF90E4B00221A700E4B71221A700D4B20221A7002200C49FFF727F902200721FFF74BF90A4B06221A70094B47221A70094B02221A7037
:404EC00080BD00BF5D5100001782FF1F87640040876500403952000026640040366400408664004080B582B000AFFFF7ADFF0346FB71144A134B1B78DBB243F02003DBB275
:404F00001370114A104B1B78DBB243F01003DBB213700E4B02221A600D4A0D4B1B78DBB243F01003DBB213700A4B04221A60074B04221A60FB791846FFF78AFF0837BD462C
:404F400080BD00BF976400409765004000E100E09664004080E200E080B582B000AFFFF773FF0346FB71124A114B1B78DBB223F02003DBB213700F4A0E4B1B78DBB223F04B
:404F80001003DBB213700C4B02221A600B4A0B4B1B78DBB223F01003DBB21370064B04221A60FB791846FFF753FF0837BD4680BD976400409765004080E100E0966400405C
:404FC00080B582B000AFFFF73FFF0346FB71144A134B1B78DBB243F00103DBB21370104A0F4B1B78DBB223F00103DBB21370FB791846FFF72DFF0B4B02221A600A4B002235
:405000001A700A4B00221A70094B00221A70094B00221A70084B02221A600837BD4680BD9765004080E100E01882FF1F1982FF1F1A82FF1F1B82FF1F00E100E080B485B0E8
:4050400000AF0346FB71254B1B78FB73244B1B78BB73FA7BBB7B9A4208D2FA7BBB7B013B9A420CBF01230023DBB207E0FA7BBB7BD31AFE2B0CBF01230023DBB2002BE2D143
:40508000BA7BFB7B9A420AD1164B1B78DBB203F00403002B03D1144AFB79137018E0FB7BFF2B01D10023FB73FB7B1049FA79CA54FB7B0133FB73094AFB7B1370094B1B7819
:4050C000DBB203F00203002B02D0094B04221A601437BD465DF8047B704700BF1682FF1F1582FF1F66640040456400400883FF1F00E200E080B582B000AFFFF7A5FE0346E1
:40510000FB71114A104B1B78DBB243F00103DBB213700D4A0C4B1B78DBB223F00103DBB21370FB791846FFF793FE084B04221A60074B00221A70074B00221A70064B042232
:405140001A600837BD4680BD9564004080E100E01582FF1F1682FF1F00E100E080B582B000AF0023FB71FBF7F9F82B4B1B78BB71BB797B71BB7903F01E03002B0BD0BB7931
:4051800003F01E03DAB2254B1B78DBB21343DBB2DAB2224B1A70BB7903F02003002B30D01F4B1B787B711F4B1B78DBB219461E4A7B7953540123FB71FB79002B21D01B4B89
:4051C0001B78DBB2002B02D0194B01221A70154B1B78DBB20133DAB2124B1A70114B1B78DBB2FF2B02D10F4B00221A700D4B1B78DAB2104B1B78DBB29A4202D10B4B0122C1
:405200001A70BB7903F02003002BAED1FBF7ACF80837BD4680BD00BF676500401782FF1F476500401982FF1F0884FF1F1A82FF1F1B82FF1F1882FF1F80B400AF17E0154BA3
:405240001B78DBB2FF2B02D1124B00221A70124B104A1278D2B21146104A525CD2B21A700C4B1B78DBB20133DAB20A4B1A70094B1B78DAB20A4B1B789A4206D0094B1B78CC
:40528000DBB203F00403002BD9D0BD465DF8047B704700BF1582FF1F456400400883FF1F1682FF1F6664004080B500AF054B1B78002B04D100F008F8024B01221A7000F09E
:4052C00039F880BD1D82FF1F80B500AF03201149FEF710FF03200721FEF734FF0E4B00221A700E4B71221A700D4B20221A7004200C49FEF7FFFE04200721FEF723FF0A4BE9
:4053000006221A70094B47221A70094B02221A7080BD00BFAD5500002082FF1F85650040846500408956000024640040346400408564004080B582B000AFFFF785FD0346E2
:40534000FB71144A134B1B78DBB243F02003DBB21370114A104B1B78DBB243F01003DBB213700E4B08221A600D4A0D4B1B78DBB243F01003DBB213700A4B10221A60074BDE
:4053800010221A60FB791846FFF762FD0837BD4680BD00BF956500409465004000E100E09564004080E200E080B582B000AFFFF74BFD0346FB71124A114B1B78DBB223F039
:4053C0002003DBB213700F4A0E4B1B78DBB223F01003DBB213700C4B08221A600B4A0B4B1B78DBB223F01003DBB21370064B10221A60FB791846FFF72BFD0837BD4680BD0A
:40540000956500409465004080E100E09564004080B582B000AFFFF717FD0346FB71144A134B1B78DBB243F00103DBB21370104A0F4B1B78DBB223F00103DBB21370FB7918
:405440001846FFF705FD0B4B08221A600A4B00221A700A4B00221A70094B00221A70094B00221A70084B08221A600837BD4680BD9665004080E100E02182FF1F2282FF1F65
:405480002382FF1F2482FF1F00E100E080B485B000AF0346FB71254B1B78FB73244B1B78BB73FA7BBB7B9A4208D2FA7BBB7B013B9A420CBF01230023DBB207E0FA7BBB7BE1
:4054C000D31AFE2B0CBF01230023DBB2002BE2D1BA7BFB7B9A420AD1164B1B78DBB203F00403002B03D1144AFB79137018E0FB7BFF2B01D10023FB73FB7B1049FA79CA548D
:40550000FB7B0133FB73094AFB7B1370094B1B78DBB203F00203002B02D0094B10221A601437BD465DF8047B704700BF1F82FF1F1E82FF1F65640040446500400886FF1FEB
:4055400000E200E080B582B000AFFFF77DFC0346FB71114A104B1B78DBB243F00103DBB213700D4A0C4B1B78DBB223F00103DBB21370FB791846FFF76BFC084B10221A60EF
:40558000074B00221A70074B00221A70064B10221A600837BD4680BD9465004080E100E01E82FF1F1F82FF1F00E100E080B582B000AF0023FB71FAF7DDFE2B4B1B78BB7115
:4055C000BB797B71BB7903F01E03002B0BD0BB7903F01E03DAB2254B1B78DBB21343DBB2DAB2224B1A70BB7903F02003002B30D01F4B1B787B711F4B1B78DBB219461E4AC4
:405600007B7953540123FB71FB79002B21D01B4B1B78DBB2002B02D0194B01221A70154B1B78DBB20133DAB2124B1A70114B1B78DBB2FF2B02D10F4B00221A700D4B1B788A
:40564000DAB2104B1B78DBB29A4202D10B4B01221A70BB7903F02003002BAED1FAF790FE0837BD4680BD00BF646500402082FF1F466500402282FF1F0885FF1F2382FF1FDC
:405680002482FF1F2182FF1F80B400AF17E0154B1B78DBB2FF2B02D1124B00221A70124B104A1278D2B21146104A525CD2B21A700C4B1B78DBB20133DAB20A4B1A70094B69
:4056C0001B78DAB20A4B1B789A4206D0094B1B78DBB203F00403002BD9D0BD465DF8047B704700BF1E82FF1F446500400886FF1F1F82FF1F6564004080B582B000AF1A4BCC
:405700001B78DBB203F00303012B02D0022B04D012E0154B1B79BB7111E0134B1B79DBB203F07F02114913465B0013449B000B4408339B78BB7102E00023BB7100BF0C4B4B
:405740001A68BB7913441B78012B04D100F070F80346FB7102E00023FB7100BFFB7918460837BD4680BD00BF006000405482FF1F2C82FF1F80B584B000AF0346FB71FFF718
:4057800063FB0346FB73FB790F2B0BD8274A274B1B78DBB203F01F03DBB243F04003DBB213703BE0FB79202B0BD8204A1F4B1B78DBB203F01F03DBB263F07F03DBB21370E0
:4057C0002CE0FB79312B0BD8184A184B1B78DBB203F01F03DBB263F03F03DBB213701DE0FB79422B08D8114A104B1B78DBB203F01F03DBB2137011E0FB79532B0BD80B4AEA
:405800000A4B1B78DBB203F01F03DBB243F02003DBB2137002E00020FEF74EFCFB7B1846FFF716FB1037BD4680BD00BF0048004080B483B000AF0023FB711F4B1B78DBB2D2
:4058400003F00303BB711C4B1B78DBB2DBB25BB2002B15DABB79022B07D1174B5B78DBB2812B00D000E000BF1FE0BB79012B1CD1114B5B78DBB2812B00D000E000BF14E09B
:40588000BB79022B07D10C4B5B78DBB2012B00D000E000BF09E0BB79012B06D1064B5B78DBB2012B00D000E000BFFB7918460C37BD465DF8047B704700600040014B1868E2
:4058C000704700BF7C81FF1F0E4B70B51E460E4C0025E41AA410A54204D056F8253098470135F8E700F060F9084B094C1E46E41AA4100025A54204D056F825309847013513
:40590000F8E770BDB45B0000B45B0000B45B0000BC5B000010B5431E0A44914204D011F8014B03F8014FF8E710BD03460244934202D003F8011BFAE77047000000000000CB
:40594000F07E7F06027DB40432D2010000000000205100405000C0510040100000000140001000140140000800400140000A004C0140000200500140200000003031323357
:4059800034353637383941424344454600000000030302030301020303030303020203010C061803303E4A0002010300040506001201000200000008B40432D2000001020D
:4059C000800100000902850002010280320904000000010100060924010001090001010904010002010300050724010001430006240201010306240202020309240301036F
:405A00000102010409240302040101010406240201050706240202060709240301070106010409240302080105010809058102200000000006250102030709050202200005
:405A40000000000625010201050000000403090410034300790070007200650073007300120355005300420020004D0049004400490010034D004900440049002000490001
:405A80004E0012034D0049004400490020004F005500540028034D004900440049002000530074007200650061006D0069006E006700200049006E00740066001E034D0011
:405AC000490044004900200049006E00740065007200660061006300650014034D00490044004900200049004E002000320016034D0049004400490020004F005500540088
:405B0000200032000000000002030000010081022000010001000202200001000101000001000000C4590000020000000C5B000000000000000000000000000000000000BA
:405B4000000000001C5B000001000000B0590000000000000000000001000000205B000001000000485B000012034D0053004600540031003000300001000000280000007B
:405B800000010400010000000000000000014359555342000000303030303100000000000000000043000000F8B500BFF8BC08BC9E4670474D00000039040000F8B500BFAF
:405BC000F8BC08BC9E46704729000000E05B00000881FF1F78000000B005000000000000000000000087930360EA00003C0000000000307500000000000000000000000012
:405C00000000000000000000000000000000000000000000A45B00000000000000000000000000000000000000000000000000000000000000000000000000000000000065
:405C400000000000000000000000000000000000000000001C81FF1F0000000000000000000000000000000000000000000000000000000000000000000000000000000069
:405C800000000000000000000000000000000000000000000000000000000000000000000000000000000000000000000000000000000000000000000000000000000000E4
:405CC00000000000000000000000000000000000000000000000000000000000000000000000000000000000000000000000000000000000000000000000000000000000A4
:405D00000000000000000000000000000000000000000000000000000000000000000000000000000000000000000000000000000000000000000000000000000000000063
:405D40000000000000000000000000000000000000000000000000000000000000000000000000000000000000000000000000000000000000000000000000000000000023
:020000040003F7
:0200000480007A
:40000000014500400452004003640040036500405F040140400501404F06014044070140010B01404814014049150140631601404617014001190140064001400D410140B7
:400040000E4201400B43014001460140044701400748014007490140014C014008500140025101407E020020013004037C40850F860F8771843885718738060C07010A1016
:400080000C0C0D020E131011120616132208281129032A0E2D03300F3503361039203A023E403F104002454049FF4A074BFF4C404D204EF04F0550085608580459045A047E
:4000C0005B045D905F01604061A862406320811C828083028430850C86408711883489108A408B0C8D1091099310943496C09CA09E449F03A001A408A650A802A914B00CEB
:40010000B11FB2F0B402B601B802BA08BE50C063C102C6CEC70BC81CC9FFCAFFCBFFCEF0CF44D00CD401D604D804D904DA04DB04DF01E6C0EA40EB020070010805010624B3
:40014000080109080E11100412801410152116401720184019801A801D011E141F4020042740280529202B012F083501374038483D803E193F10400444104504460C49020D
:400180004A804F105004510C5660570858805C105D805E045F0160026140674087409F40AB40C077C2ACC47ACA2CCC90CEFAD064D220D6F8D888E208024C0301068008B166
:4001C0000A0E14B116461C6C1E8322082A9330803230344A360F370138083AA03E054003460449FF4A074BFF4C404D204EF04F05500854015604580459045A045B045F0174
:40020000604061A86240632082E384E7850B86188C3C8D028EC18F099024910B98FF9D019E049F04A010A301A408A818AC9CAD02AE62AF09B01FB101B298B302B438B50842
:40024000B658B704B920BAA2BF04D602D712D804D904DB04DF01000401800380051106240720080209A00E1110A0114013101648186C19801A041B081D181E412180220507
:400280002304270129802B8031403302384839403F014508554456485A085D015E405F2867806801691470A0731087409109929095209601980299439A209B089D289E04EA
:4002C000A410A544A701A880AB21AF48C07DC2ABC45FCA09CC09CE8AD040D6F2D880E20800100240040C067107010B010C100EAC10DC1222140916D01A201E03281434E056
:40030000361F37013A223F4040434106450C46E0470B481949FF4AFF4BFF4EF04F44500C54185604580459045A045B045F0166C06A406B0281018201850889088D028E013F
:400340008F05970199029B059D089E02A602A907AD07B104B308B401B502B602B701B902BE50BF10D602D712D804D904DB04DF010040010203200480074008200AA10E0294
:400380001008161019201A011B221C041D402180260827492D402E202F023648371038283D903E043F014060410448104920500851105B015F08600461426D106E84760A3A
:4003C00077208502860190E8910892A09301956099029A309B109D209E0A9F20A140A201A410A580A608A702A880AC10AE01C09DC28FC422CA30CC70CEF6D003D204D641C3
:40040000D80D059C07620BE30D3C0FC1130415E7171819181D24211025082DFF3198331F353837583BA8403641054201440445E046C0480A49FF4AFF4BFF4C624DA04EF016
:400440004F41500C560859045A045B045D905F016640670269106A306B106D106E106F128020860888438A048C438E0C900A9244948096059A109C039E04A210A420A8207A
:40048000B00FB2C0B410B620B808BA02BE10C021C104C203C405C60EC70CC814C9FFCAFFCBFFCC62CDA0CEF0CF41D00CD418D604D804DA04DB04DF01E640E702E910EA306F
:4004C000EB10ED10EE10EF120042012809080A810B040D0C1114124016201704184419081A201B812544260127542E0A2F02358037253D883F204204438A46804744494025
:400500004C404D404E084F205004524056105A025C80600461826580668067018D029020911C928693049520970199429B019D28A001A308A410A783A920AB02C00FC20F7B
:40054000C40ECAD0CCF0CE70D0DFD238D611D81DE610EE08EE083342340137803B20CCF0CE1003080410338035806120660897209C019FC0A702C0C0CC30D8C085808710C6
:40058000901097209C019D809FC0A308A520A782AA08E210E640EE80274087029C019FC0A308A520A782A810C880E210EC80871008080F109710C20C8F809C019F80A30866
:4005C000A520AF80EE10840185209C01A520AB08E250EC80AC08000101010A010B01100111011A011B0100FE012B00000F00007F700030000000000040000000000000006C
:40060000C000000000FBFB00000000000000000000000000000000000000000000000000000000000000000000000000000000000000000000000000000000000000000004
:40064000000000000000000000000000000000000000000000000000000000000000000000000000000000000000000000000000000000000000000000000000000000007A
:40068000000000000000000000000000000000000000000000000000000000000000000000000000000000000000000000000000000000000000000000000000000000003A
:4006C00000000000000000000000000000000000000000000000000000000000000000000000000000000000000000000000000000000000000000000000000000000000FA
:4007000000000000000000000000000000000000000000000000000000000000000000000000000000000000000000000000000000000000000000000000000000000000B9
:0200000490006A
:0400000000004004B8
:0200000490105A
:04000000BC90ACAF55
:0200000490303A
:020000007D7D04
:0200000490402A
:4000000000000000000000000000000000000000000000000000000000000000000000000000000000000000000000000000000000000000000000000000000000000000C0
:400040000000000000000000000000000000000000000000000000000000000000000000000000000000000000000000000000000000000000000000000000000000000080
:400080000000000000000000000000000000000000000000000000000000000000000000000000000000000000000000000000000000000000000000000000000000000040
:4000C0000000000000000000000000000000000000000000000000000000000000000000000000000000000000000000000000000000000000000000000000000000000000
:0200000490501A
:0C00000000012E16106900012E3A8DE65A
:00000001FF