:400000000080002011000000290100002901000008B5044B1A6803F53F5302331A6000F08BF800BFFA46004010B5054C237833B9044B13B10448AFF300800123237010BDA0
:400040008081FF1F0000000098160000084B10B51BB108480849AFF300800848036803B910BD074B002BFBD0BDE81040184700BF00000000981600008481FF1F0881FF1FF5
:400080000000000008B562B64FF47A7000F032FA002000F0D3F9002000F0D6F9002000F0DFF9002000F0E8F9002000F0F1F9002000F0FAF9002000F003FA002000F00CFA6E
:4000C000002000F0B5F9002000F0C4F9002000F0CDF9602000F0D6F9602000F0DFF9002000F0E8F9FF2000F0F1F9FF2000F0FAF900F084FA4FF47A7000F0FCF9022000F09A
:400100009DF9002000F0A0F94FF47A7000F0F2F9002000F093F9022000F096F94FF47A7000F0E8F9E6E700BF08B501F075FA03680C2B00D1FEE7FEE708B5104E104D16E0E9
:4001400029686B68AC68002204E051F8040B43F8040B0432A242F8D1E868002203E0002143F8041B04328242F9D11035013E002EE6D101F057FAFFF785FFFEE701000000DD
:400180008C18000008B5124A124B1A60124A136843F40073136000230AE0032B03D80F4A52F8231000E00E490E4A42F8231001332F2BF2D90C4B1A780C4B1A70094A0C4B02
:4001C0001A6000F0B9F800220A4B1A6008BD00BF0004FA050CED00E014ED00E000000000290100000080FF1FBC7600400481FF1F08ED00E00081FF1FFEE700BFF0B40022F7
:40020000174611E050F82760F3B226F0FF0608E001EB420511F812406D78A5550132013BDBB2002BF4D10137242FEBD9F0BC7047064B1B78DBB203F00701054A11701B098E
:40024000013213704422034B1A707047CF0100496E5800407658004008B50A46002101F012FA08BD38B55F22264B1A801823264A137040F2424102321180023213700622B6
:40028000224B1A705222A3F580731A70204B1B78DBB2204A13704FF4E1621F4B1A8041F25122023B1A80002419250CE01B4B1B7803F0010343EA440404F003044FF4F070EE
:4002C00001F04EF9013D0DB1032CEFD115B90320FFF792FF124A4FF48073138007231370002310490B7048200231087013700532137002220C4B1A700C4A137843F003032B
:40030000137038BD8040004082400040004300400F010049A14600402242004025420040044000400640004001400040A243004008B501F09DF908BD38B572B62C4A137826
:4003400043F00403137000240CE02A4963001A1952000A4423445B00C8589188FFF77CFF0134E4B2052CF0D94FF090402249FFF745FF224A137843F00203137010321378A3
:4003800043F0020313701E4C237843F040032370A2F58632513A137843F010031370194819490822FFF7C4FF184819490822FFF7BFFF184818490A22FFF7BAFF17481849A4
:4003C0000822FFF7B5FF174A137843F008031370154D61232B70FFF745FF81232B70FFF727FF124821460E22FFF7A2FF38BD00BFE84600409C16000094000048035001409A
:40040000A043004002510040380E0048C2510040400E0048F0510040480E004812510040540E00482243004000480040B0430040014B1870704700BF79640040014B187088
:40044000704700BF76640040014B1870704700BF75640040014B1870704700BF78640040014B1870704700BF77640040014B1870704700BF78650040014B1870704700BF0D
:4004800074640040014B1870704700BF76650040014B1870704700BF73640040014B1870704700BF77650040014B1870704700BF7B640040014B1870704700BF746500402C
:4004C000014B1870704700BF7C640040014B1870704700BF7B650040014B1870704700BF7D640040014B1870704700BF7A65004001BE704710B5044605E0084B186801F026
:400500002FF8A4F50044B4F5004FF6D8034B586800FB04F001F024F810BD00BF0C81FF1F08B5034B1B7A03FB00F001F019F808BD0C81FF1F70B504460E46074B1D681F28CF
:4005400002D90020FFF7D4FF04F01F04103455F8240045F8246070BD08ED00E038B504460D46072902D90020FFF7C2FF1F2C02D90020FFF7BDFF04F01F0000F1604000F52B
:4005800064406D01EDB2057038BD00BF134B1B78DBB20360124A127843EA02230360114A127843EA024303600F4A127843EA026303600E4B1B78DBB243600D4A127843EA29
:4005C000022343600B4A127843EA024343600A4A127843EA02634360704700BF0301004904010049EC4600400201004901010049000100490501004906010049F8B500F08C
:40060000B7FF06463C4A137843F0010313701032137843F0010313700127384B1F700225943B1D7002F5E2521B32137803F07F0313700020FFF774FF314C237803F0F9031E
:400640002370304A137803F0DF03137023783B4323703846FFF764FF2820FFF761FF2A4B1A7802F07F021A701A7802F0BF021A7023782B4323702846FFF752FF237843F077
:40068000040323700023214A137001321370304600F072FF17200721FFF760FF17201C49FFF748FF18200721FFF758FF18201949FFF740FF15200721FFF750FF15201649C3
:4006C000FFF738FF28460721FFF748FF28461349FFF730FF03200721FFF740FF03201049FFF728FF0C200721FFF738FF0C200D49FFF720FFF8BD00BFA54300409D60004001
:400700009443004012600040F851004084600040FD0B0000690A0000F90B0000950B0000C50B0000050C000000230A4A13700A4A13700A4A13700A4A13700A4A13700A4A99
:4007400013700A4A13700322094B1A708022203B1A707047A581FF1FBC81FF1FC481FF1FA781FF1FA881FF1FA381FF1FA681FF1F286000401C4B19781C4A13880B449BB26B
:40078000138000230EE01A4A51680978C9B21948C1545168013151600133DBB21188013989B21180124A128892B20AB1072BEAD90D4A1278D2B2082A00D05BB10E490A78D4
:4007C00082F080020A700F210C4A117002210C4A117004E0022209490A7009490A70094A1370014A13707047A681FF1FC281FF1FB081FF1F00600040AE81FF1FA281FF1F6C
:40080000A581FF1FA481FF1F0222074B1A708022064B1A700F22064B1A700023054A1370054A137001207047A581FF1FAE81FF1FA281FF1FA681FF1FA481FF1F08B5FFF7FC
:4008400099FF08BD10B4184B197801F00F010239C9B2164A13880B449BB21380002010E0134B5C68134A125CD2B222705A6801325A600130C0B20139C9B21A88013A92B247
:400880001A800B4B1B889BB20BB10029E8D10A4B19700A4A137883F0800313700B22084B1A705DF8044B704729600040C281FF1FB081FF1F00600040A481FF1FAE81FF1F76
:4008C000A281FF1F0623064A1370064A13708022054B1A700022054B1A700120704700BFA581FF1FA281FF1FAE81FF1FA481FF1F064B9B6843B1054B9A6810709A6804495B
:400900000988518000229A60704700BFB081FF1FC281FF1F08B5134B1A78D2B21A701B78DBB213F0800F02D00F4A137008BD0220FFF7DEFF0D4B1B7803F06003202B05D0DD
:40094000402B06D043B900F04DFC06E000F018FE03E000F0EFFD00E0002010B90322024B1A7008BD28600040A281FF1F0060004008B5084B1978084A13880B449BB2138066
:400980000022064B1A700120FFF7B2FF0322044B1A7008BDA681FF1FC281FF1FA581FF1FA281FF1F08B50B4B1B78DBB2042B06D0062B07D0022B0BD1FFF7DAFF08BDFFF7B1
:4009C00041FF08BD0320FFF793FF0322024B1A7008BD00BFA581FF1FA281FF1F08B50022044B1A700120FFF783FF0322024B1A7008BD00BFA581FF1FA281FF1F08B50B4BD9
:400A00001B7813F0FF0F07D0084A137843F0800307490B70002313700022064B1A700120FFF766FF0322044B1A7008BDA881FF1F08600040A581FF1FA281FF1F08B5094B76
:400A40001B78DBB2042B06D0062B07D0022B07D1FFF7F4FE08BDFFF7C1FF08BDFFF7CEFF08BD00BFA581FF1F08B5284B1B78DBB213F0100F48D013F0800F0CD003F00F0394
:400A8000012B16D1FFF746FF214B1B7813F0800F11D1012312E013F0400F03D0FFF7CEFF01230BE013F0200F07D0FFF77BFF012304E0002302E0002300E0002323B3134B88
:400AC0001B7813F0800F1FD1124B1B78124A12781343124A13701278D2B29A4214D10C4B1B78DBB2094A127812F0800F07D1084B1B78DBB2054A1370137803F00F03044A27
:400B00001278D2B29342EAD108BD00BF28600040A281FF1FAE81FF1FA481FF1F296000400022064B1A80064B9B682BB1044A916800230B7092685380704700BFC281FF1F6B
:400B4000B081FF1F08B50F4B1B889BB213B9FFF75BFE15E002220C4B1A7000220B4B1A70FFF7DEFF0A4AD179937943EA0123054A128892B29A4201D9024A1380FFF7FAFD8B
:400B8000012008BDB081FF1FA581FF1FAE81FF1F006000400122094B1A700F3B9B7C084B1B7B03F00303934204D0054AD37B83F08003D3730122024B5A7370470B6000406A
:400BC000C881FF1F02220A4B1A700F3B93F82230084B1B7E03F00303012B04D0054AD37E83F08003D3760122024B5A76704700BF0B600040C881FF1F704700BF08B5FFF7AF
:400C000093FD08BD08B500F0A1FC08BD70B588B0054603AC174E0FCE0FC43368237035B322232B7003236B7001A8FFF7AFFC002402231AE008AA224412F81C2C08A901EB59
:400C4000121111F8141CE954581C00212954981C02F00F0208AE324412F8142C2A54DA1CA9540134E4B20433DBB2212BE2D908B070BD00BFC016000010B401223DE01146C0
:400C800013010C242148C45402EB42039B00204803445B7913F0FF0F12D002EB42039B0003441B7913F0800F04D01001194B03449C700AE01001174B03440820987004E09E
:400CC0001001144B0344802098704B000B449B000F480344DC88E4B208010C4901448C71D888C0F30720C871D888C0B20871DB88C3F307234B710132D2B2082ABFD9FF22C9
:400D0000054B1A705DF8044B704700BF70600040C881FF1FFC5F00400A600040074B1B78074A02EBC30253681A7C824203D903EBC003586970470020704700BFA981FF1F23
:400D4000D4160000F8B5404B1B7813F0FF0F79D03D4B18780138C0B2FFF7E0FF047AC2683A4B1878C0B200236AE01178814264D13749095CC9B25578A9425ED1917801F06E
:400D80007F01D67806F00306DFF8C8E04D000D44AD000EEB05074FF0000C87F803C092F802C087F804C092F803C00EF805C095883D8192F90250002D0DDA012E01D1072768
:400DC00000E00D274D000D44AD00224E35446F7101266E700CE0012E01D1052700E009274D000D44AD001B4E35446F7100266E70DFF868E00F010EEB07060125B57001FA11
:400E000005F529448900134D29440D89C5F307250EF807500D89EDB27570CE88F6B20E4D3D44AE71CE88C6F30726EE71CE88F6B22E71C988C1F30721697108320133DBB2D1
:400E4000A34292D3F8BD00BFC481FF1FA781FF1FA081FF1FC881FF1F70600040FC5F0040034B1A78034B03EBC2035868704700BFA981FF1FD416000008B5074B1878013899
:400E8000C0B2FFF74BFF28B14268127900EBC203586908BD002008BDC481FF1F2DE9F04100220EE0704E53009D18AD00741900217155A170E1702181A172617061710132C9
:400EC000D2B2082AEED940B90AE000226749CA546749CA540133DBB200E00023012BF4D9644B1B7813F0FF0F00F0BB80614B18780138C0B2FFF712FF4368DB7913F0400F5A
:400F000005D05D4A137843F00103137004E05A4A137803F0FE031370057A012473E0C16800236CE08A7802F07F02944264D1264604EB440292004C4F3A44128992B28F8815
:400F4000BA4206D204EB44029200DFF81CE1724417810A78454FBA5CD2B24F78BA424BD191F802C0404F72003244920007EB020E8EF804C091F803E007F802E0CF7807F0FA
:400F8000030791F90220002A1BDA012F02D14FF0070801E04FF00D08DFF8CCC0720002EB060E4FEA8E0EE6448EF8058001228EF801208A79012A1FD1022F1DD12F4A1470F2
:400FC0001AE0012F02D14FF0050801E04FF00908DFF894E04FEA460C0CEB06029200724482F805801646002272708A79012A03D1022F01D1224A147008310133DBB2AB421F
:4010000090D30134E4B2082C89D9C06800220CE0837803F07F0310F8084B03EB43039B0018490B449C700132D2B2AA42F0D3FFF723FF154B1860002301210EE00A4C4A0037
:40104000501880002044C380028913449BB203F0010213449BB20131C9B20829EED9FFF70BFEBDE8F08100BFC881FF1FA081FF1FAC81FF1FC481FF1FA381FF1F3A82FF1F2F
:401080003882FF1FD081FF1F3482FF1F08B5154B1A7902F07F02531EDBB2072B20D8530013449B0010490B44997841F0010199700021D970597841F0020159701B7913F0C1
:4010C000800F05D01201094B13448D229A7004E01201064B134489229A70FFF7F3FB08BD002008BD00600040C881FF1FFC5F0040264B1B7903F07F035A1ED2B2072A43D8CF
:4011000010B55A001A44920021490A44917801F0FE0191700021D17019017F241D484454517801F0FD015170127912F0800F14D003EB4302920016490A445278D2B2012A6E
:4011400005D11B0102461A440C23937019E01B01104A1A440D23937013E003EB430292000B490A445278D2B2012A05D11B01094A1A440823937004E01B01064A1A44092327
:401180009370FFF79FFB10BD0020704700600040C881FF1FFC5F004010B50E4B1C79E4B20D4B18780138C0B2FFF7B8FD43681B799C4201D9022C0AD8084A135DDBB2084928
:4011C0000B55044B9B78DBB21355012010BD002010BD00BF00600040C481FF1FA081FF1FAC81FF1F10B59B4B1B78DBB200219A4A118013F0800F00F0AD80964A5278D2B2D3
:401200000A2A00F27281DFE812F06900700170017001700170010B007001920070019A008C4BDB78DBB2012B09D1FFF719FE4268894B5A6012221A80FFF784FC10BD854B32
:40124000DB78DBB2022B13D1824B9878FFF766FD002800F04C8142687F4B5A605A68D1785A68927842EA01221A80FFF76BFC10BD784BDB78DBB2032B05D02CE00A781144C1
:401280000133DBB201E000237449724A9278D2B29A4203D90A7812F0FF0FEFD16D4B9B7813F0FF0F0BD06B4B9B78DBB26C4A127C934204D16B4C2046FFF7A8FC21460B78BC
:4012C00013F0FF0F00F015810B78634A13805160FFF738FC10BD00F053F910BD13F0030317D0022B40F007815B490B80594B1B7903F07F0303EB43039B005B4A13449A7855
:40130000D2B25A4B1A7000225A704B60FFF71AFC10BD514902230B80554B1A78D2B2534B1A7000225A704B60FFF70CFC10BD4A4B01221A804F4A5A60FFF704FC10BD464A08
:4013400001231380434B1B794B490B445360FFF7F9FB10BD3F4A5278013A0A2A00F2CD80DFE812F04B00CB009600CB000B00CB00CB00CB001300CB003000364B9B78DBB26B
:401380003E4A1370FFF79EFA10BD324B9B7803F0FF041BB1601EC0B2FFF7C0FC04B110B9002C40F0AC80334B1B78DBB29C4206D0304B1C700120324B1870FFF76FFDFFF7F6
:4013C00081FA10BDFFF7E8FE002800F09A80214A1379DBB21279D2B22A490A702A4AD25C2549C95CD3B28B4204D00122244B1A70FFF7A8FCFFF766FA10BD03F00303012BBE
:4014000017D04BB1022B7ED1124B9B7813F0FF0F7BD1FFF76DFE10BD0E4B9B78DBB2012B75D1134A137803F0FD031370FFF74AFA10BD084B1B79DBB2012B6AD8054B987840
:401440001B79DBB21149CA5C22EA0002CA54FFF739FA10BD00600040B081FF1F34170000501800007C82FF1FC881FF1F9C81FF1FA381FF1FC481FF1FA081FF1FA881FF1F1E
:40148000BC81FF1FA781FF1FAC81FF1FC081FF1F03F00303012B17D04BB1022B3BD1224B9B7813F0FF0F38D1FFF7F0FD10BD1E4B9B78DBB2012B32D11C4A137843F00203F5
:4014C0001370FFF7FFF910BD174B1B79DBB2012B27D8154B98781B79DBB21549CA5C22EA0002CA54FFF7EEF910BD002010BD002010BD002010BD002010BD002010BD002054
:4015000010BD002010BD002010BD002010BD002010BD002010BD002010BD002010BD002010BD002010BD00BF00600040A381FF1FC081FF1F044B1B7813F0800F01D0024BF7
:401540005B780020704700BF00600040024B1878C0F38010704700BF8F450040000000000230800803D000BF01380046FCD17047EFF3108072B6704780F31088704700BF97
:4015800008B5124B1B7803F00303012B02D0022B04D00FE00D4B1B79DBB20CE00B4B1B7903F07F0303EB43039B00094A13449B78DBB200E00023074A1268D35C012B02D1BE
:4015C00000F00AF808BD002008BD00BF00600040D081FF1F3482FF1F0E4A137803F00303127812F0800F09D0022B02D1094B5B780DE0012B0BD1074B5B7808E0022B02D1B4
:40160000044B5B7803E0012B01D1024B5B780020704700BF00600040014B1868704700BF7C81FF1F0E4B70B51E460E4C0025E41AA410A54204D056F8253098470135F8E78F
:4016400000F012F9084B094C1E46E41AA4100025A54204D056F8253098470135F8E770BD7418000074180000741800007C18000010B5431E0A44914204D011F8014B03F86A
:40168000014FF8E710BD03460244934202D003F8011BFAE7704700000000000020510040500000000140001000140140000800400140000A004C01400002005001402000CF
:4016C000303132333435363738394142434445460000000001000000DC1600000100000050180000000000000000000001000000F416000001000000E817000002000000DF
:401700002017000000000000000000000000000000000000000000001C170000010100000100810220000100010002022000010002030000040309042C03430079007000FE
:4017400072006500730073002000530065006D00690063006F006E0064007500630074006F007200120355005300420020004D0049004400490024034D00490044004900A1
:40178000200043006F006E00740072006F006C00200049006E007400660028034D004900440049002000530074007200650061006D0069006E006700200049006E00740014
:4017C000660010034D00490044004900200049004E0012034D0049004400490020004F005500540000000000090265000201018032090400000001010003092401000109D6
:40180000000101090401000201030004072401000125000624020101050624020202050924030103010201060924030204010101060905810220000000000525010103096E
:40184000050202200000000005250101010000001201000200000008B40432D2010001028001000043000000F8B500BFF8BC08BC9E4670474D00000085010000F8B500BFB3
:40188000F8BC08BC9E46704729000000A01800000881FF1F780000002001000000000000000000000000E02EC05D00001800000000366E010000000000000000000000000C
:4018C000000000000000000000000000000000000000000064180000000000000000000000000000000000000000000000000000000000000000000000000000000000006C
:4019000000000000000000000000000000000000000000001C81FF1F00000000000000000000000000000000000000000000000000000000000000000000000000000000EC
:401940000000000000000000000000000000000000000000000000000000000000000000000000000000000000000000000000000000000000000000000000000000000067
:401980000000000000000000000000000000000000000000000000000000000000000000000000000000000000000000000000000000000000000000000000000000000027
:4019C00000000000000000000000000000000000000000000000000000000000000000000000000000000000000000000000000000000000000000000000000000000000E7
:401A000000000000000000000000000000000000000000000000000000000000000000000000000000000000000000000000000000000000000000000000000000000000A6
:020000040003F7
:0200000480007A
:40000000014500400452004003640040520001403901014044020140500301404F0401405F050140420601405A0701403D0801405D090140570A01405D0B0140470C014064
:400040003B0D0140020F0140401401405C15014038160140491701404E180140541901403F1A01405B1B014004400140044101400842014006430140024601400647014051
:400080000C48014001490140024C014007500140015101407E020120640878017C4081728238890F0010010A020F031506100702091F0A080E010F08111F1202141F17107E
:4000C00018101A0F1B011C0F1D061E101F192013220C231F24102501260F271E2A042B1F2C152E0A2F04351F361F3E403F10580459045F01801F810485408601894E8A08DC
:400100008B218D7F8E029015914E920A9311941F9579970699069A109C0C9E13A21FA340A403A61CAA04AB31AC1CAD02AE03B107B21FB576B708BB22BE04BF40D602D71024
:40014000D804D904DB04DF010080010903480444074408A409010B200C450D010F0410411290131814801540160417081B401D0422202510264128A02A502D802F44311807
:40018000328033023605371039823A083B203DA03E0658015B015E806C126E207414760277128004850986088702C0FFC2FFC4FFCABFCCEFCEFFD610E20600FF0411080CC2
:4001C0000C22108C127314F3160C18331C0F1EF0200824042B012EB32F01308C31013240340F363038083A203F0154185604580459045B045F018018810182078501861096
:40020000880789018A188C0A8D018E1591019202941F9501981899019A079C1F9D01A019A101A206A501A608A901AA04AD01AE01B101B61FB902BE40BF01D804D904DB04E5
:40024000DF01020803A1044005200680072008A10B200C040D220E021128128215081602170218021E592340274029042B452D802E402F08326534043604381A394040023C
:400280004340480449205E01640266216861692070407208739080248480860287048E8090209108960497AC99049B029CA09D189E4C9F0DA006A102A231A340A440A541C2
:4002C000A68CA820A952AC10AD84B318B440B540C0FFC2FFC4BFCA3FCC0FCE0FD680D8B0E607001F0302051F0602091F0A010E1F0F0812081301141F151917061803191F13
:400300001A1C1C1F1F04200C2213231F250726042718290A2A102B152C152E0A2F10301F371F3E013F40580459045B045F018422865188E78C448E31908094E798019A0E6A
:40034000B060B280B407B618BE40C023C104C205C401C50EC70CC811C9FFCAFFCBFFCC62CDA0CEF0CF41D00CD804DA04DB04DF01E640E702E910EA30EB10ED10EE10EF12CF
:40038000002003920460072008A10B200C020D200E201020112012811B011C401DA01F04224028A22B043090310833013448364438843B213D803E804408458046904D80AF
:4003C0004E284F1057085D405E40610262016610670869816A206B106C046E816F20708171147405770582028401880189208C018D1090A091209210935094509540968EF3
:4004000097AC98A099809B809D189EE49F2CA022A294A565A602A7A9AA08AC01B001B301B510B601B704C0EFC27FC40FCA0FCC0FCE0FD0F0D210E203E601EA06EE40020133
:400440000407061008070A100C070E1012101403161418051A121E0220072210240726102A082E0430103207360838023E0558045B045F01801F811F861F87028A018B1035
:400480008C1F8D158F0A91139202930C940696199704981E9A019B089D1F9E04A210A31FA401A50FA61EA710A80AAA15AB01AD1FAE08B01FB11FBE01BF01D804D904DB04AC
:4004C000DF0100040120028104060550070A082009090A010C400D080E840F081018110113881420158217201A401C101F41220128212B8A314032923304380839223A8115
:400500003D203E2048014A0265106708681069806B846C016D0A6F08700273157501761680028784882089088A428B408C048F4390089123923193409414964A97859860A3
:4005400099249B209C109D099E249F08A004A228A410A54EA786A901AD01AE04AF30B240B380B402B541C0FFC2FFC4FFCA0FCC0FCE0FE004EE03021F0302061F071F0A0820
:400580000B080D130E010F0C100612191304141E15151601170A181F191F1C011E1E1F10200A2215231F250F260427102A022B1F2E102F01311F321F3E043F015804590403
:4005C0005B045F018503871489338B048D408F159533970C990A9B349F08B30FB510B760B980BB08BF10D401D604D904DB04DF01055007600C400F941402164817081C20AB
:400600002128228026022C542F01310832903408358036293720388039183C803D093FA440204104582159045A40620164106710682069806A026B046C026D016E086F08EF
:40064000700572087301748076A077087E017F01831084018610884089108A208B108D048F1090819118922094209580981499049A109B409C409E029F10A040A104A23086
:40068000A402A548A680AA01AF08B018B580B703C0F0C2F0C4F0CAF0CCFECEFED60FD801E070E6E0EA10EC70EE80000A0204040409610A180B0E0F231404156116031716A7
:4006C000195C1B031F1C200524072610270828032A0C3160331A341F350F39023B283F014035410646EB470C481C49FF4AFF4BFF4EF04F44500C580459045A045F0166C07A
:400700006A406B0282018310841E85158601870A8A108B1F8D0C8E088F139204930894019503961E971C980A9A159B019D1F9E02A01EA201A31FA41EA601A71FA81EAA0152
:40074000AB04AC06AE19AF02B21FB71FBE04BF40D804D904DB04DF010128028004200501062209080C060D400F041080131814501540160819201E20221023582401290834
:400780002C482E082F0131083290350236043750388039103B903C923E203F044108440145404B905080510452106C016D206E067410750277228130860489048B208C209B
:4007C0008F49909091449304940297419814990D9A089C419D809E109F20A061A104A224A308A720A804A905AA08AC08B009B304B410B690B740C0FEC2F4C4FECAF2CCFE01
:40080000CEFCD002D20CE0C0E220E610E880EA40EE300204033E041F06200704081F0A200B080D320E080F4D11141210136B141F1530174F180A1AF51B021E011F7E201F5A
:40084000210E222023712401263E2720293E2A022C062EB92F1030403220330134803540361F373E3A2A3B283E403F40580459045B045C115F018401B201BE04C005C5049E
:40088000C9FFCA07CBFFCC40CD20CEF0CF05D008D804DA04DB04DF01E040E1A8E240E3200210041A07010E600F051458154019041C801D101E2A1F082418250426A02C44C0
:4008C0002D802F283401360437603C883D423F1049084B4050405810591069066A506C286E016F01710172067310740576058110820186208D40950296059E07B101B2015F
:40090000B606C0F4C2F0C4F0CAF0CCF0CEF0D208E240EA60EE90820186040019011F0206061007040A040B100E1F0F081201131F141F1506171918071A181B011C0A1D1F7B
:400940001E15201F210A231525012608271E2A1F2B022E022F1F331F361F3A303E403F04580459045B045C015F018201861F8A1F8E1F920294069639980A9A359E08A21F1B
:40098000A401A63EAA10AE04B220B41FBA08BB80BE10D804D904DC01DF01000A030904140685070208A00A800B220C400D280E040F401206130A14281502164017811A04C5
:4009C0001B601C101D101F042020254028A029202A4031093350382039443A015D205F20680469846A027020722273807C047F10801081408422886089208A018C1C8D41A3
:400A00008F4090049102928093429604970898209A809B3A9D109E26A003A108A202A308A410A540A760AA02AB03AC80AD10B098B522B603B721C0FFC2FFC4FFCA0FCC0F63
:400A4000CE0FE008E204E408E604E801EA12EC04EE0308010B0218011B022001210124012C0131013502360138803E403F11580459045B045F018013820C831F86028708D6
:400A80008A108B108C1F8F019208931F96049704980F99199A109B069C159E0A9F1FA10AA21FA315A507A601A718A81FAB02AD1FAE1FB41FB71FBE10BF40D804D904DB0439
:400AC000DF01000A0209051008220B120D10104112141302149015801A081F80214025102601282829422F80306131043620380839023A603E10680269016B286F5A7004B8
:400B00007120734174807524768083028501881089408B048D208F409004910292909310960C970898239A519F42A025A108A228A550A802A904B008B10AB2C6B640B704A2
:400B4000C04FC24FC4BFCA8FCC2FCE2FE00CE820EA06EE0201020208041F050209010A1F0D010E101101121F15011602180C19021A131D011E0421012201241F2501280321
:400B800029022A1C2C152D012E0A301F3502370139A03E013F50580459045B045F01820483048601871F880A890C8A158B138C198D158E068F0A9202931094189607970215
:400BC0009818991C9A079B039E089F1FA103A210A31CA407A618A701A818AA07AB1FAE1FAF08B11FB61FBE40BF01D804D904DF0100880101020804100522060207200818EE
:400C000009010B050C010D5410811110122013201418160117111A011E40220125402708284029242A802E012F1630083101335036923708380239203A403B043C253E4088
:400C4000440147406D646E027519770180108580884089108B028C06900B91209325942095409AC09B449C429DD0A0F0A23EA601A940AA03B140B248B408B520B640B7085D
:400C8000C0FFC2FFC4FFCAFFCCFFCEFFE090E4C0E840EA12EC20EE02031F07040B080D100F0F13021510170F19131B0C1F102301271F29152B0A2D0F2F10311F3F015904BA
:400CC0005B045F018115821F830A8415860A8710881F891C8B038D0C8E028F13911F9204940F9610970898139A0C9B019E089F1FA11CA201A303A610A704A810AA0FAB0208
:400D0000AC1FAD03AF1CB21FB71FBE04BF40D804D904DB04DF01018002010491062807400C140D500E400F2010031409164017041F042101268028012A282B402C622D10C8
:400D40002F403014310232403615374038213A043B803C803D043E013F2069916B106D026E606F207019714074017504760680108201833084488640880589828A218C431D
:400D80008F10901091249280950397089B449C089D449E03A060A204A340A40CA501A680A810A942AA20AD40AE01B10DB404B510B640B740C0F0C2F0C4F0CAFFCCFFCEFF44
:400DC000E030E2C0E4F0EAA0ECC0EE10331135803702CCF063409D809F13D8400780800497409D809F03B710C020E680900897409D809F03AF80E8405280D40409080F4084
:400E00008E80A680C20CE00223405004571090089740A980AF03B340C840D460EA60EE40B710AD08AF40000308010A010C010E0310031A0300AF00000020200020000000E0
:400E400008000000000000004000001313001300C0000000000B0B00000000000000000000000000000000000000000000000000000000000000000000000000000000001B
:400E80000000000000000000000000000000000000000000000000000000000000000000000000000000000000000000000000000000000000000000000000000000000032
:400EC00000000000000000000000000000000000000000000000000000000000000000000000000000000000000000000000000000000000000000000000000000000000F2
:400F000000000000000000000000000000000000000000000000000000000000000000000000000000000000000000000000000000000000000000000000000000000000B1
:400F40000000000000000000000000000000000000000000000000000000000000000000000000000000000000000000000000000000000000000000000000000000000071
:0200000490006A
:0400000000004005B7
:0200000490105A
:04000000BC90ACAF55
:0200000490303A
:02000000CD46EB
:0200000490402A
:4000000000000000000000000000000000000000000000000000000000000000000000000000000000000000000000000000000000000000000000000000000000000000C0
:400040000000000000000000000000000000000000000000000000000000000000000000000000000000000000000000000000000000000000000000000000000000000080
:400080000000000000000000000000000000000000000000000000000000000000000000000000000000000000000000000000000000000000000000000000000000000040
:4000C0000000000000000000000000000000000000000000000000000000000000000000000000000000000000000000000000000000000000000000000000000000000000
:0200000490501A
:0C00000000012E16106900012E22DDAF59
:00000001FF